:020000040800F2
:10000000584E002085020008FB150008DB1400088C
:10001000F915000811040008351A00080000000056
:10002000000000000000000000000000C501000802
:100030001304000800000000210200081517000842
:100040009F0200089F0200089F0200089F0200080C
:100050009F0200089F0200089F0200089F020008FC
:100060009F0200089F0200089F0200089F020008EC
:100070009F0200089F0200089F0200089F020008DC
:100080009F0200089F0200089F0200089F020008CC
:100090009F0200089F0200089F0200089F020008BC
:1000A0009F0200089F0200089F0200089F020008AC
:1000B0009F0200089F0200089F0200089F0200089C
:1000C0009F0200089F0200089F0200089F0200088C
:1000D0009F0200089F0200089F0200089F0200087C
:1000E0009F0200089F0200089F0200089F0200086C
:1000F0009F0200089F0200089F0200089F0200085C
:100100009F0200089F0200089F0200089F0200084B
:100110009F0200089F020008DD1700089F020008E8
:100120009F0200089F0200089F0200089F0200082B
:100130009F0200089F0200089F0200089F0200081B
:100140009F0200089F0200089F0200089F0200080B
:100150009F0200089F0200089F0200089F020008FB
:100160009F0200089F0200089F0200089F020008EB
:100170009F0200089F0200089F0200080000000084
:100180009F0200089F0200089F0200089F020008CB
:100190009F0200089F0200089F0200089F020008BB
:1001A0009F0200089F0200089F020008DFF810D09D
:1001B00000F01CF900480047ED350008AFF300805F
:1001C000584E00202C4B19680868B0E8F04F80F3B7
:1001D0000988BFF36F8F4FF0000080F311887047DC
:1001E0000000000008480068006880F308884FF0AD
:1001F000000080F3148862B661B6BFF34F8FBFF37F
:100200006F8F00DF00BF00BF08ED00E0DFF80C00DB
:10021000016841F470010160704700BF88ED00E0A3
:10022000EFF30980BFF36F8F134B1A681EF0100FA6
:1002300008BF20ED108A20E9F04F106009B44FF09C
:10024000500080F31188BFF34F8FBFF36F8F04F01E
:1002500025FE4FF0000080F3118809BC196808687A
:10026000B0E8F04F1EF0100F08BFB0EC108A80F31A
:100270000988BFF36F8F704714000020EFF30580EB
:10028000704700000648804706480047FEE7FEE743
:10029000FEE7FEE7FEE7FEE7FEE7FEE7FEE7FEE736
:1002A000CD170008AD0100082DE9F05F05460020DC
:1002B00092469B4688460646814640241BE02846D7
:1002C00041464746224600F080F853465A46C01A37
:1002D000914110D311461846224600F067F82D1AB6
:1002E00067EB01084F4622460120002100F05EF82E
:1002F00017EB00094E41201EA4F10104DFDC484643
:1003000031462A464346BDE8F09F40EA01039B0779
:1003100003D009E008C9121F08C0042AFAD203E07A
:1003200011F8013B00F8013B521EF9D27047D2B2DE
:1003300001E000F8012B491EFBD270470022F6E7CE
:1003400010B513460A4604461946FFF7F0FF20464B
:1003500010BDCAB2401E10F8011F8A4202D0002907
:10036000F9D10020704730B504460020034600E074
:100370005B1C934203D2E05CCD5C401BF8D030BDE7
:1003800030B50B46014600202022012409E021FA65
:1003900002F59D4205D303FA02F5491B04FA02F562
:1003A0002844151EA2F10102F1DC30BD202A04DB35
:1003B000203A00FA02F1002070479140C2F1200378
:1003C00020FA03F3194390407047202A04DB203AB7
:1003D00021FA02F00021704721FA02F3D040C2F165
:1003E000200291400843194670470000064C074D13
:1003F00006E0E06840F0010394E8070098471034F5
:10040000AC42F6D3FFF7D6FE2C6100084C61000821
:10041000FEE7704772B6FEE72DE9F84FDFF8F8A166
:100420000022012403254FF00F090AF1040BAAF161
:10043000040E00BF0B6804FA02F63340B34270D1D9
:100440000F7907F00307012F01D0022F16D187681B
:100450004FEA420805FA08FC27EA0C07D1F80CC05D
:100460000CFA08FC4CEA070CC0F808C04768B74310
:100470000E79C6F3001696403E4346600E79F64369
:10048000B6070AD0C7684FEA420C05FA0CF6B74324
:100490008E6806FA0CF63E43C6600E7906F0030637
:1004A000022E10D1D60800EB8608D8F82060570736
:1004B0004FEAD76C09FA0CF7BE430F6907FA0CF73D
:1004C0003743C8F8207006684FEA420C05FA0CF76B
:1004D000BE430F7907F0030707FA0CF737430760AD
:1004E0004E6816F4403F1CD04C4E376847F48047A6
:1004F0003760366822F0030706F480460096484EBF
:1005000007EB060CDCF8086897073F0F09FA07F8B5
:1005100026EA0806DFF80C81404503D14FF00008B9
:1005200041E072E0DFF80081404502D14FF0010860
:1005300039E0DFF8F880404502D14FF0020832E0A0
:10054000DFF8EC80404502D14FF003082BE0DFF8E4
:10055000E480404502D14FF0040824E0DFF8D88061
:10056000404502D14FF005081DE0DFF8D08040453E
:1005700002D14FF0060816E0DFF8C480404502D1F2
:100580004FF007080FE0DFF8BC80404502D14FF084
:10059000080808E0DFF8B080404502D14FF00908B4
:1005A00001E04FF00A0808FA07F848EA0608CCF814
:1005B0000888DAF800605746D1F804C09E435FEA25
:1005C000CC2C00D51E433E60DBF800605F46D1F8BE
:1005D00004C09E435FEA8C2C00D51E433E60DEF8CB
:1005E00000607746D1F804C09E435FEA8C3C00D59A
:1005F0001E433E60084F083F3E68D1F804C09E434A
:100600005FEACC3C00D51E433E60521C102AFFF42A
:1006100011AFBDE8F88F0000083C014044380240AB
:100620000030014000000240000402400008024087
:10063000000C02400010024000140240001802406A
:10064000001C024000200240002402400AB18161E7
:1006500070470904FBE7000001488068704700000C
:1006600004000020024881680278114481607047CC
:10067000040000200B4810B5016841F400710160CE
:10068000016841F480610160016841F4807101609A
:10069000032000F09FF80F2000F006F800F050F85B
:1006A000002010BD003C024030B505461F4887B011
:1006B0000024016841F010010160006806A900F003
:1006C0001000009001A800F069F90498A8B100F0AA
:1006D00085F940001649174AB0FBF1F11648491E4A
:1006E000026040F2E732C0E90324C0E901148461EA
:1006F00000F003FD040003D015E000F06FF9E9E716
:100700000D4800F029FD04000DD1362000F034F82A
:10071000102D07D200222946362000F03BF807486A
:10072000056000E0012407B0204630BD403802409B
:1007300040420F00001000403C0100200800002053
:100740000C4882B0016841F480410160006800F407
:10075000804000900748001F016841F0805101600F
:100760000068002200F0805000900F21901E02B01F
:1007700000F010B844380240002809DB00F01F02E6
:10078000012191404009800000F1E020C0F80011F3
:1007900070470000F0B40E4B1B680C46C3F30223F5
:1007A000C3F10705042D00D90425191D072901D21D
:1007B000002300E0DB1E012606FA05F1491E214058
:1007C00099409E40761E16403143F0BC01F044B97A
:1007D0000CED00E0064900F0070208684FF6FF0341
:1007E000184040EA0220034A1043086070470000A6
:1007F0000CED00E00000FA052DE9F8431748016808
:1008000041F0805101600068154F00F080500126D2
:1008100000903E64FFF720FF05464FF47A78114CB4
:1008200005E000BFFFF718FF401B40450DD860688A
:10083000C003F7D57E64FFF70FFF0546464607E085
:10084000FFF70AFF401BB04202D90320BDE8F8833E
:1008500060688003F4D50020F8E7000040380240CB
:1008600000000E42007000402DE9F0470E460500E2
:1008700065D0DFF81481D8F80000F7B200F00F005F
:10088000B04207D288F80070D8F8000000F00F00DE
:10089000B04254D128683D4C810712D5400703D59A
:1008A000206840F4E05020602878000703D52068D5
:1008B00040F4604020602068A96820F0F000084300
:1008C00020602878C0072DD0304968680839012891
:1008D00012D0022813D0032811D0096889070029F3
:1008E0002DDA216821F0030101432160FFF7B4FEF6
:1008F000814641F2883A0EE009688903EFE709680A
:100900008901ECE7FFF7A8FEA0EB0901514502D9E8
:100910000320BDE8F0872068696800F00C00B0EBA8
:10092000810FEFD1D8F80010404601F00F01B1421D
:1009300007D90770006800F00F00B04201D0012015
:10094000E7E72878400705D52068E96820F4E050FB
:10095000084320602878000706D52068296920F41C
:10096000604040EAC100206000F058F82168084A61
:10097000C1F30311515CC84006490860064800688D
:10098000FFF792FE0020C4E7003C02400838024016
:10099000945B000810000020080000200F22026075
:1009A0000C4A136803F003034360136803F0F00379
:1009B0008360136803F4E053C36012684FF4E0539C
:1009C00003EAD20202610448006800F00F000860E8
:1009D0007047000008380240003C024004480549C6
:1009E00000680968044AC1F38221515CC84070471D
:1009F0001000002008380240A45B000804480549A4
:100A000000680968044AC1F34231515CC84070472C
:100A10001000002008380240A45B0008154810B5FB
:100A2000006810F00C02144813D01449042A0FD0A7
:100A3000082A0ED10F4C241F2268236802F03F02BF
:100A40005B0207D52068C0F38810A0FB010106E017
:100A5000084610BD2168C1F38811A1FB00010023E5
:100A6000FFF722FC2168C1F30141491C4900B0FB9A
:100A7000F1F010BD083802400024F40040787D01F8
:100A80002DE9F84F04006ED02078DFF84C93C007B2
:100A9000A9F104054AD009F104000168C1F38101FC
:100AA000012908D00068C0F3810002280AD1D9F8D2
:100AB0000000400206D52868800337D5606800280A
:100AC000E1D033E06068B0F5803F10D0B0F5A02FE2
:100AD000286810D020F480302860286820F4802016
:100AE00028606068A8B1FFF7B7FD06460DE02868EA
:100AF00040F48030F4E740F480202860F7E700BF3E
:100B0000FFF7AAFD801B642873D828688003F7D5F7
:100B10000CE0FFF7A1FD064605E000BFFFF79CFDD6
:100B2000801B6428F0D828688003F7D42078DFF889
:100B3000AC8280074FF0000A3ED5A748001D01682F
:100B400011F00C0F08D00068C0F3810002280BD10F
:100B5000D9F80000400207D42868800716D5E0685D
:100B6000012800D112E033E1E068B8B10120C8F8F3
:100B70000000FFF771FD064605E000BFFFF76CFDC2
:100B8000801B0228C0D828688007F7D5286821690B
:100B900020F0F80040EAC10028600DE0C8F800A08D
:100BA000FFF75AFD064604E0FFF756FD801B0228BA
:100BB0001FD828688007F7D42078000722D5864FF1
:100BC00087486169703771B101210160FFF744FD09
:100BD000064604E0FFF740FD801B022809D838686C
:100BE0008007F7D50EE0C0F800A0FFF735FD0646F8
:100BF00005E082E0FFF730FD801B02287DD83868D1
:100C00008007F7D42078400768D5DFF8CCB10027FB
:100C10000BF13C0BDBF80000C0000BD4DBF800103C
:100C200041F08051CBF80010DBF80000012700F004
:100C3000805000906B4E3068C00510D4306840F48E
:100C400080703060FFF708FD009005E0FFF704FDBD
:100C50000099401A022850D83068C005F6D55E4E7B
:100C6000A0686C3601280FD00528306810D020F01D
:100C700001003060306820F004003060A068B8B136
:100C8000FFF7EAFC00900FE0306840F00100F4E765
:100C900040F004003060F7E7FFF7DEFC0099411AEE
:100CA00041F28830814266D830688007F4D50EE082
:100CB000FFF7D2FC009007E0FFF7CEFC0099411A45
:100CC00041F28830814256D830688007F4D42FB181
:100CD000DBF8001021F08051CBF80010A069C8B3F8
:100CE0003D49091D0968C1F3810102294AD0022842
:100CF000504607D0C8F8600000E03CE0FFF7ACFCCD
:100D000004463BE04746C8F86000FFF7A5FC0646EE
:100D100005E000BFFFF7A0FC801B02282BD8286845
:100D20008001F7D4D4E907010843A16A2E4A490893
:100D300002EB0141626A41EA8211084394F82C10E7
:100D400040EA0161C9F8001001203866FFF784FC11
:100D5000044606E03EE000BFFFF77EFC001B0228D1
:100D600009D828688001F7D534E000BFFFF774FC8C
:100D7000001B022802D90320BDE8F88F28688001F3
:100D8000F4D427E00128F7D0D9F80000E26900F494
:100D9000800191421CD1226A00F03F01914217D19B
:100DA00047F6C071626A0140B1EB821F10D1A26A9E
:100DB0004FF0FF3300F4403103EB5202B1EB024F2E
:100DC00006D194F82C1000F07060B0EB016F01D0E8
:100DD0000120D1E70020CFE704380240000047425D
:100DE000800E4742007000400000FFFF70B5040015
:100DF00009D0606A002540B125616561A56294F85B
:100E0000510040B10CE0012070BD6068B0F5827FF8
:100E1000F4D0E561F2E784F85050204600F044F841
:100E2000022084F851002068016821F0400101602F
:100E3000A088218900F4827001F404410843A1894B
:100E400001F400610843217C01F002010843217D87
:100E500001F001010843218B01F400710843217F57
:100E600001F03801084394F8201001F08001084394
:100E7000218D01F40051084321680860A069042114
:100E800001EA104094F8241001F010010843216891
:100E900048602068C16921F40061C1616565012075
:100EA00084F85100002070BD10B586B004461421AE
:100EB0006846FFF743FA14492068884221D1134855
:100EC0000021026842F480120260006800F4801081
:100ED00005900E481438026842F020020260006853
:100EE00000F0200005904FF4607000900220CDE9E2
:100EF0000101032003900520049069460448FFF790
:100F00008BFA06B010BD000000500140443802408A
:100F1000001402402DE9F84F044690F850000027D5
:100F20000A9E1D4692468B464FF0010901280ED0BD
:100F3000012084F85000FFF78FFB804694F85100A1
:100F4000616801280CD0B1F5827F07D102E0022050
:100F5000BDE8F88FA16809B9042801D00227C2E0D2
:100F6000BBF1000F27D0BAF1000F24D01DB394F8C5
:100F70005100042802D0052084F85100002060654B
:100F8000C4F838A0E587A587C4F830B0E586A58603
:100F90002064606420680168490603D4016841F058
:100FA00040010160E068B0F5006F606805D0E8B30B
:100FB000012D46D07FE0012795E008B1012D39D100
:100FC000206B21680088C860206B801C2063E08E45
:100FD000401EE0862EE02068816889070FD5E18EEB
:100FE00069B1B9F1010F0AD1216B0988C160206B89
:100FF000801C2063E08E401EE0864FF000092068D0
:101000008168C9070CD0E18F51B1C068A16B08801D
:10101000A06B801CA063E08F401EE0874FF00109A9
:10102000FFF71AFBA0EB0800B04200E009E001D393
:10103000701C50D1E08E0028CDD1E08F0028CAD19D
:101040003FE0206B216800780873206B401C206310
:10105000E08E401EE0862EE02068816889070FD56B
:10106000E18E69B1B9F1010F0AD1216B09780173E1
:10107000206B401C2063E08E401EE0864FF000098C
:1010800020688168C9070CD0E18F51B1C068A16B9D
:101090000870A06B401CA063E08F401EE0874FF0FB
:1010A0000109FFF7D9FAA0EB0800B04202D3701C87
:1010B00001D010E07EB1E08E0028CDD1E08F002875
:1010C000CAD142463146204600F098FA28B101279D
:1010D0002020606507E0032705E0A06818B92068B4
:1010E000C16880680090012084F85100002084F8D5
:1010F000500038462CE77047704710B5040003D005
:1011000094F83D0010B107E0012010BD002084F8E4
:101110003C00204600F01EF8022084F83D00211D0E
:10112000206800F061FB012084F8460084F83E004E
:1011300084F83F0084F8400084F8410084F84200BD
:1011400084F8430084F8440084F8450084F83D00A6
:10115000002010BD7047000090F83D10012901D01B
:1011600001207047022180F83D100168CA6842F0F2
:101170000102CA6000681149884214D0B0F1804F62
:1011800011D00F4988420ED00E4988420BD00E492B
:10119000884208D00D49884205D00D49884202D0C6
:1011A0000C49884204D1816801F00701062903D067
:1011B000016841F00101016000207047000001401A
:1011C0000004004000080040000C00400004014002
:1011D0000040014000180040704770B504460068A8
:1011E00001694FF00005C943890715D4C168C94397
:1011F000890711D4E91E01610120207720688069E8
:101200008007204602D0FFF7E7FF04E000F098F8DF
:10121000204600F096F8257720680169C943490700
:1012200017D4C168C943490713D46FF004010161A1
:10123000022020772068806910F4407F204602D089
:10124000FFF7CAFF04E000F07BF8204600F079F8D1
:10125000257720680169C943090716D4C168C943C5
:10126000090712D46FF0080101610420207720687B
:10127000C0698007204602D0FFF7AEFF04E000F00F
:101280005FF8204600F05DF8257720680169C943C2
:10129000C90617D4C168C943C90613D46FF0100139
:1012A0000161082020772068C06910F4407F204643
:1012B00002D0FFF791FF04E000F042F8204600F072
:1012C00040F8257720680169C943C90708D1C1687A
:1012D000C943C90704D1891E0161204600F032F8D4
:1012E00020680169C943090609D4C168C9430906D0
:1012F00005D46FF0800101612046FFF7FCFE2068F5
:101300000169C943490609D4C168C943490605D4DE
:101310006FF040010161204600F01EF8206801696D
:10132000C94389060BD4C168C943890607D46FF045
:10133000200101612046BDE87040FFF7DDBE70BDB1
:101340007047704700680349884201D1FFF78AB9A6
:101350007047000000100040704770B5040004D0D2
:1013600094F83D00002510B106E0012070BD84F81E
:101370003C50204600F022F8242084F83D002068EC
:10138000C16821F40051C160204600F091FA206844
:10139000016921F4904101612068416921F02A012D
:1013A00041612068C16841F40051C160256420207A
:1013B00084F83D0084F83E00002070BD10B586B072
:1013C000044614216846FEF7B9FF14492068884294
:1013D00021D113480021026842F010020260006827
:1013E00000F0100005900E481438026842F0010227
:1013F0000260006800F0010005904FF4C0600090AA
:101400000220CDE9010103200390072004906946E2
:101410000448FFF701F806B010BD000000100140BD
:1014200044380240000002402DE9F843044690F899
:101430003D001F4616460D4620284CD1C5B1BEB111
:1014400094F83C00012846D0012084F83C004FF07D
:101450000008C4F84080212084F83D00FFF7FCF824
:10146000A6848146E684A068B0F5805F03D004E0DE
:101470000120BDE8F883206928B12E465FF0000501
:1014800084F83C800EE00026FAE78021204600F038
:1014900095FAA0B9AEB116F8010B21684860E08C4E
:1014A000401EE084E08C4B464FF00002009700287D
:1014B000EBD14FF04001204600F080FA30B103201C
:1014C000D7E735F8020BC0F30800E6E7202084F8E0
:1014D0003D000020CDE70220CBE7FEE710B5044A2F
:1014E0000021044802F0D6FC0349086010BD00004A
:1014F000705B00080D1700080000002030B587B0B1
:1015000014216846FEF71AFF1A480024016841F0CA
:1015100004010160016801F004010591016841F0D6
:1015200020010160016801F020010591016841F08E
:1015300080010160016801F080010591016841F0BE
:101540000101016000680C4D00F0010005900122CE
:1015500040212846FFF77AF8402000900120CDE98D
:1015600001040220039069462846FEF755FF07B0A4
:1015700030BD000030380240001402400F4810B562
:101580000D4901604FF48271416000218160C160AA
:101590004FF400720161C0E90512C161016241624C
:1015A00081620A21C162FFF721FC002803D0BDE857
:1015B0001040FEF72FBF10BD00500140A0000020DA
:1015C0000C4810B50A4901604FF4E1314160002137
:1015D00081600C22C160C0E904128161C161FFF722
:1015E000BCFE002803D0BDE81040FEF713BF10BDBD
:1015F00000100140F8000020FEE7FEE738B5044681
:101600001248134B0068B0FBF3F04FF47A73584361
:1016100000906068B0F5827F0DD10B4600920022E9
:101620008021204600F016F870B1606D40F0200077
:101630006065032038BD009830B1401E00902068DE
:101640008068C0430006F6D5002038BD1000002099
:1016500000366E012DE9F8431E4691468846044641
:10166000089DFEF7F9FF401B351AFEF7F5FF074608
:1016700025480068C0F3CB30684338E0701C37D091
:10168000FEF7EAFFC01BA84203D215B1009860B371
:101690002CE02068416821F0E00141606068B0F50D
:1016A000827F0BD1A068B0F5004F02D0B0F5806FFB
:1016B00004D12068016821F040010160A06AB0F502
:1016C000005F09D12068016821F4005101602068A1
:1016D000016841F400510160012084F851000020AC
:1016E00084F850000320BDE8F8830025401E0090D8
:1016F0002068816838EA010004D000214945BDD145
:101700000020F0E70121F9E710000020012002F09D
:1017100086FBFBE710B54FF0E020006904F06AF8A3
:10172000012803D0BDE8104003F098BD10BD0000B3
:1017300070B592B030216846FEF700FE14210CA867
:10174000FEF7FCFD1F480025016841F08051016053
:10175000006800F0805011901B48016841F440413E
:1017600001600068022400F44040119001200090C4
:10177000000401908001CDE906400F260896D8208C
:10178000CDE9090404200B906846FFF779F908B108
:1017900072B6FEE7FFF730F808B172B6FEE74FF415
:1017A000A050CDE90E504FF48050CDE90C6410905C
:1017B00005210CA8FFF758F8002801D072B6FEE703
:1017C00012B070BD4038024000700040024801680D
:1017D00041F470010160704788ED00E00148FFF7B7
:1017E000FCBC00003C010020F0B50268254C264DF1
:1017F000264E274F274B4FF0804CA04209D0604522
:1018000007D0A84205D0B04203D0B84201D09842D8
:1018100004D122F0700E4A6842EA0E02A0421BD0A8
:10182000604519D0A84217D0B04215D0B84213D0A5
:10183000984211D0184DA8420ED0184DA8420BD096
:10184000174DA84208D0174DA84205D0164DA84202
:1018500002D0164DA84203D122F44075CA682A432B
:101860004D6922F080022A4302608A68C2620A68D7
:101870008262A04201D0984201D10969016301212D
:101880004161F0BD0000014000040040000800403C
:10189000000C0040000401400040014000440140B1
:1018A0000048014000180040001C0040002000409B
:1018B00070B5044600680169E26821F440511143A3
:1018C00001612169A068E269084361691143084325
:1018D0002168CA6849F20C639A430243CA602068CF
:1018E0004169A26921F44071114341613149206885
:1018F000884202D03049884202D1FFF77FF801E0E8
:10190000FFF76CF8E2690023192164253226B2F54D
:10191000004F626828D0A0FB0101930F9200FEF7F0
:10192000C3FC0146B0FBF5F06FF01802504301EB29
:10193000800006EB0010B0FBF5F000F0F002B1FB08
:10194000F5F002EB0012B1FBF5F06FF0180358430D
:1019500001EB800006EB0010B0FBF5F000F00F008B
:1019600021681044886070BDA0FB010192185B41A2
:10197000FEF79AFC0146B0FBF5F00201B1FBF5F071
:101980006FF01803584301EB800006EBC000B0FB7A
:10199000F5F000F0F80002EB4002B1FBF5F058431F
:1019A00001EB800006EBC000B0FBF5F000F0070093
:1019B000D6E7000000100140001401402DE9F0417D
:1019C000984617460E460446069D27E0681C25D01B
:1019D0002DB1FEF741FEA0EB0800A8421ED92068F9
:1019E0000C3050E8001F21F4D07140E80012002AAA
:1019F000F5D12068143050E8001F21F0010140E8C3
:101A00000012002AF5D1202084F83D0084F83E0021
:101A1000002084F83C000320BDE8F08120680068C5
:101A200036EA000004D00020B842CFD00020F3E70F
:101A30000120F9E7FEE700000FB4054B10B503A93C
:101A4000044A029800F028F810BC5DF814FB00006E
:101A5000D13300089C0000200907090E002804DB90
:101A600000F1E02080F80014704700F00F0000F152
:101A7000E02080F8141D704702E008C8121F08C15A
:101A8000002AFAD170477047002001E001C1121FFF
:101A9000002AFBD1704700002DE9FF4F8BB09A461A
:101AA0000F460546002606E025280BD052460D9924
:101AB00090476D1C761C28780028F5D10FB0304671
:101AC000BDE8F08F0024A0460122604900E00443F5
:101AD00015F8013F203B02FA03F00842F7D12878BD
:101AE0002E2817D115F8010F44F004042A280ED02F
:101AF0006FF02F022878A0F1300109290AD808EBED
:101B0000880102EB410100EB01086D1CF2E757F878
:101B1000048B6D1C287869283ED006DC0028CDD0C7
:101B200063280BD0642804D136E0732810D07528C0
:101B30004BD052460D999047761C85E017F8040B60
:101B40008DF8000000208DF80100E946012003E037
:101B500057F8049B4FF0FF3061074FF0000401D4A9
:101B60000AE0641C44450DDA8442FADB19F80410DB
:101B70000029F6D106E0641C8442FCDB19F804104D
:101B80000029F8D1264404E019F8010B52460D99BA
:101B90009047641EF8D257E001CF4FF00A0B00289F
:101BA00002DA40422D2102E0210504D52B218DF8D7
:101BB0002410012103E0E10705D02021F7E70DF112
:101BC000200908910CE00021F9E701CF4FF00A0B42
:101BD000F9E75946FEF7D4FB01F1300209F8012D6F
:101BE0000028F6D1ADEB090000F1200B600701D40D
:101BF0004FF00108D84502DDA8EB0B0000E0002003
:101C00008046002406E009A85246005D0D999047E1
:101C1000641C761C08988442F5DB04E030205246B0
:101C20000D999047761CB8F10001A8F10108F5DC88
:101C300005E019F8010B52460D999047761CBBF14F
:101C40000001ABF1010BF4DC6D1C34E70928010045
:101C500070B5044600202071401E6063204602F0EB
:101C6000C5F808B1042070BD04F2362001F0B8FCBC
:101C7000054694F838004AF65526EB2803D0E928A3
:101C800001D0E8283FD1B54207D1082221A104F1B3
:101C90008A00FEF768FB0028E5D004F1430001F05C
:101CA0009FFC94F84510421E10422CD1B0F5007FE5
:101CB00029D3B0F5805F26D829B3481E014222D12E
:101CC00004F1460001F08CFCE8B194F84800401E95
:101CD000012818D804F1490001F082FC98B104F100
:101CE0004B0001F07DFC802806D204F1580001F081
:101CF0006CFCB0F5803F06D304F14E0001F070FC9F
:101D000008B1002070BDB54201D1022070BD032092
:101D100070BD0000464154333220202000000000F6
:101D2000C269891E921E8A4201D800207047026B48
:101D3000408900FB012070472DE9F05F82460C4688
:101D400001F11A0001F04CFC78BB2078012700F06B
:101D50003F00401E00EB8001DFF8589001EBC0050A
:101D600000264FF6FF7B00BF19F80600204401F063
:101D700037FC80466FB1FF2D17D801F0A7FA074650
:101D80003AF815006D1C01F0A1FA87420DD14746C3
:101D900001E0D84509D1761C0D2EE5D32078400608
:101DA00006D52FB13AF8150010B10020BDE8F09F1C
:101DB0000120FBE7AC5B00082DE9F04106680F004D
:101DC000804606D001F05EFB022809D20120BDE862
:101DD000F081746914B1F069A04207D8012405E0CC
:101DE000411CF4D0F1698142F1D83C46B069002829
:101DF000EDD0BC4216D1F069651CA84200D802257E
:101E00002946404601F03EFB0128E0D0411CDED0CF
:101E100038B17069022805D3F169814202D90446BC
:101E200000E0A5B92546F0696D1CA84202D802253C
:101E3000022C0AD32946404601F024FB38B1012880
:101E4000C5D0411CC3D0A542EDD10020BFE74FF063
:101E5000FF3422462946304602F02BFC30B95FB1F0
:101E60002A463946304602F024FC28B1012800D029
:101E7000012425462846AAE77561D6E90601891E90
:101E8000884201D8401EB061707940F00100707145
:101E9000F0E700002DE9F84F824600680D6888469B
:101EA0000769002415F8016B304600F0B5F988BBCE
:101EB00036B140F2B511304601F0D2F906003CD0FF
:101EC000701C3AD0B6F5803F03D3300C27F81400CD
:101ED000641C202E1AD32F2E0FD05C2E0DD0802EF6
:101EE00004D2314678A0FEF734FA98B9FF2C24D2F8
:101EF00027F81460641CD5E76D1C28782F28FBD0C8
:101F00005C28F9D00026C0B2202800D20426C8F8E8
:101F100000500AE011E000BF07EB440030F8020C6B
:101F2000202801D02E2802D1641E002CF4D10020DC
:101F300027F814000CB1002503E00620BDE8F88F57
:101F40006D1C37F815002028FAD015B938882E28CE
:101F500003D146F0030600E0641E2CB107EB4400F9
:101F600030F8020C2E28F7D120220B210AF1200094
:101F7000FEF7DDF94FF000084FF0080BCDF80080B8
:101F800037F8150005F101055FEA000924D0B9F121
:101F9000200F04D0B9F12E0F04D1A54202D046F093
:101FA0000306EDE70099594501D2A54219D1BBF1CD
:101FB0000B0F0FD0A54201D046F003060CD84FF00E
:101FC000080000904FEA886025464FF00B0B4FEA5F
:101FD0001068D5E746F003069AF82000E5284FD0B0
:101FE00051E04846B9F1800F0DD346F0020640F2A9
:101FF000B51101F04DF98146000604D5354909F0C7
:102000007F0011F800904846B9F1FF0F13D90099ED
:10201000ABF10100814204D346F00306CDF800B0D5
:10202000AEE700984FEA1922504480F8202000982B
:10203000401C00901BE0B9F1000F04D0014626A01F
:10204000FEF787F920B14FF05F0946F003060EE076
:10205000A9F14100192801D848F00208A9F161004E
:10206000192804D8413048F001081FFA80F9009A75
:102070000AEB020181F820900098401C00907FE755
:1020800005218AF82010BBF1080F03D14FEA8860C0
:102090004FEA1068C8F38100032803D06FEA0800F4
:1020A000800701D146F00206B00709D45FEAC87084
:1020B00001D046F010065FEA487001D546F00806E8
:1020C0008AF82B60002039E72A3A3C3E7C223F7F89
:1020D00000000000B95B00082B2C3B3D5B5D00005D
:1020E0002DE9FF4F81B09B466A460121019800F01F
:1020F000C0FA00287DD108264FF03F09F101009F6A
:1021000003E0700010F0FF0606D016FB09F0B7FBE5
:10211000F0F08842F5D806B9FF264FF480515846B2
:10212000FEF70CF90BF5DF754FF0000A4C465DE049
:10213000029951F82A80B8F1640F09D801D13846C4
:1021400005E04FF06400B7FBF0F000FB08F08046BC
:1021500004EB0800B84201D8A04201D2A7EB040862
:10216000B8F1000F44D0214605F1080002F030FC20
:10217000414605F10C0002F02BFC0398287119FB75
:1021800006F3B4FBF9F1B1FBF6F2B4FBF9FC06FB84
:102190001212B4FBF3F009FB1C416A70C02202EA80
:1021A000900C491C4CEA010C85F802C0E87004EB65
:1021B0000800441EB4FBF3F1B4FBF9FCBCFBF6F3DE
:1021C000B4FBF9F806FB13CC09FB184302EA9102B1
:1021D0005B1C85F805C01A43AA71E9710AF1010A6E
:1021E00010350446BAF1040F02D20CB1BC429FD3A1
:1021F00000E00DE04AF655210BF5FF7002F0F0FB10
:10220000012300225946019800F05AFA002800D014
:10221000012005B0BDE8F08F002800D000207047F5
:102220002DE9F0410C46054602F02EFCF8B9214696
:102230002846FFF775FD0646686305F138004FF440
:1022400080510446FEF77AF8A0460127002400E0FA
:102250003C446889A04207D9321968783B46414618
:1022600000F02EFA0028F3D06889A04202D00120A5
:10227000BDE8F0810020FBE72DE9F047054600218D
:10228000D0F8009000F0ACF9002852D1FF24471E8E
:10229000A046EF624846A96901F0A8FD060047D1B3
:1022A000E969087850B1CA7AE52802F03F02AA71BC
:1022B00036D0130704D50F2A32D105E0042637E0C3
:1022C0000F2A01D0E4B120E095F82B20520629D442
:1022D000420606D591F80D8000F0BF002A69044639
:1022E000EA62A04209D14A7B424506D1D9F81000E2
:1022F000FFF722FD08B1641E00E0FF24E4B211E004
:10230000084602F071FB404512D095F82B00C0073B
:1023100006D10B2205F12001E869FEF724F838B157
:10232000FF24EF620021284600F005F80600B1D036
:102330003046BDE8F0872DE9F04707690668203789
:10234000894604464FF00008B7F5001F39D2A0694E
:1023500030B1B189B7FBF1F201FB127119B13DE067
:102360000420BDE8F087401CA061616929B3B089F1
:102370007289B7FBF0F0521E10422FD1204601F0B7
:1023800081F80546012821D9681C14D0F069A842BB
:102390001ED8B9F1000F14D020466169FFF70CFD7B
:1023A000050011D0012D11D0681C04D029463046FB
:1023B000FFF736FF60B10120D3E73089B0EB571F3C
:1023C0000CD8C4F81880CBE70720CAE70220C8E77A
:1023D000294630466561FFF7A3FCA0612761B089FB
:1023E000B7FBF0F100FB117030443830E0610020A1
:1023F000B7E700002DE9F04F0446D0F8009090F8C0
:102400002B0087B010F0A00F03D0062007B0BDE866
:10241000F08F0025D9F8100000E06D1C30F8151081
:102420000029FAD104F1200004F1200A07C88DE840
:1024300007009DF80B00C10719D0402084F82B003D
:102440000126334669465046D9F8102000F0CCFFEB
:102450002046FFF711FF10B9761C642EF1D3642ECD
:102460000FD00428D2D19DF80B0084F82B009DF8E2
:102470000B00800707D50D200C35B5FBF0F56D1C62
:1024800002E00720C2E7012500212046276800F06E
:10249000A7F888B900263846A16901F0A7FC58B909
:1024A000E0690078E5280AD048B1002601212046DD
:1024B000FFF741FF0028EED0042812D012E0761C6E
:1024C0002846AE42F2D1451E049567D02169684284
:1024D00001EB4011204600F083F85FEA000803D0CA
:1024E00079E00720804676E0504602F07DFA4FF60C
:1024F000FF7B06904846A16901F078FC5FEA00087E
:1025000069D1D9F8100005900498D4F81C80C0B2A5
:102510000390069988F80D100F2188F80B10002100
:1025200088F80C1008F11A0002F05AFA0398DFF844
:10253000ACA0401E00EB800101EBC006002701E0CB
:102540005D4503D0059830F81650761C1AF8071030
:1025500001EB0800294602F043FA05B95D467F1CED
:102560000D2FEDD35D4505D0059830F8160008B164
:10257000039803E0039840F04000039088F80000BF
:10258000012089F8040000212046FFF7D4FE5FEA0D
:10259000000820D10498401E0490ABD14846A169A0
:1025A00001F024FC5FEA000815D154F81C0F20212B
:1025B000FDF7C4FE206861680160A1684160A189DF
:1025C0000181A17B8172E07B216800F01800087313
:1025D000012089F80400404618E70000AC5B0008C1
:1025E0002DE9F04104680F460646B1F5001F3CD2C4
:1025F000F8063AD13761B56825B92078032806D3A3
:10260000E56A25B16089A18900FB01F812E0208903
:10261000B0EB571F29D9E06A12E0304600F032FFD4
:102620000546401C1FD0022D1FD3E069A8421CD9CB
:10263000A7EB080747452946EFD22046FFF770FB76
:10264000C6E9055088B1A189B7FBF1F10844B06132
:10265000A089B7FBF0F100FB117020443830F06125
:102660000020BDE8F0810120FBE70220F9E700200F
:10267000704708B10420704761B1012904D00229D4
:1026800005D0032906D107E04FF4005001E04FF4D4
:1026900080501060002070471020FAE710B50C46FB
:1026A00008B1042010BD4FF6FF7000EA033011039B
:1026B0000246204602F0AEFC002010BD002070470C
:1026C00010B50C4608B1042010BD180311030246D2
:1026D000204602F02FFC002010BD38B5044600F063
:1026E000A5FC002807D16946204602F009FC002815
:1026F00001D10021216038BD2DE9FF4F97B09946E7
:1027000090460D4617A800F031FF002803DA0B2091
:102710001BB0BDE8F08FFE49002451F8201001B134
:102720000C70C0B20390FFF7A2FFC10701D00320D5
:10273000EEE7400701D50A20EAE705B9F54D4FF469
:1027400000466868109030B910AA03210398FFF77B
:1027500090FF109820B1B04202D8411E084201D02B
:102760000120109006AA02210398FFF782FF00289B
:1027700075D1BDF81800A0F50071B1F5606F6ED885
:10278000411E0842F4D1297801F00F0115916978B2
:102790004A1E012A00D901218B46A9684A1EB2426D
:1027A00005D24209B1FBF2F302FB13120AB14FF456
:1027B00000711691E968B1F1807F02D84A1E11427A
:1027C00000D00021B1FBF0F7B9FBF0F05FEA00099F
:1027D0000DD05FEA08050AD000201190059011AADB
:1027E00001210398FFF745FF0028C1D101E0112026
:1027F0008EE71598000706D411983F2803D93F218A
:102800003F38059111901198864680287ED3802FFD
:1028100000D980271598800715984FEAC07002D517
:1028200010B9032601E060B10226BB493C460EEB1D
:1028300001004FF6F57140F6F5720E90032E06D0AA
:1028400002E0132064E73C4644B337E03C4684B9D9
:10285000B04B002001244FEA5E48103B02E0A3E1A8
:102860006400401C33F810C0BCF1000F01D0C44517
:10287000F6D9BEFBF4F0BDF818304FF0200A03EB98
:10288000800C0CF1070CBCFBF3F3089300230C93B2
:1028900088423BD9A14B984238D82CE09D4B01246B
:1028A0004FEA1E384FF0000C1E3B02E064000CF1B2
:1028B000010C33F81C0008B14045F7D9BEFBF4F019
:1028C000904203D9042303EB400306E0012600EB0A
:1028D00040000323401C03EB5003BDF818004FF0E9
:1028E000010A03445B1EB3FBF0F30893169B5B01E4
:1028F000B3FBF0F00C9005980C9B50440D9000EB4E
:10290000030C089800FB0BC3109800E05CE003EB9D
:10291000000C401EACF1010C2CEA000CACEB0300E7
:10292000032E2BD0B0FBFBF80BFB180CBCF1000FF7
:1029300008D0DDF834C00AF1010A0CF1010C401E88
:10294000CDF834C0B0FBFBFC08986044CDF8200003
:10295000059803EB04131B1A734535D80898AEEBA2
:102960000A0C00FB1BC30C98181AB0FBF4F8032EDA
:102970000AD0022E0FD0012E24D027E0DDF834C07B
:10298000824460440D90E3E788451FD8E7B96708A3
:102990007FF45CAF18E088450FD92FB94020B0EB29
:1029A000440F01D367004EE71598800707D503262B
:1029B0004CE76700802FF6D906E0904506D8002F37
:1029C000F7D001E0904501D90E20A1E6BDF818101E
:1029D0002846FDF7B3FC52A0016829604168696090
:1029E000008928813020A872BDF8181005F10B006D
:1029F00001F0F6FF6C731FFA8AF105F10E0001F089
:102A0000EFFF85F810B0032E0FD0169881B205F1B4
:102A1000110001F0E5FF1199B1F5803F07D289B2AD
:102A200005F1130001F0DCFF05E00020EEE705F101
:102A3000200001F0CDFFF82068753F2105F1180056
:102A400001F0CEFFFF2105F11A0001F0C9FF05F1E9
:102A50001C00059901F0BCFF80270E994FF0290A50
:102A6000032E24D005F1270001F0B2FF089881B2AF
:102A700005F1160001F0B4FF85F8247085F826A052
:102A800013222AA105F12B00FDF73FFC4AF655273A
:102A900005F5FF703946824601F0A2FF0123294661
:102AA000059A0398FFF70CFE00287DD120E005F180
:102AB000430001F08DFF05F12400089901F088FF23
:102AC000022105F12C0001F083FF012105F1300006
:102AD00001F086FF062105F1320001F081FF85F843
:102AE000407085F842A0132215A105F14700CBE7FD
:102AF000032E56D1059A01232946921D0398FFF70C
:102B0000DFFDBDF818102846FDF718FC114923E039
:102B100098000020585C000800002154F5FFFF0FCA
:102B2000EBFE904D53444F53352E30004E4F204E08
:102B3000414D4520202020464154202020202000C7
:102B40004E4F204E414D45202020204641543332E7
:102B50002020200052526141284601F039FF51499E
:102B600005F5F27001F034FFA8F1010105F5F470EC
:102B700001F02EFF022105F5F67001F029FF39461C
:102B8000504601F02DFF059A01232946D21D0398D6
:102B9000FFF796FD059A01232946521C0398FFF77B
:102BA0008FFDBDF8180000E05AE009FB00F128464F
:102BB000FDF7C4FB0020DDF8348033E0032E15D090
:102BC000012E22D06FF007014FEA050001F000FF4F
:102BD000089F48464F4500D838468246034642463D
:102BE00029460398FFF76CFDD0BB10E06FF007019A
:102BF000284601F0EDFE4FF0FF31281D01F0E8FE00
:102C00006FF0704105F10800E0E72749DCE7BDF807
:102C100018102846FDF792FBD044B7EB0A07D8D12D
:102C20000998401C09905845C8D3032E00D00C9C2D
:102C300048464C4501D9074600E027463B464246F8
:102C400029460398FFF73CFD50B9B844E41BEFD187
:102C5000032E06D01198B0F5803F04D3062205E07C
:102C60001BE00C2202E0022E19D001221598000769
:102C70000BD411981390002014902B4613A903989D
:102C8000FFF72EFA00287FF453AD00221146039877
:102C9000FFF7EFFC00283FF44BAD012038E504229C
:102CA000E4E7000072724161F8FFFF0017B581B0E0
:102CB000144602980090684600F058FC002802DA9A
:102CC0000B2004B010BD0B4A002352F8201011B1A4
:102CD00042F820300B70019919B148700B7042F81E
:102CE00020102CB1002201A902A800F03FFFE8E764
:102CF0000020E6E7980000202DE9F743ADF5127DAE
:102D000005000BD002F03F06324680A993A800F0E0
:102D10002DFF04004FF0000805D0C9E009200DF593
:102D2000157DBDE8F08380988190C0F810D081A80F
:102D3000939900F00FFB040004D19DF82F020006C8
:102D400000D5062416F01C0F4CD04CB1042C03D136
:102D500081A8FFF74FFB044646F008065CB1A7E0E8
:102D60009DF80A0210F0110F01D00724A0E07007AF
:102D700001D508249CE0300743D5504F8898394648
:102D80000E3001F025FE88983946163001F020FEFD
:102D90008899809800F006FC889907462020C87220
:102DA00000228899809801F0FFFD889800211C304E
:102DB00001F00EFE80990120087107B3D1F834901C
:102DC0000022394681A801F08BFD040070D14946EC
:102DD000809801F00BF804008098A7F10107476183
:102DE0000BD065E0CCBB9DF80A02C10601D50424D6
:102DF0005EE0B10701D5C007B7D1300701D546F075
:102E000040068098416B296288996962889900F030
:102E1000C9FBA86088981C3000F0D7FBE860809858
:102E2000286080984FF48051C088A8802E7485F85F
:102E30001180C5F81C8005F128008146C5F8148072
:102E4000FDF77CFAB00635D5EE689EB36E618098CA
:102E5000A9684789808947430FE029E0284600F0A8
:102E600011FB0146012800D80224481C02D0F61BA1
:102E70001CB104E00124F61B01E0BE42EED8A961BA
:102E8000B4B980988289B6FBF2F302FB13628AB16F
:102E9000FEF746FF80B1809901238A89B6FBF2F2E2
:102EA0000244EA6148784946FFF7F8FB10B1012473
:102EB000C5F80080204632E70224F9E700002154DB
:102EC0002DE9F04F89B004460020884618609946E5
:102ED000154604A9204602F013F8002812D1607CA0
:102EE00000280FD1207CC0070BD06169E068012762
:102EF000401A4FF0020A04F1280B854200D905461A
:102F00008FE0072009B0BDE8F08F049960698A89D5
:102F1000B0FBF2F302FB1303002B63D1B0FBF2F61C
:102F20004989491E0E4009D118B32046A16900F015
:102F3000A9FA02281FD3411C4FD0A061A1690498AF
:102F4000FEF7EEFEB8B13044009004988189B5FBDD
:102F5000F1F1059141B3721841898A4201D9891B67
:102F6000059140784146059B009AFFF797FBA0BB6F
:102F700005E0A068DDE784F811A00220C2E7207C0C
:102F800000060CD5E1690098081A0599884206D216
:102F900004998A89594600FB0280FDF7B6F9049826
:102FA00086890598464332E0E26900998A4217D043
:102FB000217C090609D5407801235946FFF780FB9B
:102FC00058B9207C00F07F002074049801235946F2
:102FD0004078009AFFF762FB10B16774012091E717
:102FE0000098E061049861698089B1FBF0F200FB10
:102FF0001212861AAE4200D92E46B1FBF0F200FB47
:1030000012100119324640462831FDF77EF9D9F8F1
:103010000000AD1B8119C9F800106069B04430444C
:103020006061002D7FF471AF00206BE7F8B50446B6
:10303000694601F065FF00280ED1217C4A060BD5B8
:1030400008060ED50098E2690123407804F12801B2
:10305000FFF736FB08B10120F8BD207C00F07F00AF
:103060002074154E216A009800F0C0FE0028F3D1AC
:10307000656A2946E87A40F02000E872A268206874
:1030800001F092FC05F11C00E16801F0A1FC314661
:1030900005F1160001F09CFC002105F1120001F081
:1030A0009FFC00980121017101F0ACFC217C01F032
:1030B000BF012174F8BD0000000021542DE9FE4F2E
:1030C00088460021196099461646044602A901F077
:1030D00017FF002806D1607C002803D1207C8007E0
:1030E00002D40720BDE8FE8F6069012782194FF0E6
:1030F000020A04F1280B824200D2C643A6E0029ADB
:1031000061699089B1FBF0F300FB1313002B73D1BD
:10311000B1FBF0F55089401E054012D109B1A169FB
:1031200002E0A06828B900212046FEF745FE0028ED
:103130007DD001282FD0411C58D0A061A16801B9D1
:10314000A060207C00060BD50298E269012340783C
:103150005946FFF7B5FAC0BB207C00F07F00207411
:10316000A1690298FEF7DCFDA8B1284401900298FD
:103170008189B6FBF1F1009141B36A1841898A4215
:1031800001D9491B0091DDE9003240784146FFF743
:1031900097FAD0B903E084F811A00220A2E7E16910
:1031A0000198081A009988420AD202998A8900FB7C
:1031B00002815846FDF7A9F8207C00F07F002074BA
:1031C00002988589009845432FE00FE0FFE7E26908
:1031D00001998A420ED0E268616991420AD2407830
:1031E00001235946019AFFF759FA18B16774012073
:1031F00078E701E00198E061029861698089B1FB9C
:10320000F0F200FB1212851AB54200D93546B1FB27
:10321000F0F200FB121020442A4641462830FDF708
:1032200074F8207C40F080002074761B00E010E0F1
:10323000D9F80000A8444119C9F800106069284471
:103240006061E168884200D80846E060002E7FF4A3
:1032500056AF207C40F040002074002042E7000080
:1032600010B50022094B802801D202460BE0A1F5DF
:103270008074B53C07D1FF2805D803EB4000A0F5CA
:103280008050B0F8002F104610BD0000685C0008A8
:10329000024610B500200C4B802A01D290B210BD1E
:1032A000B2F5803FFBD2A1F58074B53C04D010BDCF
:1032B000401C80B2802803D233F810109142F7D11D
:1032C0008030C0B210BD0000685C000830B5B0F5B9
:1032D000803F20D280B2B0F5805F01D21B4900E070
:1032E0001B4931F8022B002A15D0904213D331F834
:1032F000024B230AE5B252FA84F4844221D9092B05
:1033000009D2DFE803F005090E10121416181A008E
:10331000801A31F8100030BD811A01F00101401A05
:103320000DE010380BE0203809E0303807E01A389B
:1033300005E0083003E0503801E0A0F5E35080B22A
:1033400030BD002BCDD101EB4501CAE7685D000817
:103350005A5F000873B504460568019801E0401CF7
:10336000019001782F29FAD05C29F8D00020A060C4
:1033700001980078202807D2802084F82B000021B3
:103380002046FFF72DF97CBD01A92046FEF782FDFE
:103390000028F8D12046FEF76FFF94F82B1028B1D3
:1033A0000428F0D14907EED405207CBD4907FCD4A0
:1033B000A079C006F8D5A9892069B0FBF1F201FB1C
:1033C000120041192846383100F0ECF8A060DBE724
:1033D00013B54FF6FF73012269460248FEF724F841
:1033E00000981CBDF80000202DE9FC410646086845
:1033F00030604868706008893081887AB072052B27
:1034000011D91F4C0CE00021921C1D46034665F3A8
:103410005F034008DD0300D56340491C1029F4D345
:1034200010880028EFD107244FEA0D0503F00F00A4
:103430001B093030392800D9C01D2855641E01D021
:10344000002BF3D17E2028550027A4F1010806E0C7
:10345000FEF7E2FE10B1474506D07F1C7F1CA74255
:1034600002D2F05D2028F3D1082C02D2285D641C22
:1034700000E02020F0557F1C082FF5D3BDE8FC812B
:10348000211001002DE9F04104680D4602290BD3FB
:10349000E069A84208D920784FF0FF36012807D00C
:1034A000022834D0032849D001263046BDE8F081F7
:1034B000A08905EB5507B7FBF0F0A16A014420464F
:1034C00000F094FC0028F0D1A089B7FBF0F100FBDC
:1034D00011717F1CB7FBF0F0214491F83880A16A8C
:1034E0000144204600F082FC0028DED1A089B7FB11
:1034F000F0F100FB1170204490F8381048EA0120E8
:10350000E90701D00609D0E7C0F30B06CDE7A08993
:10351000A16A4008B5FBF0F00144204600F066FCCB
:103520000028C2D1A1896800B0FBF1F201FB1200B2
:103530002044383000F054F80646B6E7A089A16A66
:103540008008B5FBF0F00144204600F04FFC002855
:10355000ABD1A189A800B0FBF1F201FB120020441D
:10356000383000F032F820F070469EE710B504467F
:103570004FF0FF3021680A0011D000BF11F8013B65
:10358000202B0DD33A2BF9D11378303B092B06D8D9
:10359000921C8A4203D1012B01DA1846216010BD2A
:1035A000002010BD70B506460D4601F11A0000F06E
:1035B00017F804463078032805D105F1140000F00F
:1035C0000FF844EA0044204670BDC178827842EA90
:1035D00001214278007842EA012140EA0120704747
:1035E0004178007840EA012070470000ADF5535D56
:1035F000FDF740F8FEF79CF8FDF780FFFDF7BEFFF2
:10360000FDF7DEFF42F278054FF480696D444946CC
:103610002846FCF793FE05F5A0563C2256A13046FD
:10362000FCF773FE634B0DF1040C0DF582540FCBC8
:103630008CE80F00012260A12046FFF737FB01460E
:103640000D280BD0002934D05CA0FEF7F5F968A056
:10365000FEF7F2F97448FEF7EFF9FEE773A0FEF704
:10366000EBF942F278424FF480536A4401A952A028
:10367000FFF742F8070007D07BA0FEF7DDF93946D7
:1036800082A0FEF7D9F9FEE784A0FEF7D5F9012262
:1036900049A10020FFF70AFB012247A12046FFF7BE
:1036A00005FB010003D089A0FEF7C6F904E091A054
:1036B00000E097A0FEF7C0F9A4A0FEF7BDF906ACA4
:1036C0000A22AFA12046FFF717FB0746B0A0FEF77E
:1036D000B3F90DF11408002F1ED0BCA0FEF7ACF911
:1036E000C4A0FEF7A9F90122A5A12046FFF704FB1B
:1036F00000282AD0CCA0FEF79FF92046FEF7EDFF68
:1037000001222DA10020FFF7D1FA00F095FBFDF773
:10371000E5FE00F0A3FBFEE7CB48FEF78DF943463C
:103720003A2231462046FFF7C9FC010006D0C7A067
:10373000FEF782F92046FEF7D0FFD1E7CCA005992D
:10374000FEF77AF93146D7A0F2E7E1A0FEF774F967
:1037500043464A4629462046FFF7B2FB010004D003
:10376000E2A000BFFEF768F9C7E7E9A00599FEF7F8
:1037700063F92946F2A0F5E777656C636F6D652004
:10378000746F2075736520596548756F20626F618D
:1037900072642C20746869732069732061206669E3
:1037A0006C652073797374656D20746573742E0D68
:1037B0000A000000605B0008303A0000EFBC81EFB7
:1037C000BC81E5A496E983A8466C617368E68C82A7
:1037D000E8BDBDE69687E4BBB6E7B3BBE7BB9FE5B4
:1037E000A4B1E8B4A5E38082282564290D0A00006D
:1037F000EFBC81EFBC81E58FAFE883BDE58E9FE52F
:103800009BA0EFBC9A53504920466C617368E588D1
:103810009DE5A78BE58C96E4B88DE68890E58A9FB8
:10382000E380825C720A000018600008E3808B4627
:103830004C415348E8BF98E6B2A1E69C89E69687DA
:10384000E4BBB6E7B3BBE7BB9FEFBC8CE58DB3E54C
:10385000B086E8BF9BE8A18CE6A0BCE5BC8FE58CF8
:10386000962E2E2E0D0A0000E3808AE3808AE6A0C1
:10387000BCE5BC8FE58C96E5A4B1E8B4A5E38082F5
:10388000E3808BE3808B5C720A00000065727263D8
:103890006F6465203D2025640D0A0000E3808B469F
:1038A0004C415348E5B7B2E68890E58A9FE6A0BC54
:1038B000E5BC8FE58C96E69687E4BBB6E7B3BBE73D
:1038C000BB9FE380825C720A00000000E6A0BCE5BA
:1038D000BC8FE58C96E5908EE68C82E8BDBDE5A4B4
:1038E000B1E8B4A52C20657272203D2025640D0A34
:1038F00000000000E6A0BCE5BC8FE58C96E5908E4C
:10390000E68C82E8BDBDE68890E58A9F0D0A00003E
:10391000E3808BE69687E4BBB6E7B3BBE7BB9FE6E5
:103920008C82E8BDBDE68890E58A9FEFBC8CE58F70
:10393000AFE4BBA5E8BF9BE8A18CE8AFBBE58699E7
:10394000E6B58BE8AF950D0A000000000D0A2A2AA3
:103950002A2A2A2A20E58DB3E5B086E8BF9BE8A194
:103960008CE69687E4BBB6E58699E585A5E6B58B3A
:10397000E8AF952E2E2E202A2A2A2A2A2A0D0A005E
:10398000303A2F74657374312E747874000000001F
:103990002F2A2A2A2A2A2A2A2A2A2A2A2A2A2A2A82
:1039A0002A2A2A2A2A2A2A2A2A2A2A2A2A2A2A2A77
:1039B0002A2A2A2A2A2A2A2A2A2A2A2A2A2A2A2A67
:1039C0002A2A2A2A2A2A2A2F0D0A0000EFBC81EF70
:1039D000BC81E68993E5BC802FE5889BE5BBBAE610
:1039E0009687E4BBB6E5A4B1E8B4A5E380825C7237
:1039F0000A0000000D0A2A2A2A2A2A2A20E58DB365
:103A0000E5B086E8BF9BE8A18CE69687E4BBB6E804
:103A1000AFBBE58F96E6B58BE8AF952E2E2E202A0C
:103A20002A2A2A2A2A0D0A00EFBC81EFBC81E689E6
:103A300093E5BC80E69687E4BBB6E5A4B1E8B4A5FF
:103A4000E380825C720A0000DC600008EFBC81EF5A
:103A5000BC81E69687E4BBB6E58699E585A5E5A435
:103A6000B1E8B4A5EFBC9A282564290A000000003B
:103A7000E3808BE69687E4BBB6E58699E585A5E607
:103A80008890E58A9FEFBC8CE58699E585A5E5AD34
:103A900097E88A82E695B0E68DAEEFBC9A25640A77
:103AA00000000000E3808BE59091E69687E4BBB6CA
:103AB000E58699E585A5E79A84E695B0E68DAEE4BE
:103AC000B8BAEFBC9A5C720A25730D0A00000000B8
:103AD000E3808BE68993E5BC80E69687E4BBB6E697
:103AE0008890E58A9FE380825C720A00EFBC81EFD8
:103AF000BC81E69687E4BBB6E8AFBBE58F96E5A44C
:103B0000B1E8B4A5EFBC9A282564290A000000009A
:103B1000E3808BE69687E4BBB6E8AFBBE58F96E61D
:103B20008890E58A9F2CE8AFBBE588B0E5AD97E8C3
:103B30008A82E695B0E68DAEEFBC9A25640D0A0048
:103B4000E3808BE8AFBBE58F96E5BE97E79A84E606
:103B50009687E4BBB6E695B0E68DAEE4B8BAEFBCA6
:103B60009A5C720A2573200D0A0000002DE9FF41BE
:103B7000002617460D460E60FFF7F8FC002803DA12
:103B80000B2004B0BDE8F081944951F8204094B175
:103B90002C60207807F0FE0520B16078FEF78EFDDE
:103BA000C1070AD02670B0466078FEF760FDC107F5
:103BB00008D00320E5E70C20E3E70DB1400704D46B
:103BC0000020DEE71DB1400701D50A20D9E7607863
:103BD00004F10C020221FEF74CFDE0BBA089A0F528
:103BE0000071B1F5606F37D8411E084234D1002111
:103BF0002046FEF72DF802281BD100264FEA0D05BE
:103C000004EB061000F5FF70FFF7DFFC45F8260017
:103C1000761C042EF4D3002655F8261029B1204630
:103C2000FEF716F8022801D203E00320761C042ECA
:103C3000F2D3042810D002287ED204F14300676B2F
:103C4000FFF7CEFCA189884276D104F14E00FFF740
:103C5000C7FC18B106E0FFE7012092E704F15C0021
:103C6000FFF7B3FC206294F84860E670012E01D0A3
:103C7000022E61D1464394F845006081F0B3411EA5
:103C8000084259D104F14900FFF7AAFC2081A1891B
:103C90004909B0FBF1F201FB120078BB04F14B00C3
:103CA000FFF79EFC050004D104F15800FFF78DFCDE
:103CB000054604F14600FFF793FC01003CD0A089C3
:103CC00023894009B3FBF0F08A190244954233D3AB
:103CD000A81A6589B0FBF5F080B1DFF804C10025B2
:103CE000604500D803254FF6F57C604500D80225D5
:103CF00040F6F57C604502D8012501E01CE0DDB10D
:103D0000801C3A4422633944E061C4E90971032DFF
:103D100014D08BB13144E162022D20D000F00101BA
:103D200000EB400001EB5000A189401E0844B0FBAD
:103D3000F1F0216A884214D90D2022E704F16200D3
:103D4000FFF74EFC0028F7D120890028F4D104F1B8
:103D50006400FFF73AFCE062E0698000E4E74000BD
:103D6000E2E74FF0FF30A061606180206071032DB9
:103D70002CD104F16800FFF733FC012826D1791C0F
:103D8000204600F033F808BB84F8058004F23620A2
:103D9000FFF726FCA0F52A41553917D104F1380068
:103DA000FFF713FC0F49884210D104F50770FFF7A5
:103DB0000CFC0D49884209D104F50870FFF705FC99
:103DC000A06104F50970FFF700FC606103482570ED
:103DD000001F0188491C0180E180F1E69800002065
:103DE000F5FFFF0F525261417272416170B5044696
:103DF000406B0D460026A8420FD0204600F044FE3E
:103E000006000AD1607801232A4604F13801FEF742
:103E100045FC08B1751E01266563304670BD10B5BE
:103E2000EFF3058111B16FF0050403E0002408B140
:103E300000F080FF204610BDEFF3058010B16FF059
:103E4000050070470448016811B14FF0FF3070471A
:103E500001210160002070476400002010B5EFF3DD
:103E6000058010B16FF0050010BD084801680129F8
:103E700002D04FF0FF3010BD054A002182F8141D1A
:103E80000221016000F0BEFF002010BD6400002090
:103E90000BE000E02DE9FF414FEA01034FF0000580
:103EA000EFF30581039549BB40B380271821002417
:103EB0004AB3166806B1344696691EB13146761E7D
:103EC000382E02D21679F60703D0002004B0BDE8E0
:103ED000F081566906B1B708D2F808C0BCF1000FEE
:103EE0000DD0D5685C2D18D312693AB136B18DE882
:103EF00006103A46214601F052FC03900DE0D668C8
:103F00005EB912694AB903AACDE90012BAB22146D4
:103F100001F018FC012800D003950398D6E70000B3
:103F20002DE9F041134C0F460546E6682068001D58
:103F300000F0CDFD681C07D137B12168BDE8F04124
:103F40000D48091D00F012BE20683544B542456099
:103F5000216805D2A06BBDE8F041091D00F0EEBD5F
:103F6000606B091D00F0EAFDA06A854200D2A562DF
:103F7000BDE8F08114000020740600202DE9F04116
:103F8000054600F0FFFD2D4CA068401CA060206895
:103F90002B4F10B1606930B32BE02560A068012879
:103FA00027D1002606EB860007EB800000F0B8FD65
:103FB000761C382EF6D3234800F0B2FD2148143089
:103FC00000F0AEFD1F48283000F0AAFD1D483C302F
:103FD00000F0A6FD1B48503000F0A2FD19486063B8
:103FE0001430A06305E02068E96AC06A884200D8FE
:103FF0002560606A401C60626864E86A21698842E2
:1040000000D9206100EB800007EB8000291D00F043
:10401000ADFD00F0D7FD606900280CD02068E96A8A
:10402000C06A884207D208494FF080500860BFF349
:104030004F8FBFF36F8FBDE8F081000014000020A8
:10404000C40100202406002004ED00E038B500F093
:1040500099FD104C2068C8B90F4800F061FD0E486A
:10406000143000F05DFD0C48E060143020610A4B14
:104070000020F03B009003F1500210210A2001F0D3
:1040800003F9206010B105A100F01EFEBDE8384024
:1040900000F098BD5000002078070020546D725148
:1040A0000000000030B4026C0B46002A0BD0C1683F
:1040B0001144C1608468A14201D30168C16030BC71
:1040C0001846FCF722B930BC70472DE9F041856BEA
:1040D000174604460026026C82B1C7B1E068FCF7BF
:1040E00014F9E168206C091AE1602268914202D259
:1040F000A168081AE060022F16D017E02068A8B95E
:10410000A06801F0EFFB06460020A0600EE06068AA
:10411000FCF7FBF8216C606808446060A168884285
:1041200004D32068606001E005B16D1E6D1CA563BD
:104130003046BDE8F08110B5044690F8590058B1FA
:1041400001280CD002280FD0502080F31188BFF333
:104150004F8FBFF36F8FFEE7206B00F047FD2046C7
:10416000BDE8104000F042BD10BD000010484FF403
:104170007051420706D0C01D0D4920F00700411ABA
:10418000C1F570510B4A00230144C2E9000308390C
:10419000183A21F0070111604B600B600B1AC0E95F
:1041A000001393604FF0004053605061704700006F
:1041B000580E002080000020144E154CA6F29C479B
:1041C0004FF08058DFF84C9012E000BF00F0DAFCAE
:1041D000F068C568281D00F07AFCA068401EA06049
:1041E0006068401E606000F0EDFC2846FFF7A3FF0A
:1041F00060680028EAD138680128F9D9C9F8008038
:10420000BFF34F8FBFF36F8FF2E70000600600200F
:104210001400002004ED00E070B51D46049C51B16F
:10422000C4F80020C4E90F010121204601F060F824
:1042300084F84C5070BD2460F4E700002DE9F05F75
:104240008846DDE90B941546834691009A460A9EFE
:10425000A522206BFCF76BF86FF00301206B01EBDC
:104260008501084420F00707780707D0502080F325
:104270001188BFF34F8FBFF36F8FFEE70025B8F1B2
:10428000000F0FD05FF00000221818F8001082F81D
:10429000341018F8001011B1401C1028F4D384F821
:1042A000435001E084F83450382E00D33726E662BC
:1042B000C4E91365201D00F03EFC04F1180000F075
:1042C0003AFC2461C6F138006462A061656584F837
:1042D000585052465946384600F0ECFA2060B9F181
:1042E000000F01D0C9F80040BDE8F09F30B511497A
:1042F00000E011460A688242FBD34B685C18844296
:1043000003D1406818444860084643681C1894422A
:1043100009D1084C183C2468A24209D052681A44BA
:1043200042600A6812680260814200D0086030BDB5
:104330000460F9E78000002070B5002441600B4D57
:104340000061914206D8D11A8269914206D2011DBC
:10435000286907E09A4203D2994201D3012403E07D
:10436000011DE86800F0EAFB204670BD5000002007
:1043700010B5044600F006FCA06B28B15FF0000405
:1043800000F020FC204610BD0124F9E730B589B0CB
:104390003C4D6EE00498002806DADDE90601059A36
:1043A00090470498002864DB069C606910B1201DCA
:1043B00000F08DFB03A800F0D7F8024604980A2805
:1043C00057D2DFE800F00505052D334A05052D33EA
:1043D00094F8280040F0010084F828000599A069AD
:1043E000059B01442046FFF7A7FF68B3216A2046DA
:1043F000884794F8280040073BD500200090059896
:10440000A169002342181946204601F075FBD8B96E
:10441000502080F31188BFF34F8FBFF36F8FFEE7FB
:1044200014F8280F20F00100207022E094F82800F2
:1044300040F0010084F828000598A06128B1811897
:1044400013462046FFF778FF13E0502080F31188D1
:10445000BFF34F8FBFF36F8FFEE794F828008107FB
:1044600003D4204600F0C2FB03E020F0010084F8F2
:104470002800002204A9286801F08EF8002889D1BC
:1044800009B030BD500000202DE9FC410F46054623
:1044900000F0FCFC01A800F067F80446019818B190
:1044A00001F098FABDE8FC81254EAFB13069006893
:1044B000D0B30027291B3A46306800F019FC01F000
:1044C00089FA0028EED11F494FF080500860BFF3F1
:1044D0004F8FBFF36F8FE5E7A542EBD801F07AFA73
:1044E000F0682746C068C468201D00F0F0FA94F810
:1044F0002800410719D5A0692B4641193A462046A4
:10450000FFF71AFFA8B100200346014600902A4693
:10451000204601F0F1FA60B9502080F31188BFF312
:104520004F8FBFF36F8FFEE707E020F0010084F8A4
:104530002800216A20468847B4E70127BAE700002F
:104540005000002004ED00E00648416B096829B1E5
:10455000416BC968C9684968816270474FF0FF3193
:10456000FAE700001400002070B5054601F050F98C
:10457000064E0446B068844203D200F009F80120D8
:1045800000E0002028602046B46070BD500000208C
:10459000F8B5194D20E0C068C4680668201D00F019
:1045A00096FA216A2046884794F82800400713D5D8
:1045B000A0693044B04206D924616060211DE868DA
:1045C00000F0BCFA08E000200346014600903246A5
:1045D000204601F091FA38B1E86801680029DAD183
:1045E0002969C5E90310F8BD502080F31188BFF395
:1045F0004F8FBFF36F8FFEE75000002008484068E0
:10460000401C4FF0500080F3118804D0BFF34F8F4F
:10461000BFF36F8FFEE7BFF34F8FBFF36F8FFEE7E0
:1046200088000020074CE068016841B1C0680021A3
:10463000D0F80000FFF728FFFFF7A8FEF3E70121FD
:104640000020F7E7500000202DE9F041044600F07B
:1046500099FA94F9455004F1240609E0606A48B1DA
:10466000304601F07FF908B100F092FB6D1E6DB28B
:10467000002DF3DC4FF0FF3684F8456000F0A2FA1D
:1046800000F080FA94F9445004F1100709E0206921
:1046900048B1384601F066F908B100F079FB6D1EAB
:1046A0006DB2002DF3DC84F84460BDE8F04100F009
:1046B00089BA2DE9F047022617460D46044602291D
:1046C0007DD3E069A8427AD920784FF0010901280A
:1046D00004D0022840D003287AD154E0A18905EB08
:1046E0005508B8FBF1F0A16A01442046FFF77EFBB4
:1046F00006006DD1A189B8FBF1F201FB12802044C4
:10470000383008F10108E90704D00178FAB262F301
:104710001F1100E03946017084F80490A189B8FBAC
:10472000F1F0A16A01442046FFF760FB06004FD17B
:10473000A189B8FBF1F201FB128020443830E9076F
:1047400002D0C7F3071105E00178C7F3032201F097
:10475000F0011143017039E0A089A16A4008B5FB5E
:10476000F0F001442046FFF741FB060030D1A1895B
:104770006800B0FBF1F201FB12002044B9B23830FE
:1047800000F02EF922E0A089A16A8008B5FBF0F0C4
:1047900001442046FFF72AFB060019D1A089AD008D
:1047A000B5FBF0F100FB115020443830FEF70DFF4F
:1047B00067F31B000146A089B5FBF0F200E007E0BB
:1047C00000FB12502044383000F002F984F80490C5
:1047D0003046BDE8F08700002DE9F041054600278E
:1047E00000F054FB324E306808B9FFF7BFFC706927
:1047F00005424ED1C5B3083568070ED005F0070055
:10480000C0F108000544680707D0502080F31188E4
:10481000BFF34F8FBFF36F8FFEE72DB370688542F4
:1048200037D82348183001460C6801E020460C4672
:104830006168A94202D221680029F7D131688C420F
:1048400027D007682168016060680837411B10297C
:104850000FD96019420708D0502080F31188BFF3A8
:104860004F8FBFF36F8FFEE713E041606560FFF786
:104870003DFD61687068401A7060B268904200D275
:10488000B060706901430020C4E90001F068401C79
:10489000F06001F09FF8780707D0502080F311886E
:1048A000BFF34F8FBFF36F8FFEE73846BDE8F0814F
:1048B0006800002010B5031F4FF080741C601B1FA0
:1048C00021F001011960191F044B0B6014390A60B3
:1048D000091F6FF0020244380A6010BDFD45000850
:1048E0002DE9F041056813460E46074602292DD3EF
:1048F000E869B0422AD93BB14FF0FF321946284649
:10490000FFF7D7FE00281FD131463846FEF7BAFD23
:10491000040018D0012C19D0601C19D00022314697
:104920002846FFF7C6FE00280ED1D5E90610821EE4
:10493000914205D2491CA961697941F0010169716F
:104940002646B042E0D80020BDE8F0810220FBE717
:104950000120F9E701B582B04FF47A70009001238D
:1049600001AA02A90248FCF7D5FA9DF804000EBD81
:10497000A000002070B50D46044604E0FF20FFF7BC
:10498000E9FF04F8010B6D1EADB2F7D270BD70B532
:104990000D460646002404E0305DFFF7DBFF641C93
:1049A000A4B2AC42F8D370BD70B50C4606461546AD
:1049B00091B204F11A0000F013F83078032806D100
:1049C000290C04F11400BDE8704000F009B870BD76
:1049D0000170090A4170090A8170090AC1707047A3
:1049E0000170090A41707047014600200B224308FC
:1049F00003EBC01011F8013B521E1844C0B2F6D1AF
:104A00007047000070B5044600F03EF8050035D14F
:104A1000207803282BD16079012828D1010304F1E3
:104A200038000646FBF78AFC4AF6552104F2362088
:104A3000FFF7D6FF12493046FFF7CAFF114904F5C8
:104A40000770FFF7C5FF04F50870A169FFF7C0FF05
:104A500004F509706169FFF7BBFF626A0123521C0C
:104A6000626360783146FDF72BFE00206071002202
:104A700060781146FDF7FDFD00B10125284670BDA7
:104A8000525261417272416170B50446007900254D
:104A900048B104F13801607801230E46626BFDF7DE
:104AA0000FFE10B10125284670BD00202071616BFA
:104AB000A06A0A1A206A8242F5D2E278022AF2D16A
:104AC0000A18607801233146FDF7FAFDEBE7D0E9DB
:104AD000013201699A60D0E901235A604A68824232
:104AE00001D182684A60002202610868401E0860A5
:104AF00008687047034B036003F15C000860802086
:104B000010607047A0070020044B036003F15C00B5
:104B100008604FF48070106070470000FC090020AE
:104B200000F108014FF0FF32C0E90112C1600161DC
:104B300000210160704700210161704730B50B68AA
:104B40005A1C02D000F1080202E0026904E0224689
:104B5000546825689D42FAD953684B6099608A6011
:104B6000516008610168491C016030BD42684A60BB
:104B700093688B6093685960916008610168491C73
:104B800001607047502080F31188BFF34F8FBFF34F
:104B90006F8F0A494868401C486001280CD10848BA
:104BA000006810F0FF0F07D0502080F31188BFF38A
:104BB0004F8FBFF36F8FFEE7704700008800002023
:104BC00004ED00E00849486828B1401E486001D162
:104BD00080F311887047502080F31188BFF34F8F06
:104BE000BFF36F8FFEE700008800002070B500283B
:104BF0002AD0164DA0F1080460686969084207D1FF
:104C0000502080F31188BFF34F8FBFF36F8FFEE703
:104C100022683AB1502080F31188BFF34F8FBFF361
:104C20006F8FFEE78843606000F030F96068696864
:104C3000084468602046FFF759FB2869401C28613A
:104C4000BDE8704000F0C6BE70BD000068000020E6
:104C50004FF0E02000210161816105494FF47A7233
:104C60000968B1FBF2F1491E4161072101617047FA
:104C70001000002010B5FBF701FB114910280ED3DE
:104C800000F1E02090F8F0030A78904207D250201B
:104C900080F31188BFF34F8FBFF36F8FFEE7094892
:104CA0000068896800F4E060884207D9502080F3EA
:104CB0001188BFF34F8FBFF36F8FFEE710BD000069
:104CC000880000200CED00E010B5084B002200BF6A
:104CD00053F832401CB1521C082AF9D310BD43F8D6
:104CE000321003EBC201486010BD000084010020B7
:104CF00070B515460E460446FFF744FF94F944107C
:104D00000020491C01D184F8440094F94510491C45
:104D100001D184F84500FFF755FFA06B28B92A465A
:104D2000314604F1240000F051F82046BDE87040FF
:104D3000FFF78ABC10B5020014D00F48006B38B1E1
:104D4000502080F31188BFF34F8FBFF36F8FFEE7C2
:104D500000F09CF800211046FFF7E2F800F03AFE60
:104D6000002807D105494FF080500860BFF34F8FEE
:104D7000BFF36F8F10BD00001400002004ED00E0B1
:104D800002490A6A0260C968416070471400002045
:104D900001490120C86170471400002010B50C467D
:104DA00050B1094909681831FFF7C8FE2046BDE82F
:104DB00010400121FFF7B4B8502080F31188BFF3F1
:104DC0004F8FBFF36F8FFEE71400002070B51446BD
:104DD0000D4668B10A4909681831FFF7C7FE0CB1E2
:104DE0004FF0FF3521462846BDE87040FFF798B8E0
:104DF000502080F31188BFF34F8FBFF36F8FFEE712
:104E00001400002030B587B00024039405AA04A93B
:104E100003A80494FFF76EFEDDE903010094CDE9D9
:104E20000110002315A11748059A00F0B8FC164D93
:104E30000028E8621FD000F02FFE012809D0401C96
:104E400019D1502080F31188BFF34F8FBFF36F8FBC
:104E5000FEE7502080F31188BFF34F8FBFF36F8FB1
:104E60004FF0FF30A86201206861EC6007B0BDE838
:104E7000304000F079B907B030BD000049444C45DE
:104E800000000000B9410008140000200248016B36
:104E9000491C01637047000014000020164810B53B
:104EA000016B11B10121C16110BD0021C161016916
:104EB000124A01E0B9B1491E01EB810352F82330D7
:104EC000002BF7D001EB810302EB830202F108040F
:104ED00053685B685360A34201D15B685360DA6832
:104EE0000260016110BD502080F31188BFF34F8F25
:104EF000BFF36F8FFEE7000014000020C401002004
:104F000070B50E4604004FF009050CD0206850B172
:104F1000017841B1A188C288914204D14078FDF75F
:104F2000CDFBC00703D000203060284670BD0025AF
:104F30002068F9E72DE9F04FC1F30B0781B00E0BA4
:104F4000C7F58054ADF5805D154688468246A2427D
:104F500000D8ACB2E94631038B464FF48052484644
:104F600000F058F8002006E03A1819F80210FF295E
:104F700003D1401C80B2A042F6D3A04221D23046D9
:104F800000F070F800204B4606E000BF1AF8001051
:104F9000C219401C995480B2A042F7D359464FF42D
:104FA0008052484600F016F8A5420ED0A244A04414
:104FB0002D1B00274FF48054761CA542CBD8ACB2F1
:104FC000C9E7224641465046ECE701B00DF5805D49
:104FD000BDE8F08F2DE9F0410746C8B2C0F58074F6
:104FE0000E461546A24200D814464FF48078224659
:104FF0003146384600F08CF8A54208D0281B2744DB
:10500000264485B24446A542F1D82C46EFE7BDE8D8
:10501000F0810000F8B5054600200090080C8DF8DE
:105020000000080A8DF801000D4F16468DF8021099
:105030000324002240213846FBF708FB2046FFF7F7
:1050400089FC03216846FFF7A2FC31462846FFF79A
:1050500091FC012240213846FBF7F8FAF8BD000028
:105060000014024038B5002100910103080C8DF8AE
:105070000000080A8DF8010020248DF8021000F0CD
:1050800033F800F017F80A4D002240212846FBF7BC
:10509000DDFA2046FFF75EFC03216846FFF777FC48
:1050A000012240212846FBF7D1FA00F003F838BD71
:1050B0000014024070B50B4C05250022402120460B
:1050C000FBF7C4FA2846FFF745FCFF20FFF742FC38
:1050D0000546012240212046FBF7B8FAE807EBD14C
:1050E00070BD00000014024070B5084D0624002277
:1050F00040212846FBF7AAFA2046FFF72BFC28465A
:10510000BDE8704001224021FBF7A0BA0014024024
:10511000F8B5054600200090080C8DF80000080A3C
:105120008DF80100164602248DF80210FFF7DCFF0F
:105130000C4F002240213846FBF788FA2046FFF743
:1051400009FC03216846FFF722FC31462846FFF799
:105150001EFC012240213846FBF778FAFFF7AAFF30
:10516000F8BD0000001402401CB537480168374AFA
:10517000914207D1502080F31188BFF34F8FBFF3C6
:105180006F8FFEE700683149491E884207D15020E1
:1051900080F31188BFF34F8FBFF36F8FFEE72C4969
:1051A00008780190FF20087008788DF800009DF8BD
:1051B00000009DF8002000F0F000904207D0502041
:1051C00080F31188BFF34F8FBFF36F8FFEE79DF819
:1051D0000000204C00F0500020700720A06005E087
:1051E0009DF8002052008DF80020401E9DF8002000
:1051F0001206F5D4A060032807D0502080F3118850
:10520000BFF34F8FBFF36F8FFEE74FF44070A06086
:10521000019808700C482030016841F47001016069
:10522000016841F070410160FFF712FD00206060ED
:10523000FAF7ECFF0848016841F040410160FAF7D5
:10524000D1FF00201CBD000000ED00E071C20F4145
:1052500000E400E08800002034EF00E010B55020AA
:1052600080F31188BFF34F8FBFF36F8F00F0D6FA32
:1052700018B104494FF080500860002080F3118875
:1052800010BD000004ED00E038B5049D18B153B125
:10529000CAB181B120E0502080F31188BFF34F8F55
:1052A000BFF36F8FFEE7502080F31188BFF34F8F5D
:1052B000BFF36F8FFEE7502080F31188BFF34F8F4D
:1052C000BFF36F8FFEE739B1502080F31188BFF331
:1052D0004F8FBFF36F8FFEE750241C46012384F8E5
:1052E00046302B460094FEF797FF204638BD00005D
:1052F00070B50D46040025D0FFF744FCD4E90F201B
:10530000216802FB0011A1600021A1632168616096
:105310000A46D4E90F01401E00FB0121E16021464D
:105320004FF0FF3001F8440F487004F110008DB1C8
:10533000FFF7F6FB04F12400FFF7F2FBFFF742FC56
:10534000012070BD502080F31188BFF34F8FBFF351
:105350006F8FFEE721690029F0D000F003FB0028E1
:10536000ECD004494FF080500860BFF34F8FBFF37B
:105370006F8FE3E704ED00E02DE9FF4782B01D46A3
:105380008A464FF00008040003D0BAF1000F08D09D
:1053900011E0502080F31188BFF34F8FBFF36F8F60
:1053A000FEE7206C38B1502080F31188BFF34F8F97
:1053B000BFF36F8FFEE7022D0AD1E06B012807D003
:1053C000502080F31188BFF34F8FBFF36F8FFEE73C
:1053D00000F010FA3F4F4FF000094FF0805648B9E7
:1053E000049838B1502080F31188BFF34F8FBFF37A
:1053F0006F8FFEE7FFF7C6FBA06BE16B884207D318
:10540000022D05D00498D0B1B8F1000F1AD01EE0DB
:105410002A4651462046FEF758FE616A19B104F14A
:10542000240000F09FFA20B13E60BFF34F8FBFF31E
:105430006F8FFFF7C7FB012006B0BDE8F087FFF7CD
:10544000C1FB22E06846FFF79BFC4FF00108FFF725
:10545000B9FBFFF71BFDFFF795FB94F94400401CD7
:1054600001D184F8449094F94500401C01D184F89E
:105470004590FFF7A7FB04A9684600F029F930B171
:105480002046FFF7E1F800F0A5FA0020D4E7FFF787
:1054900079FBA06BE16B884213D1FFF793FB04F11A
:1054A00010000499FFF77AFC2046FFF7CDF800F0D2
:1054B00091FA00289ED13E60BFF34F8FBFF36F8FEC
:1054C00098E7FFF77FFB2046FFF7BEF800F082FA6F
:1054D00090E7000004ED00E02DE9F0471F469046FC
:1054E0008946040003D0B9F1000F08D011E0502024
:1054F00080F31188BFF34F8FBFF36F8FFEE7206CEF
:1055000038B1502080F31188BFF34F8FBFF36F8FF6
:10551000FEE7022F0AD1E06B012807D0502080F36C
:105520001188BFF34F8FBFF36F8FFEE7FFF7A2FB2A
:105530005020EFF3118680F31188BFF34F8FBFF334
:105540006F8FA06BE16B884206D3022F04D000203E
:1055500086F31188BDE8F08794F94550A06B3A4670
:1055600049462046FEF7B1FD681C04D06D1C84F846
:1055700045500120ECE7606A0028FAD004F12400CD
:1055800000F0F0F90028F4D0B8F1000FF1D00121BB
:10559000C8F80010EDE700002DE9F747002683B0BA
:1055A0008A46040003D0BAF1000F08D011E0502061
:1055B00080F31188BFF34F8FBFF36F8FFEE7206C2E
:1055C00038B1502080F31188BFF34F8FBFF36F8F36
:1055D000FEE700F00FF9DFF8F4804FF000094FF01C
:1055E000805748B9059838B1502080F31188BFF32F
:1055F0004F8FBFF36F8FFEE7FFF7C4FAA56BC5B1FE
:1056000051462046FEF74EFD6D1EA563206950B140
:1056100004F1100000F0A6F928B1C8F80070BFF33B
:105620004F8FBFF36F8FFFF7CDFA012006B0BDE8B3
:10563000F087059808B11EB106E0FFF7C3FA27E02E
:105640006846FFF79DFB0126FFF7BCFAFFF71EFC3B
:10565000FFF798FA94F94400401C01D184F8449073
:1056600094F94500401C01D184F84590FFF7AAFA4F
:1056700005A9684600F02CF8002820460AD0FEF75D
:10568000E3FF00F0A7F92046FEF772FE0028B3D032
:105690000020CBE7FEF76CFE90B104F124000599E1
:1056A000FFF77CFB2046FEF7CFFF00F093F90028C0
:1056B000A2D1C8F80070BFF34F8FBFF36F8F9BE785
:1056C0002046FEF7C1FF00F085F995E704ED00E004
:1056D0002DE9F0410C46050011D0C4B1FFF752FA94
:1056E000174BDA686E682068911B471C17D02F682B
:1056F0001B6A9F4219D0964217D8012410E050200F
:1057000080F31188BFF34F8FBFF36F8FFEE75020F8
:1057100080F31188BFF34F8FBFF36F8FFEE7002434
:10572000FFF750FA2046BDE8F081884205D9401ABB
:1057300020602846FFF724FBF1E700202060DCE72B
:10574000140000202DE9FF5F8346DDE90E879946AE
:1057500016468A469000FFF73FF805001CD05C20F3
:10576000FFF73AF8040014D00020256384F85900AC
:10577000CDE90240CDE900874B46324651465846B6
:10578000FEF75CFD2046FEF7F9FB012004B0BDE802
:10579000F09F2846FFF72AFA4FF0FF30F6E7F0B502
:1057A00085B0DDE90B640A9DA6B1DCB15C270097EA
:1057B0002663022684F85960002604AFCDE902462C
:1057C000CDE90057FEF73AFD2046FEF7D7FB0498D7
:1057D00005B0F0BD502080F31188BFF34F8FBFF3A9
:1057E0006F8FFEE7502080F31188BFF34F8FBFF318
:1057F0006F8FFEE70548416919B1006B18B10020B1
:1058000070470120704702207047000014000020FC
:105810000148C06870470000140000202DE9F041E5
:105820002E4C0027206B28B1A069401CA06138468F
:10583000BDE8F081E668761CE66013D1606B006815
:1058400038B1502080F31188BFF34F8FBFF36F8FB3
:10585000FEE7606BA16B6163A063206A401C20625D
:10586000FEF772FEA06ADFF87880864209D3606B8B
:105870000068A0B1606BC068C5686868864211D2D4
:10588000A0622068C06A00EB800158F8210001285E
:1058900000D90127E0690028C9D00127C7E74FF0E8
:1058A000FF30EDE7281DFFF712F9A86A18B105F1DE
:1058B0001800FFF70CF9E86A2169884200D92061D5
:1058C00000EB800108EB8100291DFFF74FF9E86A22
:1058D0002168C96A8842CAD30127C8E7140000209A
:1058E000C401002070B504004FF0000133D01B4DFF
:1058F0002868844207D0502080F31188BFF34F8F6F
:10590000BFF36F8FFEE7206D38B1401E2065E36C5A
:10591000E26A9A421FD040B11DE0502080F3118806
:10592000BFF34F8FBFF36F8FFEE7201DFFF7CFF858
:10593000E06CE062C0F13800A061E06A2969884249
:1059400000D92861064900EB800001EB8000211D91
:10595000FFF70CF90121084670BD0000140000207B
:10596000C401002070B5C068C46854B104F11800C7
:105970000646FFF7ACF8144D286B50B1314613487A
:1059800015E0502080F31188BFF34F8FBFF36F8F66
:10599000FEE7201DFFF79BF8E06A2969884200D9DD
:1059A00028610B4900EB800001EB8000211DFFF70F
:1059B000DDF8E06A2968C96A884202D90120E861F5
:1059C00070BD002070BD0000140000204C060020B7
:1059D000C40100202DE9F0472C4D00242746286BF8
:1059E00038B1FFF7CFF8286B401E2863286B40B111
:1059F00046E0502080F31188BFF34F8FBFF36F8FC5
:105A0000FEE7A968224E0120D1B3A6F59169804630
:105A10003068E0B1F068C46804F11800FFF757F887
:105A2000201DFFF754F8E06A2969884200D92861EF
:105A300000EB800109EB8100211DFFF797F8E06A78
:105A40002968C96A8842E3D3C5F81C80E0E70CB135
:105A5000FEF77AFDAC694CB14FEA0806FFF7DEFEAF
:105A600000B1EE61641EF9D10020A861E86938B187
:105A70000849012738070860BFF34F8FBFF36F8FC6
:105A8000FFF7A0F83846BDE8F087000014000020BA
:105A90004C06002004ED00E010B586B0FEF7D6FA03
:105AA000114C2068B8B100200390049005AA04A905
:105AB00003A8FFF729F8DDE9032102208DE807009C
:105AC00000230AA10B48059AFFF769FE606010B138
:105AD00006B0012010BD502080F31188BFF34F8F16
