:020000040800F2
:10000000585E00208502000807160008E714000863
:10001000051600081D040008411A00080000000031
:10002000000000000000000000000000C501000802
:100030001F0400080000000021020008211700082A
:100040009F0200089F0200089F0200089F0200080C
:100050009F0200089F0200089F0200089F020008FC
:100060009F0200089F0200089F0200089F020008EC
:100070009F0200089F0200089F0200089F020008DC
:100080009F0200089F0200089F0200089F020008CC
:100090009F0200089F0200089F0200089F020008BC
:1000A0009F0200089F0200089F0200089F020008AC
:1000B0009F0200089F0200089F0200089F0200089C
:1000C0009F0200089F0200089F0200089F0200088C
:1000D0009F0200089F0200089F0200089F0200087C
:1000E0009F0200089F0200089F0200089F0200086C
:1000F0009F0200089F0200089F0200089F0200085C
:100100009F0200089F0200089F0200089F0200084B
:100110009F0200089F020008E91700089F020008DC
:100120009F0200089F0200089F0200089F0200082B
:100130009F0200089F0200089F0200089F0200081B
:100140009F0200089F0200089F0200089F0200080B
:100150009F0200089F0200089F0200089F020008FB
:100160009F0200089F0200089F0200089F020008EB
:100170009F0200089F0200089F0200080000000084
:100180009F0200089F0200089F0200089F020008CB
:100190009F0200089F0200089F0200089F020008BB
:1001A0009F0200089F0200089F020008DFF810D09D
:1001B00000F022F90048004779270008AFF30080DB
:1001C000585E00202C4B19680868B0E8F04F80F3A7
:1001D0000988BFF36F8F4FF0000080F311887047DC
:1001E0000000000008480068006880F308884FF0AD
:1001F000000080F3148862B661B6BFF34F8FBFF37F
:100200006F8F00DF00BF00BF08ED00E0DFF80C00DB
:10021000016841F470010160704700BF88ED00E0A3
:10022000EFF30980BFF36F8F134B1A681EF0100FA6
:1002300008BF20ED108A20E9F04F106009B44FF09C
:10024000500080F31188BFF34F8FBFF36F8F03F01F
:100250009FFC4FF0000080F3118809BC1968086802
:10026000B0E8F04F1EF0100F08BFB0EC108A80F31A
:100270000988BFF36F8F704714000020EFF30580EB
:10028000704700000648804706480047FEE7FEE743
:10029000FEE7FEE7FEE7FEE7FEE7FEE7FEE7FEE736
:1002A000D9170008AD0100082DE9F05F05460020D0
:1002B00092469B4688460646814640241BE02846D7
:1002C00041464746224600F087F853465A46C01A30
:1002D000914110D311461846224600F06EF82D1AAF
:1002E00067EB01084F4622460120002100F065F827
:1002F00017EB00094E41201EA4F10104DFDC484643
:1003000031462A464346BDE8F09F40EA01039B0779
:1003100003D009E008C9121F08C0042AFAD203E07A
:1003200011F8013B00F8013B521EF9D27047D2B2DE
:1003300001E000F8012B491EFBD270470022F6E7CE
:1003400010B513460A4604461946FFF7F0FF20464B
:1003500010BDCAB2401E10F8011F8A4202D0002907
:10036000F9D100207047421C10F8011B0029FBD175
:10037000801A704730B504460020034600E05B1C3D
:10038000934203D2E05CCD5C401BF8D030BD30B569
:100390000B46014600202022012409E021FA02F543
:1003A0009D4205D303FA02F5491B04FA02F52844DD
:1003B000151EA2F10102F1DC30BD202A04DB203A37
:1003C00000FA02F1002070479140C2F1200320FAA8
:1003D00003F3194390407047202A04DB203A21FAA6
:1003E00002F00021704721FA02F3D040C2F120024E
:1003F0009140084319467047064C074D06E0E068F7
:1004000040F0010394E8070098471034AC42F6D35B
:10041000FFF7D0FE98480008B8480008FEE770478C
:1004200072B6FEE72DE9F84FDFF8F8A100220124AB
:1004300003254FF00F090AF1040BAAF1040E00BFC7
:100440000B6804FA02F63340B34270D10F7907F01B
:100450000307012F01D0022F16D187684FEA420807
:1004600005FA08FC27EA0C07D1F80CC00CFA08FCC6
:100470004CEA070CC0F808C04768B7430E79C6F3CA
:10048000001696403E4346600E79F643B6070AD002
:10049000C7684FEA420C05FA0CF6B7438E6806FAB5
:1004A0000CF63E43C6600E7906F00306022E10D10C
:1004B000D60800EB8608D8F8206057074FEAD76CBB
:1004C00009FA0CF7BE430F6907FA0CF73743C8F86F
:1004D000207006684FEA420C05FA0CF7BE430F790C
:1004E00007F0030707FA0CF7374307604E6816F466
:1004F000403F1CD04C4E376847F480473760366821
:1005000022F0030706F480460096484E07EB060CDF
:10051000DCF8086897073F0F09FA07F826EA08068B
:10052000DFF80C81404503D14FF0000841E072E054
:10053000DFF80081404502D14FF0010839E0DFF8D3
:10054000F880404502D14FF0020832E0DFF8EC803D
:10055000404502D14FF003082BE0DFF8E48040452E
:1005600002D14FF0040824E0DFF8D880404502D1E2
:100570004FF005081DE0DFF8D080404502D14FF074
:10058000060816E0DFF8C480404502D14FF00708A6
:100590000FE0DFF8BC80404502D14FF0080808E0CA
:1005A000DFF8B080404502D14FF0090801E04FF07C
:1005B0000A0808FA07F848EA0608CCF80888DAF8C2
:1005C00000605746D1F804C09E435FEACC2C00D5AA
:1005D0001E433E60DBF800605F46D1F804C09E43D6
:1005E0005FEA8C2C00D51E433E60DEF80060774643
:1005F000D1F804C09E435FEA8C3C00D51E433E60A8
:10060000084F083F3E68D1F804C09E435FEACC3CE7
:1006100000D51E433E60521C102AFFF411AFBDE806
:10062000F88F0000083C014044380240003001408F
:10063000000002400004024000080240000C02409A
:10064000001002400014024000180240001C02404A
:1006500000200240002402400AB181617047090471
:10066000FBE700000148806870470000040000209C
:1006700002488168027811448160704704000020BC
:100680000B4810B5016841F400710160016841F444
:1006900080610160016841F480710160032000F015
:1006A0009FF80F2000F006F800F050F8002010BD71
:1006B000003C024030B505461F4887B00024016861
:1006C00041F010010160006806A900F010000090E0
:1006D00001A800F069F90498A8B100F085F940007C
:1006E0001649174AB0FBF1F11648491E026040F264
:1006F000E732C0E90324C0E90114846100F003FD7E
:10070000040003D015E000F06FF9E9E70D4800F0B0
:1007100029FD04000DD1362000F034F8102D07D249
:1007200000222946362000F03BF80748056000E02B
:10073000012407B0204630BD4038024040420F003F
:10074000001000403C010020080000200C4882B04E
:10075000016841F480410160006800F4804000902D
:100760000748001F016841F08051016000680022C5
:1007700000F0805000900F21901E02B000F010B8E1
:1007800044380240002809DB00F01F02012191409B
:100790004009800000F1E020C0F80011704700001F
:1007A000F0B40E4B1B680C46C3F30223C3F10705DC
:1007B000042D00D90425191D072901D2002300E0CA
:1007C000DB1E012606FA05F1491E214099409E4094
:1007D000761E16403143F0BC01F044B90CED00E048
:1007E000064900F0070208684FF6FF03184040EA88
:1007F0000220034A10430860704700000CED00E03F
:100800000000FA052DE9F8431748016841F08051CE
:1008100001600068154F00F08050012600903E6492
:10082000FFF720FF05464FF47A78114C05E000BF32
:10083000FFF718FF401B40450DD86068C003F7D58F
:100840007E64FFF70FFF0546464607E0FFF70AFF05
:10085000401BB04202D90320BDE8F88360688003E2
:10086000F4D50020F8E700004038024000000E42B6
:10087000007000402DE9F0470E46050065D0DFF816
:100880001481D8F80000F7B200F00F00B04207D290
:1008900088F80070D8F8000000F00F00B04254D182
:1008A00028683D4C810712D5400703D5206840F4E5
:1008B000E05020602878000703D5206840F46040AD
:1008C00020602068A96820F0F000084320602878A4
:1008D000C0072DD0304968680839012812D0022895
:1008E00013D0032811D00968890700292DDA21685F
:1008F00021F0030101432160FFF7B4FE814641F27C
:10090000883A0EE009688903EFE709688901ECE796
:10091000FFF7A8FEA0EB0901514502D90320BDE86D
:10092000F0872068696800F00C00B0EB810FEFD110
:10093000D8F80010404601F00F01B14207D9077006
:10094000006800F00F00B04201D00120E7E72878EE
:10095000400705D52068E96820F4E050084320608E
:100960002878000706D52068296920F4604040EA0D
:10097000C100206000F058F82168084AC1F3031153
:10098000515CC8400649086006480068FFF792FEBF
:100990000020C4E7003C02400838024074480008C8
:1009A00010000020080000200F2202600C4A13688B
:1009B00003F003034360136803F0F00383601368DC
:1009C00003F4E053C36012684FF4E05303EAD20229
:1009D00002610448006800F00F00086070470000E2
:1009E00008380240003C0240044805490068096894
:1009F000044AC1F38221515CC840704710000020B6
:100A0000083802408448000804480549006809681D
:100A1000044AC1F34231515CC840704710000020C5
:100A20000838024084480008154810B5006810F0E6
:100A30000C02144813D01449042A0FD0082A0ED1EE
:100A40000F4C241F2268236802F03F025B0207D587
:100A50002068C0F38810A0FB010106E0084610BD25
:100A60002168C1F38811A1FB00010023FFF71CFCE2
:100A70002168C1F30141491C4900B0FBF1F010BDF0
:100A8000083802400024F40040787D012DE9F84F39
:100A900004006ED02078DFF84C93C007A9F104055C
:100AA0004AD009F104000168C1F38101012908D08D
:100AB0000068C0F3810002280AD1D9F80000400282
:100AC00006D52868800337D560680028E1D033E078
:100AD0006068B0F5803F10D0B0F5A02F286810D026
:100AE00020F480302860286820F480202860606826
:100AF000A8B1FFF7B7FD06460DE0286840F4803046
:100B0000F4E740F480202860F7E700BFFFF7AAFD74
:100B1000801B642873D828688003F7D50CE0FFF7A2
:100B2000A1FD064605E000BFFFF79CFD801B642881
:100B3000F0D828688003F7D42078DFF8AC828007EB
:100B40004FF0000A3ED5A748001D016811F00C0FB8
:100B500008D00068C0F3810002280BD1D9F800004A
:100B6000400207D42868800716D5E068012800D124
:100B700012E033E1E068B8B10120C8F80000FFF7E7
:100B800071FD064605E000BFFFF76CFD801B0228E3
:100B9000C0D828688007F7D52868216920F0F800B8
:100BA00040EAC10028600DE0C8F800A0FFF75AFD38
:100BB000064604E0FFF756FD801B02281FD8286870
:100BC0008007F7D42078000722D5864F87486169CF
:100BD000703771B101210160FFF744FD064604E062
:100BE000FFF740FD801B022809D838688007F7D539
:100BF0000EE0C0F800A0FFF735FD064605E082E0F4
:100C0000FFF730FD801B02287DD838688007F7D4B5
:100C10002078400768D5DFF8CCB100270BF13C0BFA
:100C2000DBF80000C0000BD4DBF8001041F080516D
:100C3000CBF80010DBF80000012700F08050009096
:100C40006B4E3068C00510D4306840F4807030605E
:100C5000FFF708FD009005E0FFF704FD0099401A3A
:100C6000022850D83068C005F6D55E4EA0686C36B4
:100C700001280FD00528306810D020F00100306026
:100C8000306820F004003060A068B8B1FFF7EAFCDB
:100C900000900FE0306840F00100F4E740F00400FD
:100CA0003060F7E7FFF7DEFC0099411A41F2883027
:100CB000814266D830688007F4D50EE0FFF7D2FC99
:100CC000009007E0FFF7CEFC0099411A41F288300E
:100CD000814256D830688007F4D42FB1DBF8001079
:100CE00021F08051CBF80010A069C8B33D49091D1F
:100CF0000968C1F3810102294AD00228504607D071
:100D0000C8F8600000E03CE0FFF7ACFC04463BE0C4
:100D10004746C8F86000FFF7A5FC064605E000BF9F
:100D2000FFF7A0FC801B02282BD828688001F7D48D
:100D3000D4E907010843A16A2E4A490802EB0141A0
:100D4000626A41EA8211084394F82C1040EA01617A
:100D5000C9F8001001203866FFF784FC044606E05D
:100D60003EE000BFFFF77EFC001B022809D8286880
:100D70008001F7D534E000BFFFF774FC001B0228A8
:100D800002D90320BDE8F88F28688001F4D427E059
:100D90000128F7D0D9F80000E26900F480019142FF
:100DA0001CD1226A00F03F01914217D147F6C07171
:100DB000626A0140B1EB821F10D1A26A4FF0FF338B
:100DC00000F4403103EB5202B1EB024F06D194F82C
:100DD0002C1000F07060B0EB016F01D00120D1E762
:100DE0000020CFE70438024000004742800E47420F
:100DF000007000400000FFFF70B5040009D0606A79
:100E0000002540B125616561A56294F8510040B1AB
:100E10000CE0012070BD6068B0F5827FF4D0E56120
:100E2000F2E784F85050204600F044F8022084F89D
:100E300051002068016821F040010160A0882189EB
:100E400000F4827001F404410843A18901F40061B7
:100E50000843217C01F002010843217D01F00101DA
:100E60000843218B01F400710843217F01F0380110
:100E7000084394F8201001F080010843218D01F40B
:100E80000051084321680860A069042101EA10406C
:100E900094F8241001F0100108432168486020688C
:100EA000C16921F40061C1616565012084F85100C8
:100EB000002070BD10B586B0044614216846FFF7C7
:100EC0003DFA14492068884221D113480021026864
:100ED00042F480120260006800F4801005900E4811
:100EE0001438026842F020020260006800F020001E
:100EF00005904FF4607000900220CDE901010320BD
:100F000003900520049069460448FFF78BFA06B069
:100F100010BD00000050014044380240001402405F
:100F20002DE9F84F044690F8500000270A9E1D4610
:100F300092468B464FF0010901280ED0012084F81B
:100F40005000FFF78FFB804694F85100616801283C
:100F50000CD0B1F5827F07D102E00220BDE8F88F06
:100F6000A16809B9042801D00227C2E0BBF1000F33
:100F700027D0BAF1000F24D01DB394F851000428F3
:100F800002D0052084F8510000206065C4F838A024
:100F9000E587A587C4F830B0E586A586206460643F
:100FA00020680168490603D4016841F040010160EE
:100FB000E068B0F5006F606805D0E8B3012D46D059
:100FC0007FE0012795E008B1012D39D1206B216820
:100FD0000088C860206B801C2063E08E401EE08685
:100FE0002EE02068816889070FD5E18E69B1B9F1DB
:100FF000010F0AD1216B0988C160206B801C20631E
:10100000E08E401EE0864FF0000920688168C90725
:101010000CD0E18F51B1C068A16B0880A06B801C1F
:10102000A063E08F401EE0874FF00109FFF71AFB35
:10103000A0EB0800B04200E009E001D3701C50D1E1
:10104000E08E0028CDD1E08F0028CAD13FE0206B90
:10105000216800780873206B401C2063E08E401EDE
:10106000E0862EE02068816889070FD5E18E69B19E
:10107000B9F1010F0AD1216B09780173206B401C73
:101080002063E08E401EE0864FF0000920688168F2
:10109000C9070CD0E18F51B1C068A16B0870A06B7B
:1010A000401CA063E08F401EE0874FF00109FFF76E
:1010B000D9FAA0EB0800B04202D3701C01D010E0B6
:1010C0007EB1E08E0028CDD1E08F0028CAD1424603
:1010D0003146204600F098FA28B1012720206065AB
:1010E00007E0032705E0A06818B92068C168806898
:1010F0000090012084F85100002084F85000384608
:101100002CE77047704710B5040003D094F83D00F9
:1011100010B107E0012010BD002084F83C002046FB
:1011200000F01EF8022084F83D00211D206800F028
:1011300061FB012084F8460084F83E0084F83F00FB
:1011400084F8400084F8410084F8420084F84300A9
:1011500084F8440084F8450084F83D00002010BD68
:101160007047000090F83D10012901D00120704720
:10117000022180F83D100168CA6842F00102CA608D
:1011800000681149884214D0B0F1804F11D00F4946
:1011900088420ED00E4988420BD00E49884208D0B2
:1011A0000D49884205D00D49884202D00C49884239
:1011B00004D1816801F00701062903D0016841F0DC
:1011C0000101016000207047000001400004004060
:1011D00000080040000C00400004014000400140B5
:1011E00000180040704770B50446006801694FF070
:1011F0000005C943890715D4C168C943890711D4BB
:10120000E91E01610120207720688069800720465F
:1012100002D0FFF7E7FF04E000F098F8204600F066
:1012200096F8257720680169C943490717D4C16832
:10123000C943490713D46FF00401016102202077EC
:101240002068806910F4407F204602D0FFF7CAFF73
:1012500004E000F07BF8204600F079F8257720685C
:101260000169C943090716D4C168C943090712D4E3
:101270006FF008010161042020772068C0698007B1
:10128000204602D0FFF7AEFF04E000F05FF82046F2
:1012900000F05DF8257720680169C943C90617D4B5
:1012A000C168C943C90613D46FF010010161082059
:1012B00020772068C06910F4407F204602D0FFF7F5
:1012C00091FF04E000F042F8204600F040F8257756
:1012D00020680169C943C90708D1C168C943C90762
:1012E00004D1891E0161204600F032F820680169AE
:1012F000C943090609D4C168C943090605D46FF07A
:10130000800101612046FFF7FCFE20680169C943A6
:10131000490609D4C168C943490605D46FF04001A4
:101320000161204600F01EF820680169C943890662
:101330000BD4C168C943890607D46FF0200101614D
:101340002046BDE87040FFF7DDBE70BD70477047B6
:1013500000680349884201D1FFF78AB9704700004D
:1013600000100040704770B5040004D094F83D00B0
:10137000002510B106E0012070BD84F83C502046E5
:1013800000F022F8242084F83D002068C16821F490
:101390000051C160204600F091FA2068016921F4F3
:1013A000904101612068416921F02A014161206872
:1013B000C16841F40051C1602564202084F83D00DB
:1013C00084F83E00002070BD10B586B0044614219C
:1013D0006846FEF7B3FF14492068884221D11348BC
:1013E0000021026842F010020260006800F0100064
:1013F00005900E481438026842F00102026000684D
:1014000000F0010005904FF4C06000900220CDE98B
:101410000101032003900720049069460448FFF768
:1014200001F806B010BD0000001001404438024031
:10143000000002402DE9F843044690F83D001F46A5
:1014400016460D4620284CD1C5B1BEB194F83C00DB
:10145000012846D0012084F83C004FF00008C4F871
:101460004080212084F83D00FFF7FCF8A6848146E7
:10147000E684A068B0F5805F03D004E00120BDE8F9
:10148000F883206928B12E465FF0000584F83C807F
:101490000EE00026FAE78021204600F095FAA0B978
:1014A000AEB116F8010B21684860E08C401EE08464
:1014B000E08C4B464FF0000200970028EBD14FF034
:1014C0004001204600F080FA30B10320D7E735F81C
:1014D000020BC0F30800E6E7202084F83D0000205E
:1014E000CDE70220CBE7FEE710B5044A002104480F
:1014F00001F076FB0349086010BD00005048000869
:10150000191700080000002030B587B01421684684
:10151000FEF714FF1A480024016841F0040101603D
:10152000016801F004010591016841F020010160AA
:10153000016801F020010591016841F0800101601E
:10154000016801F080010591016841F0010101602D
:1015500000680C4D00F00100059001224021284652
:10156000FFF77AF8402000900120CDE90104022025
:10157000039069462846FEF755FF07B030BD0000CE
:1015800030380240001402400F4810B50D49016088
:101590004FF48271416000218160C1604FF400729C
:1015A0000161C0E90512C1610162416281620A21E3
:1015B000C162FFF721FC002803D0BDE81040FEF710
:1015C0002FBF10BD00500140A00000200C4810B5F6
:1015D0000A4901604FF4E1314160002181600C2231
:1015E000C160C0E904128161C161FFF7BCFE00283F
:1015F00003D0BDE81040FEF713BF10BD001001403E
:10160000F8000020FEE7FEE738B504461248134B09
:101610000068B0FBF3F04FF47A73584300906068B1
:10162000B0F5827F0DD10B4600920022802120462A
:1016300000F016F870B1606D40F020006065032086
:1016400038BD009830B1401E009020688068C043CB
:101650000006F6D5002038BD1000002000366E01CF
:101660002DE9F8431E46914688460446089DFEF73C
:10167000F9FF401B351AFEF7F5FF074625480068BD
:10168000C0F3CB30684338E0701C37D0FEF7EAFF78
:10169000C01BA84203D215B1009860B32CE02068AB
:1016A000416821F0E00141606068B0F5827F0BD1B4
:1016B000A068B0F5004F02D0B0F5806F04D120686B
:1016C000016821F040010160A06AB0F5005F09D116
:1016D0002068016821F4005101602068016841F42C
:1016E00000510160012084F85100002084F850006E
:1016F0000320BDE8F8830025401E00902068816823
:1017000038EA010004D000214945BDD10020F0E7AE
:101710000121F9E710000020012001F026FAFBE783
:1017200010B54FF0E020006902F0DCFE012803D084
:10173000BDE8104002F00ABC10BD000070B592B0C8
:1017400030216846FEF7FAFD14210CA8FEF7F6FDDD
:101750001F480025016841F080510160006800F0D9
:10176000805011901B48016841F4404101600068BD
:10177000022400F4404011900120009000040190E8
:101780008001CDE906400F260896D820CDE909044E
:1017900004200B906846FFF779F908B172B6FEE7AE
:1017A000FFF730F808B172B6FEE74FF4A050CDE96C
:1017B0000E504FF48050CDE90C64109005210CA818
:1017C000FFF758F8002801D072B6FEE712B070BDDE
:1017D00040380240007000400248016841F4700146
:1017E0000160704788ED00E00148FFF7FCBC000095
:1017F0003C010020F0B50268254C264D264E274FAF
:10180000274B4FF0804CA04209D0604507D0A8423A
:1018100005D0B04203D0B84201D0984204D122F0A2
:10182000700E4A6842EA0E02A0421BD0604519D0F1
:10183000A84217D0B04215D0B84213D0984211D068
:10184000184DA8420ED0184DA8420BD0174DA842F3
:1018500008D0174DA84205D0164DA84202D0164D0B
:10186000A84203D122F44075CA682A434D6922F088
:1018700080022A4302608A68C2620A688262A042C9
:1018800001D0984201D10969016301214161F0BD94
:10189000000001400004004000080040000C00402F
:1018A0000004014000400140004401400048014064
:1018B00000180040001C00400020004070B50446A5
:1018C00000680169E26821F4405111430161216916
:1018D000A068E26908436169114308432168CA6846
:1018E00049F20C639A430243CA6020684169A269C5
:1018F00021F440711143416131492068884202D08E
:101900003049884202D1FFF77FF801E0FFF76CF819
:10191000E2690023192164253226B2F5004F62687E
:1019200028D0A0FB0101930F9200FEF7BDFC0146F9
:10193000B0FBF5F06FF01802504301EB800006EBAE
:101940000010B0FBF5F000F0F002B1FBF5F002EB97
:101950000012B1FBF5F06FF01803584301EB800063
:1019600006EB0010B0FBF5F000F00F00216810440A
:10197000886070BDA0FB010192185B41FEF794FCEA
:101980000146B0FBF5F00201B1FBF5F06FF0180372
:10199000584301EB800006EBC000B0FBF5F000F00F
:1019A000F80002EB4002B1FBF5F0584301EB800078
:1019B00006EBC000B0FBF5F000F00700D6E7000032
:1019C00000100140001401402DE9F04198461746EF
:1019D0000E460446069D27E0681C25D02DB1FEF773
:1019E00041FEA0EB0800A8421ED920680C3050E848
:1019F000001F21F4D07140E80012002AF5D12068C0
:101A0000143050E8001F21F0010140E80012002AC4
:101A1000F5D1202084F83D0084F83E00002084F8B1
:101A20003C000320BDE8F0812068006836EA000031
:101A300004D00020B842CFD00020F3E70120F9E71E
:101A4000FEE700000FB4054B10B503A9044A029845
:101A500000F028F810BC5DF814FB000021260008F7
:101A60009C0000200907090E002804DB00F1E0209B
:101A700080F80014704700F00F0000F1E02080F8BB
:101A8000141D704702E008C8121F08C1002AFAD1CD
:101A900070477047002001E001C1121F002AFBD1EE
:101AA000704700002DE9FF4F89B09B460446002592
:101AB00006E025280BD05A460B999047641C6D1CF4
:101AC00020780028F5D10DB02846BDE8F08F00271A
:101AD000B8460122474900E0074314F8013F203B84
:101AE00002FA03F00842F7D120782E2819D114F811
:101AF000010F47F004072A280ED06FF02F0220783C
:101B0000A0F1300109290CD808EB880102EB410152
:101B100000EB0108641CF2E70A98641C50F8048B7F
:101B20000A9020780028CED0642808D0692806D0F2
:101B300075281ED05A460B9990476D1C58E00A999B
:101B40004FF00A0901C90A91002802DA40422D210A
:101B500002E0390504D52B218DF82010012103E086
:101B6000F90704D02021F7E78A4608AE0DE00021EE
:101B7000FAE70A994FF00A0901C90A91F7E74946BD
:101B8000FEF705FC303106F8011D0028F7D1ADEB5A
:101B9000060000F12009780701D44FF00108C8457C
:101BA00002DDA8EB090000E000208046002706E0E7
:101BB00008A85A46C05D0B9990476D1C7F1C57457D
:101BC000F6DB04E030205A460B9990476D1CB8F1C3
:101BD0000001A8F10108F5DC05E016F8010B5A46F2
:101BE0000B9990476D1CB9F10001A9F10109F4DCD2
:101BF000641C65E70928010070B5044600202071C7
:101C0000401EE062204600F097FF08B1042070BD3E
:101C100004F22E2000F0AAFD054694F830004AF6A2
:101C20005526EB2803D0E92801D0E8283FD1B5425A
:101C300007D1082221A104F18200FEF79BFB0028B6
:101C4000E5D004F13B0000F091FD94F83D10421EF8
:101C500010422CD14FF40072904228D3904226D8E3
:101C600029B3481E014222D104F13E0000F07EFD5E
:101C7000E8B194F84000401E012818D804F1410052
:101C800000F074FD98B104F1430000F06FFD80286E
:101C900006D204F1500000F05EFDB0F5803F06D39F
:101CA00004F1460000F062FD08B1002070BDB542AD
:101CB00001D1022070BD032070BD000046415433A5
:101CC00032202020000000004269891E921E8A42B4
:101CD00001D800207047826A408900FB01207047CC
:101CE0002DE9F04106680F00804606D000F0A4FC04
:101CF000022809D20120BDE8F081F46814B17069AE
:101D0000A04207D8012405E0411CF4D0716981424A
:101D1000F1D83C4630690028EDD0BC4216D170693C
:101D2000651CA84200D802252946404600F084FCE4
:101D30000128E0D0411CDED038B1F068022805D37C
:101D40007169814202D9044600E0A5B9254670694F
:101D50006D1CA84202D80225022C0AD3294640460F
:101D600000F06AFC38B10128C5D0411CC3D0A5429F
:101D7000EDD10020BFE74FF0FF3422462946304620
:101D800001F03DFB30B95FB12A463946304601F0DB
:101D900036FB28B1012800D0012425462846AAE7B1
:101DA000F560D6E90401891E884201D8401E3061E1
:101DB000707940F001007071F0E700002DE9F04704
:101DC000894620300F68064620220B21FEF7AFFA25
:101DD0000025A846082024E07C5D6D1C202C13D92A
:101DE0002F2C0CD05C2C0AD02E2C01D0D0451AD32D
:101DF000BAF10B0F36D02E2C34D10FE06D1C785D6C
:101E00002F28FBD05C28F9D07919C9F80010B8F157
:101E1000000F27D03078E52832D033E04FF00808A3
:101E20000B208246D8E7812C17D3FE2C15D8785D7D
:101E30006D1C402816D37E2803D9A0F180017E298D
:101E400010D8AAF1010188450CD206F8084008F123
:101E5000010108F102087054BEE721460FA0FEF709
:101E600078FA10B10620BDE8F087A4F161001928C6
:101E700001D8203CE4B206F8084008F10108ABE7BD
:101E800005203070202C02D9785D202801D804204C
:101E900000E00020F0720020E5E700002A2B2C3A39
:101EA0003B3C3D3E5B5D7C223F7F00002DE9F041E5
:101EB0000C46054601F062FCF8B921462846FFF7BA
:101EC00003FF0646E86205F130004FF40071044656
:101ED000FEF734FAA0460127002400E03C4468895C
:101EE000A04207D9321968783B46414600F009F90B
:101EF0000028F3D06889A04202D00120BDE8F0811B
:101F00000020FBE72DE9F04706690768203689467F
:101F100004464FF00008B6F5001F35D2A06910B195
:101F2000F10503D03DE00420BDE8F087401CA0612E
:101F3000616929B17889401E10EA562F05D030E03A
:101F40003889B0EB561F1FD92BE0204600F074FBF8
:101F5000054601281DD9681C14D07869A8421AD8F2
:101F6000B9F1000F10D020466169FFF7B9FE0500F6
:101F70000DD0012D0DD0681C04D029463846FFF73E
:101F800095FF40B10120CFE7C4F81880CBE70720C8
:101F9000CAE70220C8E7294638466561FFF794FE84
:101FA000A061C6F30800384430302661E0610020AB
:101FB000BAE770B504460021066800F030F80DE07D
:101FC0003046A16900F0B8FD50B9E0690078E52815
:101FD00009D040B101212046FFF794FF0028EFD03F
:101FE000042807D007E03046A16900F0A5FD0500F0
:101FF00003D012E0072005460FE02021E069FEF73C
:102000009DF9E169206A0860606A4860208D088156
:1020100094F82A00887201203071284670BD2DE99D
:10202000F04107680E460546B1F5001F36D2F006AE
:1020300034D12E61AC6824B93878032805D37C6A82
:102040001CB178894FEA402812E03889B0EB561F5E
:1020500024D9786A12E0284600F0EEFA0446401CC3
:102060001AD0022C1AD37869A04217D9A6EB080619
:1020700046452146EFD23846FFF726FEC5E9054022
:1020800060B100EB5620A861C6F308003844303038
:10209000E8610020BDE8F0810120FBE70220F9E7BC
:1020A0000020704730B939B1012907D0022908D082
:1020B000032909D004207047002070474FF40050D6
:1020C00003E04FF4805000E010201060F4E72DE9A9
:1020D000F0411C4615460E4658B10420BDE8F0817B
:1020E00029033A46304601F00BFE6D1C06F580567A
:1020F00001E04FF480572046641EF1D2EEE7002045
:1021000070472DE9F0411C4615460E4658B1042093
:10211000BDE8F08129033A46304601F085FD6D1C8B
:1021200006F5805601E04FF480572046641EF1D238
:10213000EEE738B5044600F00BF9002807D16946F0
:10214000204601F057FD002801D10021216038BD53
:1021500017B581B0144602980090684600F0CCFA9A
:10216000002802DA0B2004B010BD0B4A002352F8FD
:10217000201011B142F820300B70019919B148704C
:102180000B7042F820102CB1002201A902A800F027
:10219000ADFBE8E70020E6E7980000202DE9F743D3
:1021A0008CB005000BD002F03F06324669460DA800
:1021B00000F09CFB04004FF0000804D0BFE00920B1
:1021C0000FB0BDE8F0830098019001A80D9900F0D0
:1021D000C7F9040004D19DF82F00000600D506249D
:1021E00016F01C0F4CD04CB1042C03D101A8FFF702
:1021F000E0FE044646F008065CB1A0E09DF80A0047
:1022000010F0110F01D0072499E0700701D50824C0
:1022100095E0300743D54D4F089839460E3001F010
:102220005FFA08983946163001F05AFA0899009872
:1022300000F07EFA089907462020C872002208990B
:10224000009801F039FA089800211C3001F048FA92
:1022500000990120087107B3D1F82C90002239466B
:1022600001A801F0C5F9040069D14946009800F0C1
:1022700063FC04000098A7F10107C7600BD05EE083
:10228000C4BB9DF80A00C10601D5042457E0B1077C
:1022900001D5C007B7D1300701D546F040060098F8
:1022A000C16A296208996962089900F041FAA86038
:1022B00008981C3000F04FFAE860009828600098F9
:1022C0004FF40071C088A8802E7485F81180C5F87D
:1022D0001C8005F128008146C5F81480FEF72EF811
:1022E000B0062ED5EE6866B36E610098A968408985
:1022F00047020FE023E0284600F09EF9014601283E
:1023000000D80224481C02D0F61B1CB104E00124B2
:10231000F61B01E0BE42EED8A96184B9F00510D0E9
:102320000098FFF7D1FC70B100EB5622EA610098EB
:10233000012349464078FFF7CAFE10B10124C5F8D1
:10234000008020463CE70224F9E700000000215409
:10235000F8B50446694601F04DFC00280ED1217CF9
:102360004A060BD508060ED50098E269012340788D
:1023700004F12801FFF7C5FE08B10120F8BD207C5B
:1023800000F07F002074154E216A009800F0D4FB05
:102390000028F3D1656A2946E87A40F02000E87207
:1023A000A268206801F088F905F11C00E16801F0DD
:1023B00097F9314605F1160001F092F9002105F177
:1023C000120001F095F900980121017101F094F9D2
:1023D000217C01F0BF012174F8BD000000002154F0
:1023E0002DE9FE4F044600208846186099461546A0
:1023F00002A9204601F0FEFB002806D1607C0028DF
:1024000003D1207C800702D40720BDE8FE8F6069DD
:10241000012742194FF0020A04F1280B824200D230
:10242000C54394E06069C1056ED102994989491E8E
:1024300011EA502612D108B1A16902E0A06828B9BA
:1024400000212046FFF74CFC00287DD001282DD02C
:10245000411C54D0A061A16801B9A060207C000695
:102460000BD50298E269012340785946FFF749FEEF
:10247000A0BB207C00F07F002074A1690298FFF7C8
:1024800023FC98B130440190680A009027D032189C
:10249000029841898A4201D9891B0091DDE9003205
:1024A00040784146FFF72DFEC0B903E084F811A043
:1024B0000220AAE7E1690198081A009988420AD225
:1024C00008EB40214FF400725846FDF71EFF207CB8
:1024D00000F07F0020740098460227E00FE0E169D9
:1024E000019881420ED0E168606988420AD2029860
:1024F000012359464078019AFFF7E9FD10B167744E
:10250000012082E70198E061A08AC0F30800C0F5CD
:102510000076AE4200D92E4620443246414628304D
:10252000FDF7F3FE207C40F080002074D9F8000015
:10253000AD1B8119C9F800106069B0443044606176
:10254000E168884202D800E004E00846E060002D1F
:102550007FF468AF207C40F040002074002054E7F6
:102560002DE9F34105460668019801E0401C019001
:1025700001782F29FAD05C29F8D00020A8600198B2
:102580000078202808D2802085F82B0000212846DA
:10259000FFF745FDBDE8FC8101A92846FFF70EFCC9
:1025A0000028F7D1002128462F68FFF738FDE0B951
:1025B0003846A96900F0C0FA040015D1E86901782D
:1025C000E1B1C17A01F03F02AA71C17A090705D4CD
:1025D0000B2205F12001FDF7CDFE28B10021284690
:1025E000FFF790FC0400E3D0204695F82B1038B19B
:1025F0000428CFD14907CDD40520CBE70424F3E745
:102600004907C7D4A879C006F6D5288AC0F30800C0
:1026100081193046303100F08BF8A860BCE700002B
:1026200013B54FF6FF73012269460248FEF702FF19
:1026300000981CBDF80000202DE9F04104680D460B
:1026400002290BD36069A84208D920784FF0FF36E1
:10265000012807D002282BD0032839D00126304684
:10266000BDE8F081206A05EB550700EB57212046B5
:1026700000F062FA0028F2D1C7F3080020447F1C62
:1026800090F83080206A00EB5721204600F054FA81
:102690000028E4D1C7F30800204490F8301048EA3D
:1026A0000120E90701D00609D9E7C0F30B06D6E7F8
:1026B000206A00EB1521204600F03EFA0028CED11A
:1026C000E8B204EB4000303000F050F80646C6E7B0
:1026D000206A00EBD511204600F02EFA0028BED16A
:1026E00040F2FF1000EA85002044303000F033F85B
:1026F00020F07046B3E7000010B504464FF0FF30FD
:1027000021680A0011D000BF11F8013B212B0DD325
:102710003A2BF9D11378303B092B06D8921C8A4208
:1027200003D1012B01DA1846216010BD002010BD35
:1027300070B506460D4601F11A0000F017F8044680
:102740003078032805D105F1140000F00FF844EAB1
:102750000044204670BDC178827842EA0121427867
:10276000007842EA012140EA012070474178007870
:1027700040EA012070470000ADF58C6DFDF780FF49
:10278000FEF7DCFFFEF7C0FEFEF7FEFEFEF71EFFC3
:1027900022A0FFF757F900200246CDF8580424A4E0
:1027A00028A18AA8FFF7D4FC00282AD026A000BFC1
:1027B000FFF748F90A2228A16846FFF7EFFC002836
:1027C00021D028A0FFF73EF92046FDF7CCFD0246B8
:1027D0000DF58B6321466846FFF702FEA8B126A0DF
:1027E000FFF730F96846FFF7A4FCA0B126A000BFB0
:1027F000FFF728F900F0C6F9FEF776FE00F0D4F9ED
:10280000FEE725A0D4E728A0DCE72CA0DDF85814CB
:10281000FFF718F9E6E731A0EAE700000D0A68655E
:102820006C6C6F7720776F726C64210D0A2000004A
:102830004641544653207465737420737563636511
:1028400073732100303A00006D6F756E74206661FD
:10285000696C757265210A00303A746573742E7460
:10286000787400006F70656E2066696C6520666123
:10287000696C757265210A007772697465206661FA
:10288000696C757265210A00636C6F7365206661FF
:10289000696C757265210A006D6F756E74207375B1
:1028A0006363657373210A006F70656E2066696CDF
:1028B000652073756363657373210A0077726974A9
:1028C0006520737563636573732C77726974655FD4
:1028D00062797465733D25640A000000636C6F7350
:1028E000652073756363657373210A002DE9FF41E9
:1028F000002617460D460E60FFF7FEFE002803DA9D
:102900000B2004B0BDE8F081874951F8204094B114
:102910002C60207807F0FE0520B16078FFF7EFFB10
:10292000C1070AD02670B0466078FFF7B9FBC1072F
:1029300008D00320E5E70C20E3E70DB1400704D4FD
:102940000020DEE71DB1400701D50A20D9E70021AC
:102950002046FFF751F902281BD100254FEA0D064A
:1029600004EB051000F5FB70FFF7F5FE46F82500B7
:102970006D1C042DF4D3002556F8251029B12046EE
:10298000FFF73AF9022801D203E003206D1C042D61
:10299000F2D304280AD0022874D204F13B00E76A7B
:1029A000FFF7E4FEB0F5007F6CD101E00120A8E75D
:1029B00004F14600FFF7DAFE18B904F15400FFF7FE
:1029C000CAFEA06194F84060E670012E01D0022E8C
:1029D00058D1464394F83D006081B0B3411E08428F
:1029E00050D104F14100FFF7C1FE2081000749D119
:1029F00004F14300FFF7BAFE050004D104F15000D2
:102A0000FFF7A9FE054604F13E00FFF7AFFE010007
:102A100038D02389881900EB1312954232D3A81AB3
:102A20006589B0FBF5F080B1DFF800C10025604595
:102A300000D803254FF6F57C604500D8022540F606
:102A4000F57C604502D8012501E01BE0D5B1801C72
:102A50003A44A26239446061C4E90771032D13D07E
:102A600083B131446162022D1FD000F0010100EBFF
:102A7000400001EB500000BFA16900F2FF10B1EB74
:102A8000502F14D20D203CE704F15A00FFF76EFEE0
:102A90000028F7D120890028F4D104F15C00FFF769
:102AA0005AFE606260698000E6E74000E4E74FF0AC
:102AB000FF302061E06080206071032D2CD104F193
:102AC0006000FFF753FE012826D1791C204600F054
:102AD00033F808BB84F8058004F22E20FFF746FE89
:102AE000A0F52A41553917D104F13000FFF733FE24
:102AF0000F49884210D104F50570FFF72CFE0D49EF
:102B0000884209D104F50670FFF725FE206104F51F
:102B10000770FFF720FEE06003492570091F088851
:102B2000401C0880E0800BE798000020F5FFFF0FB5
:102B3000525261417272416170B50446C06A0D46DD
:102B40000026A8420FD0204600F018FE06000AD149
:102B5000607801232A4604F13001FFF7B8FA08B182
:102B6000751E0126E562304670BD10B5EFF3058194
:102B700011B16FF0050403E0002408B100F054FF28
:102B8000204610BDEFF3058010B16FF005007047CF
:102B90000448016811B14FF0FF3070470121016016
:102BA000002070476400002010B5EFF3058010B1DD
:102BB0006FF0050010BD08480168012902D04FF0F0
:102BC000FF3010BD054A002182F8141D022101606A
:102BD00000F092FF002010BD640000200BE000E038
:102BE0002DE9FF414FEA01034FF00005EFF30581A6
:102BF000039549BB40B38027182100244AB31668C7
:102C000006B1344696691EB13146761E382E02D280
:102C10001679F60703D0002004B0BDE8F0815669AC
:102C200006B1B708D2F808C0BCF1000F0DD0D568C6
:102C30005C2D18D312693AB136B18DE806103A46C8
:102C4000214601F024FC03900DE0D6685EB91269BC
:102C50004AB903AACDE90012BAB2214601F0EAFB53
:102C6000012800D003950398D6E700002DE9F04134
:102C7000134C0F460546E6682068001D00F0A1FDD4
:102C8000681C07D137B12168BDE8F0410D48091D26
:102C900000F0E6BD20683544B5424560216805D2A4
:102CA000A06BBDE8F041091D00F0C2BD606B091DBD
:102CB00000F0BEFDA06A854200D2A562BDE8F081A9
:102CC00014000020740600202DE9F041054600F0B4
:102CD000D3FD2D4CA068401CA06020682B4F10B184
:102CE000606930B32BE02560A068012827D1002659
:102CF00006EB860007EB800000F08CFD761C382E7A
:102D0000F6D3234800F086FD2148143000F082FD00
:102D10001F48283000F07EFD1D483C3000F07AFD51
:102D20001B48503000F076FD194860631430A063F2
:102D300005E02068E96AC06A884200D82560606AB8
:102D4000401C60626864E86A2169884200D9206199
:102D500000EB800007EB8000291D00F081FD00F0F2
:102D6000ABFD606900280CD02068E96AC06A88421F
:102D700007D208494FF080500860BFF34F8FBFF370
:102D80006F8FBDE8F081000014000020C401002016
:102D90002406002004ED00E038B500F06DFD104C75
:102DA0002068C8B90F4800F035FD0E48143000F017
:102DB00031FD0C48E060143020610A4B0020F03BEC
:102DC000009003F1500210210A2001F0D5F8206094
:102DD00010B105A100F0F2FDBDE8384000F06CBD77
:102DE0005000002078070020546D72510000000050
:102DF00030B4026C0B46002A0BD0C1681144C1608C
:102E00008468A14201D30168C16030BC1846FDF757
:102E10007CBA30BC70472DE9F041856B17460446FB
:102E20000026026C82B1C7B1E068FDF76EFAE16876
:102E3000206C091AE1602268914202D2A168081A46
:102E4000E060022F16D017E02068A8B9A06801F052
:102E5000C1FB06460020A0600EE06068FDF755FA51
:102E6000216C606808446060A168884204D32068CF
:102E7000606001E005B16D1E6D1CA5633046BDE8C4
:102E8000F08110B5044690F8590058B101280CD0D3
:102E900002280FD0502080F31188BFF34F8FBFF36B
:102EA0006F8FFEE7206B00F01BFD2046BDE8104051
:102EB00000F016BD10BD000010484FF470514207DD
:102EC00006D0C01D0D4920F00700411AC1F5705110
:102ED0000B4A00230144C2E900030839183A21F0E3
:102EE000070111604B600B600B1AC0E9001393607F
:102EF0004FF000405360506170470000580E0020B2
:102F000080000020144E154CA6F29C474FF08058CC
:102F1000DFF84C9012E000BF00F0AEFCF068C5682E
:102F2000281D00F04EFCA068401EA0606068401E96
:102F3000606000F0C1FC2846FFF7A3FF606800282E
:102F4000EAD138680128F9D9C9F80080BFF34F8F5A
:102F5000BFF36F8FF2E7000060060020140000202E
:102F600004ED00E070B51D46049C51B1C4F800208A
:102F7000C4E90F010121204601F032F884F84C50D9
:102F800070BD2460F4E700002DE9F05F8846DDE9BC
:102F90000B941546834691009A460A9EA522206B03
:102FA000FDF7C5F96FF00301206B01EB85010844C3
:102FB00020F00707780707D0502080F31188BFF36F
:102FC0004F8FBFF36F8FFEE70025B8F1000F0FD0D2
:102FD0005FF00000221818F8001082F8341018F87A
:102FE000001011B1401C1028F4D384F8435001E0C4
:102FF00084F83450382E00D33726E662C4E91365CE
:10300000201D00F012FC04F1180000F00EFC2461F9
:10301000C6F138006462A061656584F85850524674
:103020005946384600F0CEFA2060B9F1000F01D0C1
:10303000C9F80040BDE8F09F30B5114900E01146E5
:103040000A688242FBD34B685C18844203D1406813
:1030500018444860084643681C18944209D1084C3B
:10306000183C2468A24209D052681A4442600A6897
:1030700012680260814200D0086030BD0460F9E748
:103080008000002070B5002441600B4D006191422A
:1030900006D8D11A8269914206D2011D286907E03B
:1030A0009A4203D2994201D3012403E0011DE8684A
:1030B00000F0BEFB204670BD5000002010B5044655
:1030C00000F0DAFBA06B28B15FF0000400F0F4FB25
:1030D000204610BD0124F9E730B589B03C4D6EE0C3
:1030E0000498002806DADDE90601059A904704985D
:1030F000002864DB069C606910B1201D00F061FBB4
:1031000003A800F0D7F8024604980A2857D2DFE84F
:1031100000F00505052D334A05052D3394F82800E8
:1031200040F0010084F828000599A069059B01443E
:103130002046FFF7A7FF68B3216A2046884794F826
:10314000280040073BD5002000900598A169002386
:1031500042181946204601F047FBD8B9502080F3A9
:103160001188BFF34F8FBFF36F8FFEE714F8280F5E
:1031700020F00100207022E094F8280040F00100C7
:1031800084F828000598A06128B1811813462046CC
:10319000FFF778FF13E0502080F31188BFF34F8FC3
:1031A000BFF36F8FFEE794F82800810703D4204611
:1031B00000F096FB03E020F0010084F828000022D4
:1031C00004A9286801F060F8002889D109B030BD51
:1031D000500000202DE9FC410F46054600F0D0FCD0
:1031E00001A800F067F80446019818B101F06AFAE6
:1031F000BDE8FC81254EAFB130690068D0B300272F
:10320000291B3A46306800F0EDFB01F05BFA00281C
:10321000EED11F494FF080500860BFF34F8FBFF3CE
:103220006F8FE5E7A542EBD801F04CFAF06827462E
:10323000C068C468201D00F0C4FA94F82800410753
:1032400019D5A0692B4641193A462046FFF71AFFC7
:10325000A8B100200346014600902A46204601F00E
:10326000C3FA60B9502080F31188BFF34F8FBFF3CA
:103270006F8FFEE707E020F0010084F82800216A44
:1032800020468847B4E70127BAE700005000002035
:1032900004ED00E00648416B096829B1416BC9683B
:1032A000C9684968816270474FF0FF31FAE7000052
:1032B0001400002070B5054601F022F9064E0446C0
:1032C000B068844203D200F009F8012000E0002039
:1032D00028602046B46070BD50000020F8B5194D3C
:1032E00020E0C068C4680668201D00F06AFA216A00
:1032F0002046884794F82800400713D5A069304439
:10330000B04206D924616060211DE86800F090FA9F
:1033100008E000200346014600903246204601F0B6
:1033200063FA38B1E86801680029DAD12969C5E98A
:103330000310F8BD502080F31188BFF34F8FBFF307
:103340006F8FFEE75000002008484068401C4FF097
:10335000500080F3118804D0BFF34F8FBFF36F8FFD
:10336000FEE7BFF34F8FBFF36F8FFEE788000020AB
:10337000074CE068016841B1C0680021D0F8000046
:10338000FFF728FFFFF7A8FEF3E701210020F7E78A
:10339000500000202DE9F041044600F06DFA94F948
:1033A000455004F1240609E0606A48B1304601F056
:1033B00051F908B100F066FB6D1E6DB2002DF3DC13
:1033C0004FF0FF3684F8456000F076FA00F054FACA
:1033D00094F9445004F1100709E0206948B13846D7
:1033E00001F038F908B100F04DFB6D1E6DB2002DF3
:1033F000F3DC84F84460BDE8F04100F05DBA2DE9EB
:10340000F047022617460D460446022969D3606933
:10341000A84266D920784FF00109012804D002287B
:1034200036D003285DD143E0216A05EB550801EB56
:1034300058212046FFF780FB060052D1C8F3080050
:103440002044303008F10108E90704D00178FAB2CD
:1034500062F31F1100E03946017084F80490216A7C
:10346000204601EB5821FFF767FB060039D1C8F36E
:10347000080020443030E90702D0C7F3071105E007
:103480000178C7F3032201F0F0011143017026E037
:10349000206A00EB15212046FFF74EFB060020D1E5
:1034A000E8B204EB4000B9B2303000F021F916E088
:1034B000206A00EBD5112046FFF73EFB060010D135
:1034C00040F2FF1000EA8500204430300546FFF747
:1034D00042F967F31B000146284600F001F984F821
:1034E00004903046BDE8F0872DE9F04105460027FD
:1034F00000F046FB324E306808B9FFF7DDFC70691A
:1035000005424ED1C5B3083568070ED005F0070057
:10351000C0F108000544680707D0502080F31188E7
:10352000BFF34F8FBFF36F8FFEE72DB370688542F7
:1035300037D82348183001460C6801E020460C4675
:103540006168A94202D221680029F7D131688C4212
:1035500027D007682168016060680837411B10297F
:103560000FD96019420708D0502080F31188BFF3AB
:103570004F8FBFF36F8FFEE713E041606560FFF789
:103580005BFD61687068401A7060B268904200D25A
:10359000B060706901430020C4E90001F068401C7C
:1035A000F06001F08FF8780707D0502080F3118881
:1035B000BFF34F8FBFF36F8FFEE73846BDE8F08152
:1035C0006800002010B5031F4FF080741C601B1FA3
:1035D00021F001011960191F044B0B6014390A60B6
:1035E000091F6FF0020244380A6010BD4933000819
:1035F0002DE9F041056813460E46074602292DD3F2
:103600006869B0422AD93BB14FF0FF3219462846CB
:10361000FFF7F5FE00281FD131463846FFF70CF8BA
:10362000040018D0012C19D0601C19D0002231469A
:103630002846FFF7E4FE00280ED1D5E90410821ECB
:10364000914205D2491C2961697941F001016971F2
:103650002646B042E0D80020BDE8F0810220FBE71A
:103660000120F9E701B582B04FF47A700090012390
:1036700001AA02A90248FDF753FC9DF804000EBD03
:10368000A000002070B50D46044604E0FF20FFF7BF
:10369000E9FF04F8010B6D1EADB2F7D270BD70B535
:1036A0000D460646002404E0305DFFF7DBFF641C96
:1036B000A4B2AC42F8D370BD70B50C4606461546B0
:1036C00091B204F11A0000F013F83078032806D103
:1036D000290C04F11400BDE8704000F009B870BD79
:1036E0000170090A4170090A8170090AC1707047A6
:1036F0000170090A4170704770B5044600F03EF849
:10370000050035D1207803282BD16079012828D1F4
:10371000410204F130000646FCF710FE4AF655213E
:1037200004F22E20FFF7E4FF12493046FFF7D8FFDE
:10373000114904F50570FFF7D3FF04F50670216900
:10374000FFF7CEFF04F50770E168FFF7C9FFE269F4
:103750000123521CE26260783146FEF7D2FC002061
:103760006071002260781146FEF79CFC00B10125D3
:10377000284670BD525261417272416170B5044673
:103780000079002548B104F13001607801230E462C
:10379000E26AFEF7B6FC10B10125284670BD002094
:1037A0002071E16A206A0A1AA0698242F5D2E278A1
:1037B000022AF2D10A18607801233146FEF7A1FCF3
:1037C000EBE7D0E9013201699A60D0E901235A6040
:1037D0004A68824201D182684A6000220261086818
:1037E000401E086008687047034B036003F15C00EB
:1037F0000860802010607047A0070020044B036021
:1038000003F15C0008604FF48070106070470000A6
:10381000FC09002000F108014FF0FF32C0E901125D
:10382000C1600161002101607047002101617047A2
:1038300030B50B685A1C02D000F1080202E00269A0
:1038400004E02246546825689D42FAD953684B60CB
:1038500099608A60516008610168491C016030BD4F
:1038600042684A6093688B60936859609160086110
:103870000168491C01607047502080F31188BFF334
:103880004F8FBFF36F8F0A494868401C486001287A
:103890000CD10848006810F0FF0F07D0502080F3CB
:1038A0001188BFF34F8FBFF36F8FFEE770470000A3
:1038B0008800002004ED00E00849486828B1401E57
:1038C000486001D180F311887047502080F311883F
:1038D000BFF34F8FBFF36F8FFEE70000880000201B
:1038E00070B500282AD0164DA0F1080460686969F7
:1038F000084207D1502080F31188BFF34F8FBFF3E8
:103900006F8FFEE722683AB1502080F31188BFF331
:103910004F8FBFF36F8FFEE78843606000F030F990
:1039200060686968084468602046FFF785FB28697D
:10393000401C2861BDE8704000F0C4BE70BD0000AE
:10394000680000204FF0E0200021016181610549FD
:103950004FF47A720968B1FBF2F1491E4161072107
:10396000016170471000002010B5FCF787FC114979
:1039700010280ED300F1E02090F8F0030A7890426E
:1039800007D2502080F31188BFF34F8FBFF36F8FA2
:10399000FEE709480068896800F4E060884207D9BA
:1039A000502080F31188BFF34F8FBFF36F8FFEE776
:1039B00010BD0000880000200CED00E010B5084BA1
:1039C000002200BF53F832401CB1521C082AF9D320
:1039D00010BD43F8321003EBC201486010BD000077
:1039E0008401002070B515460E460446FFF744FFDB
:1039F00094F944100020491C01D184F8440094F942
:103A00004510491C01D184F84500FFF755FFA06B14
:103A100028B92A46314604F1240000F051F8204626
:103A2000BDE87040FFF7B6BC10B5020014D00F48D7
:103A3000006B38B1502080F31188BFF34F8FBFF374
:103A40006F8FFEE700F09CF800211046FFF70EF99B
:103A500000F038FE002807D105494FF0805008607B
:103A6000BFF34F8FBFF36F8F10BD00001400002015
:103A700004ED00E002490A6A0260C96841607047CB
:103A80001400002001490120C86170471400002083
:103A900010B50C4650B1094909681831FFF7C8FE46
:103AA0002046BDE810400121FFF7E0B8502080F328
:103AB0001188BFF34F8FBFF36F8FFEE71400002014
:103AC00070B514460D4668B10A4909681831FFF708
:103AD000C7FE0CB14FF0FF3521462846BDE87040C7
:103AE000FFF7C4B8502080F31188BFF34F8FBFF3A6
:103AF0006F8FFEE71400002030B587B000240394D8
:103B000005AA04A903A80494FFF76EFEDDE90301EA
:103B10000094CDE90110002315A11748059A00F083
:103B2000B6FC164D0028E8621FD000F02DFE0128DB
:103B300009D0401C19D1502080F31188BFF34F8F5A
:103B4000BFF36F8FFEE7502080F31188BFF34F8FD4
:103B5000BFF36F8F4FF0FF30A86201206861EC6007
:103B600007B0BDE8304000F077B907B030BD0000C5
:103B700049444C4500000000052F000814000020B7
:103B80000248016B491C01637047000014000020CB
:103B9000164810B5016B11B10121C16110BD0021A2
:103BA000C1610169124A01E0B9B1491E01EB81030B
:103BB00052F82330002BF7D001EB810302EB830294
:103BC00002F1080453685B685360A34201D15B684B
:103BD0005360DA680260016110BD502080F31188E3
:103BE000BFF34F8FBFF36F8FFEE70000140000207C
:103BF000C401002070B50E4604004FF009050CD03A
:103C0000206850B1017841B1A188C288914204D1A5
:103C10004078FEF774FAC00703D0002030602846D1
:103C200070BD00252068F9E72DE9F05FC1F30B06B0
:103C3000DFF888800F0BC6F580541546894682460A
:103C4000A24200D8ACB239038B464FF480524046B2
:103C500000F056F8002006E0321818F80210FF298C
:103C600003D1401C80B2A042F6D3A04220D23846F5
:103C700000F06EF8002006E01AF800208319401CBE
:103C800008F8032080B2A042F6D359464FF4805280
:103C90004FEA080000F014F8A5420DD0A244A14458
:103CA0002D1B00264FF480547F1CA542CBD8C9E7BA
:103CB000224649465046EDE7BDE8F09F584A0020AD
:103CC0002DE9F0410746C8B2C0F580740E4615468E
:103CD000A24200D814464FF4807822463146384636
:103CE00000F08CF8A54208D0281B2744264485B252
:103CF0004446A542F1D82C46EFE7BDE8F08100002C
:103D0000F8B5054600200090080C8DF80000080A60
:103D10008DF801000D4F16468DF802100324002285
:103D200040213846FCF798FC2046FFF79BFC032116
:103D30006846FFF7B4FC31462846FFF7A3FC012292
:103D400040213846FCF788FCF8BD00000014024012
:103D500038B5002100910103080C8DF80000080A15
:103D60008DF8010020248DF8021000F033F800F0E7
:103D700017F80A4D002240212846FCF76DFC20462A
:103D8000FFF770FC03216846FFF789FC0122402100
:103D90002846FCF761FC00F003F838BD001402402F
:103DA00070B50B4C0525002240212046FCF754FC41
:103DB0002846FFF757FCFF20FFF754FC0546012279
:103DC00040212046FCF748FCE807EBD170BD00001D
:103DD0000014024070B5084D0624002240212846F8
:103DE000FCF73AFC2046FFF73DFC2846BDE8704052
:103DF00001224021FCF730BC00140240F8B5054612
:103E000000200090080C8DF80000080A8DF80100D1
:103E1000164602248DF80210FFF7DCFFFFF7C0FF03
:103E20000C4F002240213846FCF716FC2046FFF7D5
:103E300019FC03216846FFF732FC31462846FFF79C
:103E40002EFC012240213846FCF706FCFFF7A8FFB4
:103E5000F8BD0000001402401CB537480168374A1D
:103E6000914207D1502080F31188BFF34F8FBFF3E9
:103E70006F8FFEE700683149491E884207D1502004
:103E800080F31188BFF34F8FBFF36F8FFEE72C498C
:103E900008780190FF20087008788DF800009DF8E0
:103EA00000009DF8002000F0F000904207D0502064
:103EB00080F31188BFF34F8FBFF36F8FFEE79DF83C
:103EC0000000204C00F0500020700720A06005E0AA
:103ED0009DF8002052008DF80020401E9DF8002023
:103EE0001206F5D4A060032807D0502080F3118873
:103EF000BFF34F8FBFF36F8FFEE74FF44070A060AA
:103F0000019808700C482030016841F4700101608C
:103F1000016841F070410160FFF714FD002060600E
:103F2000FCF774F90848016841F040410160FCF772
:103F300059F900201CBD000000ED00E071C20F41E6
:103F400000E400E08800002034EF00E010B55020CD
:103F500080F31188BFF34F8FBFF36F8F00F0D6FA55
:103F600018B104494FF080500860002080F3118898
:103F700010BD000004ED00E038B5049D18B153B148
:103F8000CAB181B120E0502080F31188BFF34F8F78
:103F9000BFF36F8FFEE7502080F31188BFF34F8F80
:103FA000BFF36F8FFEE7502080F31188BFF34F8F70
:103FB000BFF36F8FFEE739B1502080F31188BFF354
:103FC0004F8FBFF36F8FFEE750241C46012384F808
:103FD00046302B460094FEF7C5FF204638BD000052
:103FE00070B50D46040025D0FFF746FCD4E90F203C
:103FF000216802FB0011A1600021A16321686160BA
:104000000A46D4E90F01401E00FB0121E160214670
:104010004FF0FF3001F8440F487004F110008DB1EB
:10402000FFF7F8FB04F12400FFF7F4FBFFF744FC73
:10403000012070BD502080F31188BFF34F8FBFF374
:104040006F8FFEE721690029F0D000F003FB002804
:10405000ECD004494FF080500860BFF34F8FBFF39E
:104060006F8FE3E704ED00E02DE9FF4782B01D46C6
:104070008A464FF00008040003D0BAF1000F08D0C0
:1040800011E0502080F31188BFF34F8FBFF36F8F83
:10409000FEE7206C38B1502080F31188BFF34F8FBA
:1040A000BFF36F8FFEE7022D0AD1E06B012807D026
:1040B000502080F31188BFF34F8FBFF36F8FFEE75F
:1040C00000F010FA3F4F4FF000094FF0805648B90A
:1040D000049838B1502080F31188BFF34F8FBFF39D
:1040E0006F8FFEE7FFF7C8FBA06BE16B884207D339
:1040F000022D05D00498D0B1B8F1000F1AD01EE0FF
:104100002A4651462046FEF786FE616A19B104F13F
:10411000240000F09FFA20B13E60BFF34F8FBFF341
:104120006F8FFFF7C9FB012006B0BDE8F087FFF7EE
:10413000C3FB22E06846FFF79DFC4FF00108FFF744
:10414000BBFBFFF71DFDFFF797FB94F94400401CF4
:1041500001D184F8449094F94500401C01D184F8C1
:104160004590FFF7A9FB04A9684600F029F930B192
:104170002046FFF70FF900F0A5FA0020D4E7FFF77B
:104180007BFBA06BE16B884213D1FFF795FB04F139
:1041900010000499FFF77CFC2046FFF7FBF800F0C5
:1041A00091FA00289ED13E60BFF34F8FBFF36F8F0F
:1041B00098E7FFF781FB2046FFF7ECF800F082FA62
:1041C00090E7000004ED00E02DE9F0471F4690461F
:1041D0008946040003D0B9F1000F08D011E0502047
:1041E00080F31188BFF34F8FBFF36F8FFEE7206C12
:1041F00038B1502080F31188BFF34F8FBFF36F8F1A
:10420000FEE7022F0AD1E06B012807D0502080F38F
:104210001188BFF34F8FBFF36F8FFEE7FFF7A4FB4B
:104220005020EFF3118680F31188BFF34F8FBFF357
:104230006F8FA06BE16B884206D3022F04D0002061
:1042400086F31188BDE8F08794F94550A06B3A4693
:1042500049462046FEF7DFFD681C04D06D1C84F83B
:1042600045500120ECE7606A0028FAD004F12400F0
:1042700000F0F0F90028F4D0B8F1000FF1D00121DE
:10428000C8F80010EDE700002DE9F747002683B0DD
:104290008A46040003D0BAF1000F08D011E0502084
:1042A00080F31188BFF34F8FBFF36F8FFEE7206C51
:1042B00038B1502080F31188BFF34F8FBFF36F8F59
:1042C000FEE700F00FF9DFF8F4804FF000094FF03F
:1042D000805748B9059838B1502080F31188BFF352
:1042E0004F8FBFF36F8FFEE7FFF7C6FAA56BC5B11F
:1042F00051462046FEF77CFD6D1EA563206950B136
:1043000004F1100000F0A6F928B1C8F80070BFF35E
:104310004F8FBFF36F8FFFF7CFFA012006B0BDE8D4
:10432000F087059808B11EB106E0FFF7C5FA27E04F
:104330006846FFF79FFB0126FFF7BEFAFFF720FC58
:10434000FFF79AFA94F94400401C01D184F8449094
:1043500094F94500401C01D184F84590FFF7ACFA70
:1043600005A9684600F02CF8002820460AD0FFF77F
:1043700011F800F0A7F92046FEF7A0FE0028B3D000
:104380000020CBE7FEF79AFE90B104F124000599D6
:10439000FFF77EFB2046FEF7FDFF00F093F90028B3
:1043A000A2D1C8F80070BFF34F8FBFF36F8F9BE7A8
:1043B0002046FEF7EFFF00F085F995E704ED00E0F9
:1043C0002DE9F0410C46050011D0C4B1FFF754FAB5
:1043D000174BDA686E682068911B471C17D02F684E
:1043E0001B6A9F4219D0964217D8012410E0502032
:1043F00080F31188BFF34F8FBFF36F8FFEE750201C
:1044000080F31188BFF34F8FBFF36F8FFEE7002457
:10441000FFF752FA2046BDE8F081884205D9401ADC
:1044200020602846FFF726FBF1E700202060DCE74C
:10443000140000202DE9FF5F8346DDE90E879946D1
:1044400016468A469000FFF74FF805001CD05C2006
:10445000FFF74AF8040014D00020256384F85900BF
:10446000CDE90240CDE900874B46324651465846D9
:10447000FEF78AFD2046FEF727FC012004B0BDE8C8
:10448000F09F2846FFF72CFA4FF0FF30F6E7F0B523
:1044900085B0DDE90B640A9DA6B1DCB15C2700970D
:1044A0002663022684F85960002604AFCDE902464F
:1044B000CDE90057FEF768FD2046FEF705FC04989D
:1044C00005B0F0BD502080F31188BFF34F8FBFF3CC
:1044D0006F8FFEE7502080F31188BFF34F8FBFF33B
:1044E0006F8FFEE70548416919B1006B18B10020D4
:1044F0007047012070470220704700001400002020
:104500000148C06870470000140000202DE9F04108
:104510002E4C0027206B28B1A069401CA0613846B2
:10452000BDE8F081E668761CE66013D1606B006838
:1045300038B1502080F31188BFF34F8FBFF36F8FD6
:10454000FEE7606BA16B6163A063206A401C206280
:10455000FEF7A0FEA06ADFF87880864209D3606B80
:104560000068A0B1606BC068C5686868864211D2F7
:10457000A0622068C06A00EB800158F82100012881
:1045800000D90127E0690028C9D00127C7E74FF00B
:10459000FF30EDE7281DFFF714F9A86A18B105F1FF
:1045A0001800FFF70EF9E86A2169884200D92061F6
:1045B00000EB800108EB8100291DFFF751F9E86A43
:1045C0002168C96A8842CAD30127C8E714000020BD
:1045D000C401002070B504004FF0000133D01B4D22
:1045E0002868844207D0502080F31188BFF34F8F92
:1045F000BFF36F8FFEE7206D38B1401E2065E36C7E
:10460000E26A9A421FD040B11DE0502080F3118829
:10461000BFF34F8FBFF36F8FFEE7201DFFF7D1F879
:10462000E06CE062C0F13800A061E06A296988426C
:1046300000D92861064900EB800001EB8000211DB4
:10464000FFF70EF90121084670BD0000140000209C
:10465000C401002070B5C068C46854B104F11800EA
:104660000646FFF7AEF8144D286B50B1314613489B
:1046700015E0502080F31188BFF34F8FBFF36F8F89
:10468000FEE7201DFFF79DF8E06A2969884200D9FE
:1046900028610B4900EB800001EB8000211DFFF732
:1046A000DFF8E06A2968C96A884202D90120E86116
:1046B00070BD002070BD0000140000204C060020DA
:1046C000C40100202DE9F0472C4D00242746286B1B
:1046D00038B1FFF7D1F8286B401E2863286B40B132
:1046E00046E0502080F31188BFF34F8FBFF36F8FE8
:1046F000FEE7A968224E0120D1B3A6F59169804654
:104700003068E0B1F068C46804F11800FFF759F8A8
:10471000201DFFF756F8E06A2969884200D9286110
:1047200000EB800109EB8100211DFFF799F8E06A99
:104730002968C96A8842E3D3C5F81C80E0E70CB158
:10474000FEF7A8FDAC694CB14FEA0806FFF7DEFEA4
:1047500000B1EE61641EF9D10020A861E86938B1AA
:104760000849012738070860BFF34F8FBFF36F8FE9
:10477000FFF7A2F83846BDE8F087000014000020DB
:104780004C06002004ED00E010B586B0FEF704FBF7
:10479000114C2068B8B100200390049005AA04A928
:1047A00003A8FFF72BF8DDE9032102208DE80700BD
:1047B00000230AA10B48059AFFF769FE606010B15B
:1047C00006B0012010BD502080F31188BFF34F8F39
:1047D000BFF36F8FFEE7000050000020546D722081
:1047E00053766300713300082DE9FF411E461346DE
:1047F00002000A9D4FF0000016D0144C2768002FCD
:104800000FD0CDE900130292062917DAFFF76AFEEE
:1048100002284FF000030FD0002269462068FFF7FE
:1048200023FC04B0BDE8F081502080F31188BFF371
:104830004F8FBFF36F8FFEE72A46EEE70023324625
:1048400069463846FFF7C0FCEBE700005000002047
:104850008C4800080000000000000000000000007C
:10486000000000000002000018000000000000002E
:10487000000000000000000000000000010203042E
:104880000607080900000000010203046465666170
:10489000756C745461736B00B84800080000002008
:1048A000A0000000841A000858490008A000002059
:1048B000B85D0000941A000800000000010000002C
:1048C00010000000000000000024F40000000000C0
:1048D00000000000000000000000000000000000D8
:1048E00000000000000000000000000000000000C8
:1048F00000000000000000000000000000000000B8
:1049000000000000000000000000000000000000A7
:104910000000000000000000000000000000000097
:104920000000000000000000000000000000000087
:104930000000000000000000000000000000000077
:1049400000000000AAAAAAAA0000000000000000BF
:0849500000000000000000005F
:04000005080001AD41
:00000001FF
