:020000040800F2
:10000000504E002085020008C3150008A314000804
:10001000C1150008B5030008FD1900080000000024
:10002000000000000000000000000000C501000802
:10003000B70300080000000021020008DD160008D8
:100040009F0200089F0200089F0200089F0200080C
:100050009F0200089F0200089F0200089F020008FC
:100060009F0200089F0200089F0200089F020008EC
:100070009F0200089F0200089F0200089F020008DC
:100080009F0200089F0200089F0200089F020008CC
:100090009F0200089F0200089F0200089F020008BC
:1000A0009F0200089F0200089F0200089F020008AC
:1000B0009F0200089F0200089F0200089F0200089C
:1000C0009F0200089F0200089F0200089F0200088C
:1000D0009F0200089F0200089F0200089F0200087C
:1000E0009F0200089F0200089F0200089F0200086C
:1000F0009F0200089F0200089F0200089F0200085C
:100100009F0200089F0200089F0200089F0200084B
:100110009F0200089F020008A51700089F02000820
:100120009F0200089F0200089F0200089F0200082B
:100130009F0200089F0200089F0200089F0200081B
:100140009F0200089F0200089F0200089F0200080B
:100150009F0200089F0200089F0200089F020008FB
:100160009F0200089F0200089F0200089F020008EB
:100170009F0200089F0200089F0200080000000084
:100180009F0200089F0200089F0200089F020008CB
:100190009F0200089F0200089F0200089F020008BB
:1001A0009F0200089F0200089F020008DFF810D09D
:1001B00000F0EEF800480047391D0008AFF300805A
:1001C000504E00202C4B19680868B0E8F04F80F3BF
:1001D0000988BFF36F8F4FF0000080F311887047DC
:1001E0000000000008480068006880F308884FF0AD
:1001F000000080F3148862B661B6BFF34F8FBFF37F
:100200006F8F00DF00BF00BF08ED00E0DFF80C00DB
:10021000016841F470010160704700BF88ED00E0A3
:10022000EFF30980BFF36F8F134B1A681EF0100FA6
:1002300008BF20ED108A20E9F04F106009B44FF09C
:10024000500080F31188BFF34F8FBFF36F8F02F020
:1002500091FC4FF0000080F3118809BC1968086810
:10026000B0E8F04F1EF0100F08BFB0EC108A80F31A
:100270000988BFF36F8F704714000020EFF30580EB
:10028000704700000648804706480047FEE7FEE743
:10029000FEE7FEE7FEE7FEE7FEE7FEE7FEE7FEE736
:1002A00095170008AD0100082DE9F05F0546002014
:1002B00092469B4688460646814640241BE02846D7
:1002C00041464746224600F053F853465A46C01A64
:1002D000914110D311461846224600F03AF82D1AE3
:1002E00067EB01084F4622460120002100F031F85B
:1002F00017EB00094E41201EA4F10104DFDC484643
:1003000031462A464346BDE8F09F40EA01039B0779
:1003100003D009E008C9121F08C0042AFAD203E07A
:1003200011F8013B00F8013B521EF9D27047D2B2DE
:1003300001E000F8012B491EFBD270470022F6E7CE
:1003400010B513460A4604461946FFF7F0FF20464B
:1003500010BD202A04DB203A00FA02F10020704789
:100360009140C2F1200320FA03F3194390407047F3
:10037000202A04DB203A21FA02F00021704721FAFA
:1003800002F3D040C2F12002914008431946704761
:10039000064C074D06E0E06840F0010394E80700D2
:1003A00098471034AC42F6D3FFF704FF2837000813
:1003B00048370008FEE7704772B6FEE770B504469E
:1003C00000F02EF90546601C02D004480078044471
:1003D00000F026F9401BA042FAD370BD04000020B3
:1003E0002DE9F84FDFF8F8A10022012403254FF092
:1003F0000F090AF1040BAAF1040E00BF0B6804FAFE
:1004000002F63340B34270D10F7907F00307012F92
:1004100001D0022F16D187684FEA420805FA08FC7E
:1004200027EA0C07D1F80CC00CFA08FC4CEA070CC0
:10043000C0F808C04768B7430E79C6F30016964067
:100440003E4346600E79F643B6070AD0C7684FEAC6
:10045000420C05FA0CF6B7438E6806FA0CF63E43DA
:10046000C6600E7906F00306022E10D1D60800EB06
:100470008608D8F8206057074FEAD76C09FA0CF7BE
:10048000BE430F6907FA0CF73743C8F820700668B7
:100490004FEA420C05FA0CF7BE430F7907F0030749
:1004A00007FA0CF7374307604E6816F4403F1CD03C
:1004B0004C4E376847F480473760366822F00307B0
:1004C00006F480460096484E07EB060CDCF80868F8
:1004D00097073F0F09FA07F826EA0806DFF80C81AC
:1004E000404503D14FF0000841E072E0DFF80081A1
:1004F000404502D14FF0010839E0DFF8F88040456F
:1005000002D14FF0020832E0DFF8EC80404502D122
:100510004FF003082BE0DFF8E480404502D14FF0B4
:10052000040824E0DFF8D880404502D14FF00508E8
:100530001DE0DFF8D080404502D14FF0060816E0FC
:10054000DFF8C480404502D14FF007080FE0DFF824
:10055000BC80404502D14FF0080808E0DFF8B080C9
:10056000404502D14FF0090801E04FF00A0808FAAF
:1005700007F848EA0608CCF80888DAF80060574619
:10058000D1F804C09E435FEACC2C00D51E433E60E8
:10059000DBF800605F46D1F804C09E435FEA8C2C14
:1005A00000D51E433E60DEF800607746D1F804C0F7
:1005B0009E435FEA8C3C00D51E433E60084F083FD7
:1005C0003E68D1F804C09E435FEACC3C00D51E4390
:1005D0003E60521C102AFFF411AFBDE8F88F0000F6
:1005E000083C014044380240003001400000024015
:1005F0000004024000080240000C024000100240CB
:100600000014024000180240001C0240002002407A
:10061000002402400AB1816170470904FBE7000031
:10062000014880687047000004000020024881688B
:100630000278114481607047040000200B4810B517
:10064000016841F400710160016841F4806101605A
:10065000016841F480710160032000F09FF80F20D1
:1006600000F006F800F050F8002010BD003C0240F9
:1006700030B505461F4887B00024016841F01001DD
:100680000160006806A900F01000009001A800F0C9
:1006900069F90498A8B100F085F940001649174A95
:1006A000B0FBF1F11648491E026040F2E732C0E9A2
:1006B0000324C0E90114846100F003FD040003D0A9
:1006C00015E000F06FF9E9E70D4800F029FD04009E
:1006D0000DD1362000F034F8102D07D20022294623
:1006E000362000F03BF80748056000E0012407B021
:1006F000204630BD4038024040420F00001000400C
:1007000034010020080000200C4882B0016841F448
:1007100080410160006800F4804000900748001F9D
:10072000016841F0805101600068002200F08050B3
:1007300000900F21901E02B000F010B84438024023
:10074000002809DB00F01F020121914040098000D0
:1007500000F1E020C0F8001170470000F0B40E4B2B
:100760001B680C46C3F30223C3F10705042D00D90F
:100770000425191D072901D2002300E0DB1E0126F4
:1007800006FA05F1491E214099409E40761E16400A
:100790003143F0BC01F044B90CED00E0064900F033
:1007A000070208684FF6FF03184040EA0220034A98
:1007B00010430860704700000CED00E00000FA05EF
:1007C0002DE9F8431748016841F080510160006845
:1007D000154F00F08050012600903E64FFF720FF87
:1007E00005464FF47A78114C05E000BFFFF718FF7B
:1007F000401B40450DD86068C003F7D57E64FFF705
:100800000FFF0546464607E0FFF70AFF401BB042D0
:1008100002D90320BDE8F88360688003F4D5002086
:10082000F8E700004038024000000E42007000402F
:100830002DE9F0470E46050065D0DFF81481D8F8A1
:100840000000F7B200F00F00B04207D288F8007045
:10085000D8F8000000F00F00B04254D128683D4C99
:10086000810712D5400703D5206840F4E05020608E
:100870002878000703D5206840F460402060206895
:10088000A96820F0F000084320602878C0072DD028
:10089000304968680839012812D0022813D003288B
:1008A00011D00968890700292DDA216821F0030198
:1008B00001432160FFF7B4FE814641F2883A0EE021
:1008C00009688903EFE709688901ECE7FFF7A8FEEB
:1008D000A0EB0901514502D90320BDE8F08720684B
:1008E000696800F00C00B0EB810FEFD1D8F8001070
:1008F000404601F00F01B14207D90770006800F0CF
:100900000F00B04201D00120E7E72878400705D565
:100910002068E96820F4E050084320602878000748
:1009200006D52068296920F4604040EAC1002060B3
:1009300000F058F82168084AC1F30311515CC8401F
:100940000649086006480068FFF792FE0020C4E7E9
:10095000003C024008380240043700081000002024
:10096000080000200F2202600C4A136803F0030302
:100970004360136803F0F0038360136803F4E053EB
:10098000C36012684FF4E05303EAD20202610448E4
:10099000006800F00F00086070470000083802404F
:1009A000003C02400448054900680968044AC1F354
:1009B0008221515CC8407047100000200838024076
:1009C000143700080448054900680968044AC1F35F
:1009D0004231515CC8407047100000200838024086
:1009E00014370008154810B5006810F00C021448C0
:1009F00013D01449042A0FD0082A0ED10F4C241FFB
:100A00002268236802F03F025B0207D52068C0F32A
:100A10008810A0FB010106E0084610BD2168C1F363
:100A20008811A1FB00010023FFF73EFC2168C1F300
:100A30000141491C4900B0FBF1F010BD08380240EB
:100A40000024F40040787D012DE9F84F04006ED0B9
:100A50002078DFF84C93C007A9F104054AD009F1CA
:100A600004000168C1F38101012908D00068C0F3C6
:100A7000810002280AD1D9F80000400206D5286872
:100A8000800337D560680028E1D033E06068B0F5B6
:100A9000803F10D0B0F5A02F286810D020F480300F
:100AA0002860286820F4802028606068A8B1FFF7DB
:100AB000B7FD06460DE0286840F48030F4E740F4C6
:100AC00080202860F7E700BFFFF7AAFD801B64289D
:100AD00073D828688003F7D50CE0FFF7A1FD064620
:100AE00005E000BFFFF79CFD801B6428F0D8286854
:100AF0008003F7D42078DFF8AC8280074FF0000A3B
:100B00003ED5A748001D016811F00C0F08D0006801
:100B1000C0F3810002280BD1D9F80000400207D4AD
:100B20002868800716D5E068012800D112E033E17B
:100B3000E068B8B10120C8F80000FFF771FD064673
:100B400005E000BFFFF76CFD801B0228C0D82868B5
:100B50008007F7D52868216920F0F80040EAC10035
:100B600028600DE0C8F800A0FFF75AFD064604E033
:100B7000FFF756FD801B02281FD828688007F7D48E
:100B80002078000722D5864F87486169703771B198
:100B900001210160FFF744FD064604E0FFF740FD38
:100BA000801B022809D838688007F7D50EE0C0F806
:100BB00000A0FFF735FD064605E082E0FFF730FDB7
:100BC000801B02287DD838688007F7D4207840073A
:100BD00068D5DFF8CCB100270BF13C0BDBF8000047
:100BE000C0000BD4DBF8001041F08051CBF80010AE
:100BF000DBF80000012700F0805000906B4E306859
:100C0000C00510D4306840F480703060FFF708FDF4
:100C1000009005E0FFF704FD0099401A022850D823
:100C20003068C005F6D55E4EA0686C3601280FD03E
:100C30000528306810D020F001003060306820F0C6
:100C400004003060A068B8B1FFF7EAFC00900FE044
:100C5000306840F00100F4E740F004003060F7E74E
:100C6000FFF7DEFC0099411A41F28830814266D8D4
:100C700030688007F4D50EE0FFF7D2FC009007E063
:100C8000FFF7CEFC0099411A41F28830814256D8D4
:100C900030688007F4D42FB1DBF8001021F08051C8
:100CA000CBF80010A069C8B33D49091D0968C1F31C
:100CB000810102294AD00228504607D0C8F86000B6
:100CC00000E03CE0FFF7ACFC04463BE04746C8F8D8
:100CD0006000FFF7A5FC064605E000BFFFF7A0FC9B
:100CE000801B02282BD828688001F7D4D4E907019B
:100CF0000843A16A2E4A490802EB0141626A41EAAF
:100D00008211084394F82C1040EA0161C9F80010E0
:100D100001203866FFF784FC044606E03EE000BF91
:100D2000FFF77EFC001B022809D828688001F7D550
:100D300034E000BFFFF774FC001B022802D9032037
:100D4000BDE8F88F28688001F4D427E00128F7D0A7
:100D5000D9F80000E26900F4800191421CD1226AB6
:100D600000F03F01914217D147F6C071626A01401D
:100D7000B1EB821F10D1A26A4FF0FF3300F4403173
:100D800003EB5202B1EB024F06D194F82C1000F0A5
:100D90007060B0EB016F01D00120D1E70020CFE7F8
:100DA0000438024000004742800E47420070004075
:100DB0000000FFFF70B5040009D0606A002540B153
:100DC00025616561A56294F8510040B10CE00120F5
:100DD00070BD6068B0F5827FF4D0E561F2E784F819
:100DE0005050204600F044F8022084F8510020685A
:100DF000016821F040010160A088218900F482701F
:100E000001F404410843A18901F400610843217CF5
:100E100001F002010843217D01F001010843218B0B
:100E200001F400710843217F01F03801084394F870
:100E3000201001F080010843218D01F40051084386
:100E400021680860A069042101EA104094F8241088
:100E500001F010010843216848602068C16921F44D
:100E60000061C1616565012084F85100002070BDFA
:100E700010B586B0044614216846FFF75FFA14499E
:100E80002068884221D113480021026842F4801270
:100E90000260006800F4801005900E481438026863
:100EA00042F020020260006800F0200005904FF43C
:100EB000607000900220CDE901010320039005201D
:100EC000049069460448FFF78BFA06B010BD000095
:100ED0000050014044380240001402402DE9F84F10
:100EE000044690F8500000270A9E1D4692468B4605
:100EF0004FF0010901280ED0012084F85000FFF7BF
:100F00008FFB804694F85100616801280CD0B1F540
:100F1000827F07D102E00220BDE8F88FA16809B9FD
:100F2000042801D00227C2E0BBF1000F27D0BAF19C
:100F3000000F24D01DB394F85100042802D00520DE
:100F400084F8510000206065C4F838A0E587A587C3
:100F5000C4F830B0E586A586206460642068016826
:100F6000490603D4016841F040010160E068B0F532
:100F7000006F606805D0E8B3012D46D07FE00127FF
:100F800095E008B1012D39D1206B21680088C86037
:100F9000206B801C2063E08E401EE0862EE02068DF
:100FA000816889070FD5E18E69B1B9F1010F0AD1C6
:100FB000216B0988C160206B801C2063E08E401E7D
:100FC000E0864FF0000920688168C9070CD0E18FE6
:100FD00051B1C068A16B0880A06B801CA063E08F3A
:100FE000401EE0874FF00109FFF71AFBA0EB080055
:100FF000B04200E009E001D3701C50D1E08E00281F
:10100000CDD1E08F0028CAD13FE0206B2168007865
:101010000873206B401C2063E08E401EE0862EE0AB
:101020002068816889070FD5E18E69B1B9F1010F98
:101030000AD1216B09780173206B401C2063E08E7C
:10104000401EE0864FF0000920688168C9070CD077
:10105000E18F51B1C068A16B0870A06B401CA06308
:10106000E08F401EE0874FF00109FFF7D9FAA0EBAF
:101070000800B04202D3701C01D010E07EB1E08EB7
:101080000028CDD1E08F0028CAD142463146204603
:1010900000F098FA28B101272020606507E00327B7
:1010A00005E0A06818B92068C16880680090012038
:1010B00084F85100002084F8500038462CE770472F
:1010C000704710B5040003D094F83D0010B107E05C
:1010D000012010BD002084F83C00204600F01EF8DE
:1010E000022084F83D00211D206800F061FB0120F2
:1010F00084F8460084F83E0084F83F0084F84000FD
:1011000084F8410084F8420084F8430084F84400E5
:1011100084F8450084F83D00002010BD70470000B1
:1011200090F83D10012901D001207047022180F87C
:101130003D100168CA6842F00102CA6000681149A6
:10114000884214D0B0F1804F11D00F4988420ED0A0
:101150000E4988420BD00E49884208D00D4988427A
:1011600005D00D49884202D00C49884204D18168DB
:1011700001F00701062903D0016841F00101016077
:1011800000207047000001400004004000080040BB
:10119000000C0040000401400040014000180040E5
:1011A000704770B50446006801694FF00005C943F7
:1011B000890715D4C168C943890711D4E91E0161A3
:1011C00001202077206880698007204602D0FFF741
:1011D000E7FF04E000F098F8204600F096F8257745
:1011E00020680169C943490717D4C168C943490741
:1011F00013D46FF004010161022020772068806918
:1012000010F4407F204602D0FFF7CAFF04E000F050
:101210007BF8204600F079F8257720680169C943FA
:10122000090716D4C168C943090712D46FF0080131
:101230000161042020772068C0698007204602D021
:10124000FFF7AEFF04E000F05FF8204600F05DF825
:10125000257720680169C943C90617D4C168C94305
:10126000C90613D46FF010010161082020772068AF
:10127000C06910F4407F204602D0FFF791FF04E0E0
:1012800000F042F8204600F040F825772068016918
:10129000C943C90708D1C168C943C90704D1891E18
:1012A0000161204600F032F820680169C94309064F
:1012B00009D4C168C943090605D46FF080010161F2
:1012C0002046FFF7FCFE20680169C943490609D49E
:1012D000C168C943490605D46FF040010161204649
:1012E00000F01EF820680169C94389060BD4C16863
:1012F000C943890607D46FF0200101612046BDE88B
:101300007040FFF7DDBE70BD70477047006803494D
:10131000884201D1FFF78AB97047000000100040F1
:10132000704770B5040004D094F83D00002510B15A
:1013300006E0012070BD84F83C50204600F022F801
:10134000242084F83D002068C16821F40051C16068
:10135000204600F091FA2068016921F49041016172
:101360002068416921F02A0141612068C16841F487
:101370000051C1602564202084F83D0084F83E00BF
:10138000002070BD10B586B0044614216846FEF7F3
:10139000D5FF14492068884221D1134800210268F2
:1013A00042F010020260006800F0100005900E4844
:1013B0001438026842F001020260006800F0010087
:1013C00005904FF4C06000900220CDE90101032098
:1013D00003900720049069460448FFF701F806B01F
:1013E00010BD0000001001404438024000000240DF
:1013F0002DE9F843044690F83D001F4616460D4679
:1014000020284CD1C5B1BEB194F83C00012846D08B
:10141000012084F83C004FF00008C4F840802120EF
:1014200084F83D00FFF7FCF8A6848146E684A068B6
:10143000B0F5805F03D004E00120BDE8F8832069A7
:1014400028B12E465FF0000584F83C800EE00026AF
:10145000FAE78021204600F095FAA0B9AEB116F85F
:10146000010B21684860E08C401EE084E08C4B4614
:101470004FF0000200970028EBD14FF040012046CA
:1014800000F080FA30B10320D7E735F8020BC0F343
:101490000800E6E7202084F83D000020CDE7022088
:1014A000CBE7FEE710B5044A0021044800F0ACFC8D
:1014B0000349086010BD0000E0360008D51600089A
:1014C0000000002030B587B014216846FEF736FFD3
:1014D0001A480024016841F004010160016801F02C
:1014E00004010591016841F020010160016801F0EB
:1014F00020010591016841F080010160016801F05F
:1015000080010591016841F00101016000680C4D06
:1015100000F001000590012240212846FFF77AF8EB
:10152000402000900120CDE901040220039069468B
:101530002846FEF755FF07B030BD000030380240A6
:10154000001402400F4810B50D4901604FF482713C
:10155000416000218160C1604FF400720161C0E907
:101560000512C1610162416281620A21C162FFF715
:1015700021FC002803D0BDE81040FEF71DBF10BDC0
:1015800000500140980000200C4810B50A49016045
:101590004FF4E1314160002181600C22C160C0E95B
:1015A00004128161C161FFF7BCFE002803D0BDE8D1
:1015B0001040FEF701BF10BD00100140F0000020F8
:1015C000FEE7FEE738B504461248134B0068B0FB4F
:1015D000F3F04FF47A73584300906068B0F5827F5F
:1015E0000DD10B46009200228021204600F016F813
:1015F00070B1606D40F020006065032038BD009838
:1016000030B1401E009020688068C0430006F6D5C7
:10161000002038BD1000002000366E012DE9F8438F
:101620001E46914688460446089DFEF7F9FF401B7A
:10163000351AFEF7F5FF074625480068C0F3CB30A2
:10164000684338E0701C37D0FEF7EAFFC01BA842A1
:1016500003D215B1009860B32CE02068416821F0F6
:10166000E00141606068B0F5827F0BD1A068B0F501
:10167000004F02D0B0F5806F04D12068016821F0DE
:1016800040010160A06AB0F5005F09D120680168DF
:1016900021F4005101602068016841F400510160AB
:1016A000012084F85100002084F850000320BDE898
:1016B000F8830025401E00902068816838EA010008
:1016C00004D000214945BDD10020F0E70121F9E710
:1016D00010000020012000F05BFBFBE710B54FF08D
:1016E000E020006901F046FE012803D0BDE810406B
:1016F00001F074BB10BD000070B592B03021684697
:10170000FEF71CFE14210CA8FEF718FE1F4800254A
:10171000016841F080510160006800F08050119034
:101720001B48016841F4404101600068022400F454
:101730004040119001200090000401908001CDE90B
:1017400006400F260896D820CDE9090404200B9006
:101750006846FFF779F908B172B6FEE7FFF730F88F
:1017600008B172B6FEE74FF4A050CDE90E504FF429
:101770008050CDE90C64109005210CA8FFF758F8B3
:10178000002801D072B6FEE712B070BD40380240AA
:10179000007000400248016841F470010160704728
:1017A00088ED00E00148FFF7FCBC00003401002098
:1017B000F0B50268254C264D264E274F274B4FF09B
:1017C000804CA04209D0604507D0A84205D0B04265
:1017D00003D0B84201D0984204D122F0700E4A687A
:1017E00042EA0E02A0421BD0604519D0A84217D091
:1017F000B04215D0B84213D0984211D0184DA8422B
:101800000ED0184DA8420BD0174DA84208D0174D46
:10181000A84205D0164DA84202D0164DA84203D1C9
:1018200022F44075CA682A434D6922F080022A4397
:1018300002608A68C2620A688262A04201D098424D
:1018400001D10969016301214161F0BD000001403E
:101850000004004000080040000C0040000401406B
:101860000040014000440140004801400018004091
:10187000001C00400020004070B50446006801696B
:10188000E26821F44051114301612169A068E269D5
:1018900008436169114308432168CA6849F20C632F
:1018A0009A430243CA6020684169A26921F44071E9
:1018B0001143416131492068884202D03049884251
:1018C00002D1FFF77FF801E0FFF76CF8E26900232F
:1018D000192164253226B2F5004F626828D0A0FB9A
:1018E0000101930F9200FEF7DFFC0146B0FBF5F01B
:1018F0006FF01802504301EB800006EB0010B0FBC4
:10190000F5F000F0F002B1FBF5F002EB0012B1FBD4
:10191000F5F06FF01803584301EB800006EB001060
:10192000B0FBF5F000F00F0021681044886070BD36
:10193000A0FB010192185B41FEF7B6FC0146B0FB2B
:10194000F5F00201B1FBF5F06FF01803584301EB1D
:10195000800006EBC000B0FBF5F000F0F80002EBF1
:101960004002B1FBF5F0584301EB800006EBC000EC
:10197000B0FBF5F000F00700D6E7000000100140D2
:10198000001401402DE9F041984617460E460446E2
:10199000069D27E0681C25D02DB1FEF741FEA0EB87
:1019A0000800A8421ED920680C3050E8001F21F41E
:1019B000D07140E80012002AF5D12068143050E8B8
:1019C000001F21F0010140E80012002AF5D120207B
:1019D00084F83D0084F83E00002084F83C00032099
:1019E000BDE8F0812068006836EA000004D00020DD
:1019F000B842CFD00020F3E70120F9E7FEE700006E
:101A00000FB4054B10B503A9044A029800F028F85A
:101A100010BC5DF814FB0000211D0008940000209C
:101A20000907090E002804DB00F1E02080F800140B
:101A3000704700F00F0000F1E02080F8141D70479F
:101A400002E008C8121F08C1002AFAD17047704787
:101A5000002001E001C1121F002AFBD170470000E5
:101A60002DE9FF4F8DB09B460F460446002606E049
:101A700025280BD05A460F999047641C761C207875
:101A80000028F5D111B03046BDE8F08F0025A846FA
:101A90000122984900E0054314F8013F203B02FA77
:101AA00003F00842F7D120782E2817D114F8010F3F
:101AB00045F004052A280ED06FF02F022078A0F1FF
:101AC000300109290AD808EB880102EB410100EB3B
:101AD0000108641CF2E757F8048B641C20786C281A
:101AE0000DD004DC4C2812D06A2811D104E07428EF
:101AF0000DD07A280CD10AE045F4001507E0617892
:101B000045F48015814202D1641C05F58015641CE2
:101B10002078692844D008DC0028B3D0582867D042
:101B200063280FD0642808D13AE0702865D0732864
:101B300012D075285AD078285AD05A460F99904713
:101B4000761CD5E017F8040B8DF8000000208DF806
:101B50000100E946012003E057F8049B4FF0FF30F5
:101B600069074FF0000501D40AE06D1C45450DDA08
:101B70008542FADB19F805100029F6D106E06D1C44
:101B80008542FCDB19F805100029F8D12E4404E049
:101B900019F8010B5A460F9990476D1EF8D2A7E02D
:101BA0000A200021CDE90801C5F3025002280CD01B
:101BB00001CFC117021E71F100020CDA0023D0EB35
:101BC000030063EB01012D2208E0FF1D27F007074A
:101BD000F7E80201EEE72A0504D52B228DF828202C
:101BE00001223CE0EA073AD02022F7E70A2000E091
:101BF00010200021CDE9080107E01020002145F068
:101C00000405CDE908014FF00808C5F30250022889
:101C100010D001CF00214FF0000A2A0720D52278EA
:101C2000702A0DD0DDE908C38CF0100C5CEA030CBF
:101C30000CD015E0FF1D27F00707F7E80201EAE7DF
:101C400040228DF828204FF0010A0CE050EA0103F1
:101C500006D030238DF828308DF8292002229246B4
:101C60002278582A04D024A20DF120090B9209E011
:101C700026A2F9E7DDE90823FEF716FB0B9B9B5C28
:101C800009F8013D50EA0102F4D1ADEB0900203022
:101C90000890680701D44FF001080899884503DDD2
:101CA0000898A8EB000000E000208046002506E030
:101CB0000AA85A46405D0F9990476D1C761C554501
:101CC000F6DB04E030205A460F999047761CB8F1B5
:101CD0000001A8F10108F5DC05E019F8010B5A46EE
:101CE0000F999047761C0899481E08900029F4DC4B
:101CF000641CC4E6092801003031323334353637EC
:101D00003839616263646566000000003031323347
:101D100034353637383941424344454600000000E7
:101D200013B54FF6FF73012269460248FFF760FBC7
:101D300000981CBDF000002008B5FEF77FFCFFF7FF
:101D4000DBFCFFF7BFFBFFF7FDFBFFF71DFC0020EF
:101D500000F088FF4FF47A70FEF730FB0122114645
:101D6000684600F057FF9DF8001005A0FFF748FEF9
:101D700000F01CF8FFF796FB00F02AF8FEE70000E1
:101D80007265616420646174613A25640D0A000023
:101D900010B5EFF3058111B16FF0050403E00024E5
:101DA00008B100F033FE204610BD0000EFF30580BF
:101DB00010B16FF0050070470448016811B14FF091
:101DC000FF3070470121016000207047640000204F
:101DD00010B5EFF3058010B16FF0050010BD084895
:101DE0000168012902D04FF0FF3010BD054A0021E3
:101DF00082F8141D0221016000F070FE002010BD69
:101E0000640000200BE000E02DE9FF414FEA0103F0
:101E10004FF00005EFF30581039549BB40B38027E0
:101E2000182100244AB3166806B1344696691EB1DB
:101E30003146761E382E02D21679F60703D00020DE
:101E400004B0BDE8F081566906B1B708D2F808C001
:101E5000BCF1000F0DD0D5685C2D18D312693AB1D2
:101E600036B18DE806103A46214601F058FA039043
:101E70000DE0D6685EB912694AB903AACDE900122D
:101E8000BAB2214601F01EFA012800D0039503984A
:101E9000D6E700002DE9F041134C0F460546E668F1
:101EA0002068001D00F07EFC681C07D137B1216856
:101EB000BDE8F0410D48091D00F0C4BC2068354460
:101EC000B5424560216805D2A06BBDE8F041091D0F
:101ED00000F0A0BC606B091D00F09CFCA06A85426C
:101EE00000D2A562BDE8F081140000206C0600203D
:101EF0002DE9F041054600F0B1FC2D4CA068401CD6
:101F0000A06020682B4F10B1606930B32BE02560D2
:101F1000A068012827D1002606EB860007EB800089
:101F200000F06AFC761C382EF6D3234800F064FCDF
:101F30002148143000F060FC1F48283000F05CFCA1
:101F40001D483C3000F058FC1B48503000F054FC59
:101F5000194860631430A06305E02068E96AC06A2C
:101F6000884200D82560606A401C60626864E86A44
:101F70002169884200D9206100EB800007EB8000D6
:101F8000291D00F05FFC00F089FC606900280CD07E
:101F90002068E96AC06A884207D208494FF0805039
:101FA0000860BFF34F8FBFF36F8FBDE8F081000073
:101FB00014000020BC0100201C06002004ED00E0FD
:101FC00038B500F04BFC104C2068C8B90F4800F041
:101FD00013FC0E48143000F00FFC0C48E060143085
:101FE00020610A4B0020F03B009003F150021021C9
:101FF0000A2000F009FF206010B105A100F0D0FC1C
:10200000BDE8384000F04ABC5000002070070020B6
:10201000546D72510000000030B4026C0B46002A6F
:102020000BD0C1681144C1608468A14201D301682A
:10203000C16030BC1846FEF768B930BC70472DE966
:10204000F041856B174604460026026C82B1C7B189
:10205000E068FEF75AF9E168206C091AE16022682D
:10206000914202D2A168081AE060022F16D017E050
:102070002068A8B9A06801F0F5F906460020A06024
:102080000EE06068FEF741F9216C6068084460600A
:10209000A168884204D32068606001E005B16D1E2C
:1020A0006D1CA5633046BDE8F08110B5044690F87C
:1020B000590058B101280CD002280FD0502080F3CD
:1020C0001188BFF34F8FBFF36F8FFEE7206B00F0D7
:1020D000F9FB2046BDE8104000F0F4BB10BD000045
:1020E00010484FF47051420706D0C01D0D4920F032
:1020F0000700411AC1F570510B4A00230144C2E99F
:1021000000030839183A21F0070111604B600B6099
:102110000B1AC0E9001393604FF000405360506108
:1021200070470000500E002080000020144E154C17
:10213000A6F29C474FF08058DFF84C9012E000BFA9
:1021400000F08CFBF068C568281D00F02BFBA06830
:10215000401EA0606068401E606000F09FFB284643
:10216000FFF7A3FF60680028EAD138680128F9D991
:10217000C9F80080BFF34F8FBFF36F8FF2E7000005
:10218000580600201400002004ED00E070B51D4644
:10219000049C51B1C4F80020C4E90F01012120467C
:1021A00000F066FE84F84C5070BD2460F4E7000037
:1021B0002DE9F05F8846DDE90B94154683469100D2
:1021C0009A460A9EA522206BFEF7B1F86FF0030134
:1021D000206B01EB8501084420F00707780707D042
:1021E000502080F31188BFF34F8FBFF36F8FFEE74E
:1021F0000025B8F1000F0FD05FF00000221818F88A
:10220000001082F8341018F8001011B1401C10288A
:10221000F4D384F8435001E084F83450382E00D3CE
:102220003726E662C4E91365201D00F0F0FA04F1D8
:10223000180000F0ECFA2461C6F138006462A06175
:10224000656584F8585052465946384600F05AFAA7
:102250002060B9F1000F01D0C9F80040BDE8F09F3F
:1022600030B5114900E011460A688242FBD34B6841
:102270005C18844203D140681844486008464368AB
:102280001C18944209D1084C183C2468A24209D079
:1022900052681A4442600A6812680260814200D0A3
:1022A000086030BD0460F9E78000002070B50024AC
:1022B00041600B4D0061914206D8D11A826991426A
:1022C00006D2011D286907E09A4203D2994201D340
:1022D000012403E0011DE86800F09CFA204670BD6F
:1022E0005000002010B5044600F0B8FAA06B28B1E9
:1022F0005FF0000400F0D2FA204610BD0124F9E797
:1023000030B589B03C4D6EE00498002806DADDE96E
:102310000601059A90470498002864DB069C6069D2
:1023200010B1201D00F03EFA03A800F0D7F80246D5
:1023300004980A2857D2DFE800F00505052D334A36
:1023400005052D3394F8280040F0010084F828009A
:102350000599A069059B01442046FFF7A7FF68B3D4
:10236000216A2046884794F8280040073BD5002082
:1023700000900598A169002342181946204601F0F3
:102380007BF9D8B9502080F31188BFF34F8FBFF38A
:102390006F8FFEE714F8280F20F00100207022E074
:1023A00094F8280040F0010084F828000598A06106
:1023B00028B1811813462046FFF778FF13E050201C
:1023C00080F31188BFF34F8FBFF36F8FFEE794F850
:1023D0002800810703D4204600F074FA03E020F0BF
:1023E000010084F82800002204A9286800F094FE67
:1023F000002889D109B030BD500000202DE9FC41F2
:102400000F46054600F0AEFB01A800F067F8044651
:10241000019818B101F09EF8BDE8FC81254EAFB1DE
:1024200030690068D0B30027291B3A46306800F0B5
:10243000CBFA01F08FF80028EED11F494FF0805001
:102440000860BFF34F8FBFF36F8FE5E7A542EBD86E
:1024500001F080F8F0682746C068C468201D00F0CD
:10246000A1F994F82800410719D5A0692B46411914
:102470003A462046FFF71AFFA8B10020034601465E
:1024800000902A46204601F0F7F860B9502080F30A
:102490001188BFF34F8FBFF36F8FFEE707E020F087
:1024A000010084F82800216A20468847B4E7012704
:1024B000BAE700005000002004ED00E00648416B40
:1024C000096829B1416BC968C96849688162704768
:1024D0004FF0FF31FAE700001400002070B5054608
:1024E00000F056FF064E0446B068844203D200F066
:1024F00009F8012000E0002028602046B46070BD8B
:1025000050000020F8B5194D20E0C068C468066886
:10251000201D00F047F9216A2046884794F82800DA
:10252000400713D5A0693044B04206D924616060E9
:10253000211DE86800F06EF908E00020034601461E
:1025400000903246204601F097F838B1E8680168FB
:102550000029DAD12969C5E90310F8BD502080F3BC
:102560001188BFF34F8FBFF36F8FFEE7500000203D
:1025700008484068401C4FF0500080F3118804D098
:10258000BFF34F8FBFF36F8FFEE7BFF34F8FBFF3E4
:102590006F8FFEE788000020074CE068016841B1BA
:1025A000C0680021D0F80000FFF728FFFFF7A8FE61
:1025B000F3E701210020F7E7500000202DE9F0416A
:1025C000044600F04BF994F9455004F1240609E063
:1025D000606A48B1304600F085FF08B100F044FA67
:1025E0006D1E6DB2002DF3DC4FF0FF3684F84560B0
:1025F00000F054F900F032F994F9445004F1100756
:1026000009E0206948B1384600F06CFF08B100F0DD
:102610002BFA6D1E6DB2002DF3DC84F84460BDE82A
:10262000F04100F03BB900002DE9F04105460027DC
:1026300000F098FA324E306808B9FFF751FD706922
:1026400005424ED1C5B3083568070ED005F0070026
:10265000C0F108000544680707D0502080F31188B6
:10266000BFF34F8FBFF36F8FFEE72DB370688542C6
:1026700037D82348183001460C6801E020460C4644
:102680006168A94202D221680029F7D131688C42E1
:1026900027D007682168016060680837411B10294E
:1026A0000FD96019420708D0502080F31188BFF37A
:1026B0004F8FBFF36F8FFEE713E041606560FFF758
:1026C000CFFD61687068401A7060B268904200D2B5
:1026D000B060706901430020C4E90001F068401C4B
:1026E000F06000F037FF780707D0502080F31188A2
:1026F000BFF34F8FBFF36F8FFEE73846BDE8F08121
:102700006800002010B5031F4FF080741C601B1F71
:1027100021F001011960191F044B0B6014390A6084
:10272000091F6FF0020244380A6010BD71250008CD
:1027300001B582B04FF47A700090012301AA02A97A
:102740000248FEF7CBFB9DF804000EBD9800002068
:1027500070B50D46044604E0FF20FFF7E9FF04F8DA
:10276000010B6D1EADB2F7D270BD00002DE9F04136
:102770000B4F0D4606460024224640213846FDF701
:1027800049FF04E0305DFFF7D3FF641CA4B2AC4204
:10279000F8D33846BDE8F04101224021FDF73ABFA9
:1027A00000140240D0E9013201699A60D0E90123A6
:1027B0005A604A68824201D182684A6000220261FE
:1027C0000868401E0860086870470000034B0360FB
:1027D00003F15C00086080201060704798070020BB
:1027E000044B036003F15C0008604FF480701060DC
:1027F00070470000F409002000F108014FF0FF329B
:10280000C0E90112C160016100210160704700212F
:102810000161704730B50B685A1C02D000F1080204
:1028200002E0026904E02246546825689D42FAD914
:1028300053684B6099608A60516008610168491C67
:10284000016030BD42684A6093688B60936859604C
:10285000916008610168491C01607047502080F355
:102860001188BFF34F8FBFF36F8F0A494868401C30
:10287000486001280CD10848006810F0FF0F07D00D
:10288000502080F31188BFF34F8FBFF36F8FFEE7A7
:10289000704700008800002004ED00E00849486807
:1028A00028B1401E486001D180F311887047502044
:1028B00080F31188BFF34F8FBFF36F8FFEE70000E7
:1028C0008800002070B500282AD0164DA0F1080419
:1028D00060686969084207D1502080F31188BFF30E
:1028E0004F8FBFF36F8FFEE722683AB1502080F31D
:1028F0001188BFF34F8FBFF36F8FFEE7884360608F
:1029000000F030F960686968084468602046FFF7A5
:10291000A7FC2869401C2861BDE8704000F01ABE81
:1029200070BD0000680000204FF0E0200021016130
:10293000816105494FF47A720968B1FBF2F1491ED1
:1029400041610721016170471000002010B5FDF7BB
:1029500095FC114910280ED300F1E02090F8F00307
:102960000A78904207D2502080F31188BFF34F8F2E
:10297000BFF36F8FFEE709480068896800F4E060E4
:10298000884207D9502080F31188BFF34F8FBFF3DF
:102990006F8FFEE710BD0000880000200CED00E006
:1029A00010B5084B002200BF53F832401CB1521C36
:1029B000082AF9D310BD43F8321003EBC201486076
:1029C00010BD00007C01002070B515460E4604467F
:1029D000FFF744FF94F944100020491C01D184F80A
:1029E000440094F94510491C01D184F84500FFF7D3
:1029F00055FFA06B28B92A46314604F1240000F0A7
:102A000051F82046BDE87040FFF7D8BD10B5020070
:102A100014D00F48006B38B1502080F31188BFF3F9
:102A20004F8FBFF36F8FFEE700F09CF80021104638
:102A3000FFF730FA00F08EFD002807D105494FF06E
:102A400080500860BFF34F8FBFF36F8F10BD000041
:102A50001400002004ED00E002490A6A0260C9681F
:102A6000416070471400002001490120C86170478F
:102A70001400002010B50C4650B1094909681831FE
:102A8000FFF7C8FE2046BDE810400121FFF702BA5B
:102A9000502080F31188BFF34F8FBFF36F8FFEE795
:102AA0001400002070B514460D4668B10A49096843
:102AB0001831FFF7C7FE0CB14FF0FF35214628460D
:102AC000BDE87040FFF7E6B9502080F31188BFF3EE
:102AD0004F8FBFF36F8FFEE71400002030B587B033
:102AE0000024039405AA04A903A80494FFF76EFE2A
:102AF000DDE903010094CDE90110002315A1174879
:102B0000059A00F00CFC164D0028E8621FD000F07A
:102B100083FD012809D0401C19D1502080F3118871
:102B2000BFF34F8FBFF36F8FFEE7502080F3118804
:102B3000BFF34F8FBFF36F8F4FF0FF30A8620120BC
:102B40006861EC6007B0BDE8304000F0CDB807B078
:102B500030BD000049444C45000000002D21000814
:102B6000140000200248016B491C016370470000FB
:102B700014000020164810B5016B11B10121C1618C
:102B800010BD0021C1610169124A01E0B9B1491EBD
:102B900001EB810352F82330002BF7D001EB8103C6
:102BA00002EB830202F1080453685B685360A3429E
:102BB00001D15B685360DA680260016110BD50208A
:102BC00080F31188BFF34F8FBFF36F8FFEE70000D4
:102BD00014000020BC01002070B50C4D052400221B
:102BE00040212846FDF716FD2046FFF7A1FDFF20F6
:102BF000FFF79EFD0446012240212846FDF70AFD0D
:102C0000214603A0FEF7FCFE204670BD00140240E2
:102C100025782000F8B5054600200090080C8DF8B6
:102C20000000080A8DF801000D4F16468DF80210BD
:102C30000324002240213846FDF7ECFC2046FFF734
:102C400077FD03216846FFF791FD31462846FFF7DF
:102C50007FFD012240213846FDF7DCFCF8BD000075
:102C60000014024038B50021009120218DF8001099
:102C7000010C8DF80110010A8DF802108DF8030087
:102C800000F01EF8094C002240212046FDF7C2FC4E
:102C900000F00EF804216846FFF768FD012240218C
:102CA0002046FDF7B7FC00F003F838BD00140240E1
:102CB0002DE91040FFF790FFC007FBD110BD0000C9
:102CC00070B5084D0624002240212846FDF7A2FCDD
:102CD0002046FFF72DFD2846BDE870400122402127
:102CE000FDF798BC001402401CB537480168374A0C
:102CF000914207D1502080F31188BFF34F8FBFF36B
:102D00006F8FFEE700683149491E884207D1502085
:102D100080F31188BFF34F8FBFF36F8FFEE72C490D
:102D200008780190FF20087008788DF800009DF861
:102D300000009DF8002000F0F000904207D05020E5
:102D400080F31188BFF34F8FBFF36F8FFEE79DF8BD
:102D50000000204C00F0500020700720A06005E02B
:102D60009DF8002052008DF80020401E9DF80020A4
:102D70001206F5D4A060032807D0502080F31188F4
:102D8000BFF34F8FBFF36F8FFEE74FF44070A0602B
:102D9000019808700C482030016841F4700101600E
:102DA000016841F070410160FFF7BEFD00206060E6
:102DB000FDF72CFA0848016841F040410160FDF739
:102DC00011FA00201CBD000000ED00E071C20F41AF
:102DD00000E400E08800002034EF00E010B550204F
:102DE00080F31188BFF34F8FBFF36F8F00F0D6FAD7
:102DF00018B104494FF080500860002080F311881A
:102E000010BD000004ED00E038B5049D18B153B1C9
:102E1000CAB181B120E0502080F31188BFF34F8FF9
:102E2000BFF36F8FFEE7502080F31188BFF34F8F01
:102E3000BFF36F8FFEE7502080F31188BFF34F8FF1
:102E4000BFF36F8FFEE739B1502080F31188BFF3D5
:102E50004F8FBFF36F8FFEE750241C46012384F889
:102E600046302B460094FFF791F9204638BD00000C
:102E700070B50D46040025D0FFF7F0FCD4E90F2013
:102E8000216802FB0011A1600021A163216861603B
:102E90000A46D4E90F01401E00FB0121E1602146F2
:102EA0004FF0FF3001F8440F487004F110008DB16D
:102EB000FFF7A2FC04F12400FFF79EFCFFF7EEFCF5
:102EC000012070BD502080F31188BFF34F8FBFF3F6
:102ED0006F8FFEE721690029F0D000F003FB002886
:102EE000ECD004494FF080500860BFF34F8FBFF320
:102EF0006F8FE3E704ED00E02DE9FF4782B01D4648
:102F00008A464FF00008040003D0BAF1000F08D041
:102F100011E0502080F31188BFF34F8FBFF36F8F04
:102F2000FEE7206C38B1502080F31188BFF34F8F3B
:102F3000BFF36F8FFEE7022D0AD1E06B012807D0A7
:102F4000502080F31188BFF34F8FBFF36F8FFEE7E0
:102F500000F010FA3F4F4FF000094FF0805648B98B
:102F6000049838B1502080F31188BFF34F8FBFF31E
:102F70006F8FFEE7FFF772FCA06BE16B884207D30F
:102F8000022D05D00498D0B1B8F1000F1AD01EE080
:102F90002A4651462046FFF752F8616A19B104F1FA
:102FA000240000F09FFA20B13E60BFF34F8FBFF3C3
:102FB0006F8FFFF773FC012006B0BDE8F087FFF7C5
:102FC0006DFC22E06846FFF747FD4FF00108FFF770
:102FD00065FCFFF7C7FDFFF741FC94F94400401C76
:102FE00001D184F8449094F94500401C01D184F843
:102FF0004590FFF753FC04A9684600F029F930B169
:103000002046FFF7DBFA00F0A5FA0020D4E7FFF72F
:1030100025FCA06BE16B884213D1FFF73FFC04F164
:1030200010000499FFF726FD2046FFF7C7FA00F0CD
:1030300091FA00289ED13E60BFF34F8FBFF36F8F90
:1030400098E7FFF72BFC2046FFF7B8FA00F082FA6A
:1030500090E7000004ED00E02DE9F0471F469046A0
:103060008946040003D0B9F1000F08D011E05020C8
:1030700080F31188BFF34F8FBFF36F8FFEE7206C93
:1030800038B1502080F31188BFF34F8FBFF36F8F9B
:10309000FEE7022F0AD1E06B012807D0502080F311
:1030A0001188BFF34F8FBFF36F8FFEE7FFF74EFC22
:1030B0005020EFF3118680F31188BFF34F8FBFF3D9
:1030C0006F8FA06BE16B884206D3022F04D00020E3
:1030D00086F31188BDE8F08794F94550A06B3A4615
:1030E00049462046FEF7ABFF681C04D06D1C84F8EF
:1030F00045500120ECE7606A0028FAD004F1240072
:1031000000F0F0F90028F4D0B8F1000FF1D001215F
:10311000C8F80010EDE700002DE9F747002683B05E
:103120008A46040003D0BAF1000F08D011E0502005
:1031300080F31188BFF34F8FBFF36F8FFEE7206CD2
:1031400038B1502080F31188BFF34F8FBFF36F8FDA
:10315000FEE700F00FF9DFF8F4804FF000094FF0C0
:10316000805748B9059838B1502080F31188BFF3D3
:103170004F8FBFF36F8FFEE7FFF770FBA56BC5B1F5
:1031800051462046FEF748FF6D1EA563206950B1E9
:1031900004F1100000F0A6F928B1C8F80070BFF3E0
:1031A0004F8FBFF36F8FFFF779FB012006B0BDE8AB
:1031B000F087059808B11EB106E0FFF76FFB27E026
:1031C0006846FFF749FC0126FFF768FBFFF7CAFCDA
:1031D000FFF744FB94F94400401C01D184F844906B
:1031E00094F94500401C01D184F84590FFF756FB47
:1031F00005A9684600F02CF8002820460AD0FFF701
:10320000DDF900F0A7F92046FFF76CF80028B3D0ED
:103210000020CBE7FFF766F890B104F12400059990
:10322000FFF728FC2046FFF7C9F900F093F90028C2
:10323000A2D1C8F80070BFF34F8FBFF36F8F9BE729
:103240002046FFF7BBF900F085F995E704ED00E0B3
:103250002DE9F0410C46050011D0C4B1FFF7FEFA8C
:10326000174BDA686E682068911B471C17D02F68CF
:103270001B6A9F4219D0964217D8012410E05020B3
:1032800080F31188BFF34F8FBFF36F8FFEE750209D
:1032900080F31188BFF34F8FBFF36F8FFEE70024D9
:1032A000FFF7FCFA2046BDE8F081884205D9401AB4
:1032B00020602846FFF7D0FBF1E700202060DCE724
:1032C000140000202DE9FF5F8346DDE90E87994653
:1032D00016468A469000FFF7A7F905001CD05C202F
:1032E000FFF7A2F9040014D00020256384F85900E8
:1032F000CDE90240CDE900874B463246514658465B
:10330000FEF756FF2046FEF7F3FD012004B0BDE8AE
:10331000F09F2846FFF7D6FA4FF0FF30F6E7F0B5FA
:1033200085B0DDE90B640A9DA6B1DCB15C2700978E
:103330002663022684F85960002604AFCDE90246D0
:10334000CDE90057FEF734FF2046FEF7D1FD049883
:1033500005B0F0BD502080F31188BFF34F8FBFF34D
:103360006F8FFEE7502080F31188BFF34F8FBFF3BC
:103370006F8FFEE70548416919B1006B18B1002055
:1033800070470120704702207047000014000020A1
:103390000148C06870470000140000202DE9F0418A
:1033A0002E4C0027206B28B1A069401CA061384634
:1033B000BDE8F081E668761CE66013D1606B0068BA
:1033C00038B1502080F31188BFF34F8FBFF36F8F58
:1033D000FEE7606BA16B6163A063206A401C206202
:1033E000FFF76CF8A06ADFF87880864209D3606B3B
:1033F0000068A0B1606BC068C5686868864211D279
:10340000A0622068C06A00EB800158F82100012802
:1034100000D90127E0690028C9D00127C7E74FF08C
:10342000FF30EDE7281DFFF7BDF9A86A18B105F1D7
:103430001800FFF7B7F9E86A2169884200D92061CE
:1034400000EB800108EB8100291DFFF7FBF9E86A1A
:103450002168C96A8842CAD30127C8E7140000203E
:10346000BC01002070B504004FF0000133D01B4DAB
:103470002868844207D0502080F31188BFF34F8F13
:10348000BFF36F8FFEE7206D38B1401E2065E36CFF
:10349000E26A9A421FD040B11DE0502080F31188AB
:1034A000BFF34F8FBFF36F8FFEE7201DFFF77AF951
:1034B000E06CE062C0F13800A061E06A29698842EE
:1034C00000D92861064900EB800001EB8000211D36
:1034D000FFF7B8F90121084670BD00001400002074
:1034E000BC01002070B5C068C46854B104F1180074
:1034F0000646FFF757F9144D286B50B13146134873
:1035000015E0502080F31188BFF34F8FBFF36F8F0A
:10351000FEE7201DFFF746F9E06A2969884200D9D5
:1035200028610B4900EB800001EB8000211DFFF7B3
:1035300089F9E06A2968C96A884202D90120E861EC
:1035400070BD002070BD0000140000204406002063
:10355000BC0100202DE9F0472C4D00242746286BA4
:1035600038B1FFF77BF9286B401E2863286B40B108
:1035700046E0502080F31188BFF34F8FBFF36F8F69
:10358000FEE7A968224E0120D1B3A6F591698046D5
:103590003068E0B1F068C46804F11800FFF702F980
:1035A000201DFFF7FFF8E06A2969884200D92861E9
:1035B00000EB800109EB8100211DFFF743F9E06A70
:1035C0002968C96A8842E3D3C5F81C80E0E70CB1DA
:1035D000FEF774FFAC694CB14FEA0806FFF7DEFE58
:1035E00000B1EE61641EF9D10020A861E86938B12C
:1035F0000849012738070860BFF34F8FBFF36F8F6B
:10360000FFF74CF93846BDE8F087000014000020B1
:103610004406002004ED00E010B586B0FEF7D0FCB3
:10362000114C2068B8B100200390049005AA04A9A9
:1036300003A8FFF7D5F8DDE9032102208DE8070094
:1036400000230AA10B48059AFFF769FE606010B1DC
:1036500006B0012010BD502080F31188BFF34F8FBA
:10366000BFF36F8FFEE7000050000020546D722002
:1036700053766300992500082DE9FF411E46134645
:1036800002000A9D4FF0000016D0144C2768002F4E
:103690000FD0CDE900130292062917DAFFF76AFE70
:1036A00002284FF000030FD0002269462068FFF780
:1036B00023FC04B0BDE8F081502080F31188BFF3F3
:1036C0004F8FBFF36F8FFEE72A46EEE700233246A7
:1036D00069463846FFF7C0FCEBE7000050000020C9
:1036E0001C3700080000000000000000000000007F
:1036F00000000000000200001800000000000000B0
:1037000000000000000000000000000001020304AF
:1037100006070809000000000102030464656661F1
:10372000756C745461736B0048370008000000200A
:1037300098000000401A0008E037000898000020B8
:10374000B84D0000501A0008000000000100000001
:1037500010000000000000000024F4000000000041
:103760000000000000000000000000000000000059
:103770000000000000000000000000000000000049
:103780000000000000000000000000000000000039
:103790000000000000000000000000000000000029
:1037A0000000000000000000000000000000000019
:1037B0000000000000000000000000000000000009
:1037C00000000000000000000000000000000000F9
:1037D00000000000AAAAAAAA000000000000000041
:04000005080001AD41
:00000001FF
